:020000021000EC
:1004000000900002470501001105010013050100DD
:100410001505010017050100190501005051F9FDEE
:100420000000000000000000000000001B050100AB
:100430001D050100000000001F0501001509010055
:100440002305010023050100230501002305010008
:1004500023050100230501002305010023050100F8
:1004600023050100230501002305010023050100E8
:1004700023050100230501002305010023050100D8
:1004800023050100230501002305010023050100C8
:1004900023050100230501002305010023050100B8
:1004A000230501002305010023050100711401004B
:1004B0002305010023050100230501002305010098
:1004C0002305010023050100230501002305010088
:1004D0002305010023050100230501002305010078
:1004E0002305010023050100230501002305010068
:1004F000230501002305010023050100F446010046
:10050000000000023800000038000002D81A000085
:10051000FEE7FEE7FEE7FEE7FEE7FEE7FEE7FEE7B3
:10052000FEE7FEE7002310B5934200D310BD1C5830
:100530005C500433F8E700231A468B4200D370471F
:100540001A500433F9E738B50E4C0F4DAC420AD3BC
:100550000E4DAC420FD301220D4B1A6000F056FC39
:1005600002F068FFFEE7D4E900010C3454F8042CD3
:10057000FFF7D8FFEAE754F8080B54F8041CFFF71C
:10058000DAFFE6E7FC0401000805010010050100A0
:10059000D8400740FFFFFFFFFFFFFFFFFFFFFFFF08
:1005A000FFFFFFFFFFFFFFFFFFFFFFFFFFFFFFFF5B
:1005B000FFFFFFFFFFFFFFFFFFFFFFFFFFFFFFFF4B
:1005C000FFFFFFFFFFFFFFFFFFFFFFFFFFFFFFFF3B
:1005D000FFFFFFFFFFFFFFFFFFFFFFFFFFFFFFFF2B
:1005E000FFFFFFFFFFFFFFFFFFFFFFFFFFFFFFFF1B
:1005F000FFFFFFFFFFFFFFFFFFFFFFFFFFFFFFFF0B
:10060000FFFFFFFFFFFFFFFFFFFFFFFFFFFFFFFFFA
:10061000FFFFFFFFFFFFFFFFFFFFFFFFFFFFFFFFEA
:10062000FFFFFFFFFFFFFFFFFFFFFFFFFFFFFFFFDA
:10063000FFFFFFFFFFFFFFFFFFFFFFFFFFFFFFFFCA
:10064000FFFFFFFFFFFFFFFFFFFFFFFFFFFFFFFFBA
:10065000FFFFFFFFFFFFFFFFFFFFFFFFFFFFFFFFAA
:10066000FFFFFFFFFFFFFFFFFFFFFFFFFFFFFFFF9A
:10067000FFFFFFFFFFFFFFFFFFFFFFFFFFFFFFFF8A
:10068000FFFFFFFFFFFFFFFFFFFFFFFFFFFFFFFF7A
:10069000FFFFFFFFFFFFFFFFFFFFFFFFFFFFFFFF6A
:1006A000FFFFFFFFFFFFFFFFFFFFFFFFFFFFFFFF5A
:1006B000FFFFFFFFFFFFFFFFFFFFFFFFFFFFFFFF4A
:1006C000FFFFFFFFFFFFFFFFFFFFFFFFFFFFFFFF3A
:1006D000FFFFFFFFFFFFFFFFFFFFFFFFFFFFFFFF2A
:1006E000FFFFFFFFFFFFFFFFFFFFFFFFFFFFFFFF1A
:1006F000FFFFFFFFFFFFFFFFFFFFFFFFFFFFFFFF0A
:100700001FB51A4C204602F003FD41F204031849BC
:100710002046ADF8043002F0D6FC0023ADF80C0002
:1007200001A920468DF80630029302F0D4FC114B4B
:1007300069462046009302F005FD236843F001035B
:1007400023604FF0E05303F50052116803F508539E
:1007500041F00401116004211960116841F0800129
:10076000116080221A6004B010BD00BF00C00440B8
:1007700040420F000001010000231846044A52F8CD
:10078000041B0133102B0844F9D10011704700BF3E
:100790004000000208B5FFF7EFFF03F00DFB024930
:1007A00003F05EF908BD00BF00401C374FF0E05376
:1007B0001B79002B25D11D4B5A695A691C4A9A6135
:1007C0009A689207FCD51B4A9A619A68D007FCD5B3
:1007D0005A69164BD2B29968C907FCD55B699BB2BE
:1007E00043EA024313F4000F134A18BF43F07F4358
:1007F00013600E4B114A9A619A689207FCD5104A11
:100800009A61104A13680133632B01D81360704753
:100810000023094913600C4A086813680B4941F822
:100820002300013303F00F03F0E700BF00C00440D2
:1008300040000E0701030E0F3800000200004E07B3
:1008400051005E0F800000023C00000240000002E8
:100850000022014B1A707047860000020B78042BAF
:1008600003D1012A04BF014B1A707047001B00021C
:1008700038B5234D234C002001F09CF800B938BD59
:10088000002001F0B1F82A78034611182970217868
:1008900004290CD8DFE801F00309101B2800312BD4
:1008A000E9D101222B702270E5E7412B01D0002312
:1008B00000E002232370DEE7134A1449137000227C
:1008C000F02B0A7001D80323F4E72270D3E70F4816
:1008D00001784A1CD2B202700D4843540A4B1B786F
:1008E0009342C8D80423E5E700209A422A7020707A
:1008F000C1D1054B06491A78FFF7B0FFBBE700BF2F
:1009000085000002860000027701000284000002D8
:100910008700000208B5FFF749FF01F095F801F0E4
:1009200097FFBDE8084000F0CBBFFFFFFFFFFFFFD0
:100930002DE9F84FC04B02F0FFF900F069FA0920E9
:1009400002F07AFA092002F03DFC092002F04CFC8A
:10095000202002F071FA202002F034FC202002F066
:1009600043FC6FF07F42B54B1A6001F057F800F07E
:10097000D9FFFFF76DFF012001F060FDFFF7C0FE1A
:1009800001F012FF012000F0C7FE00F093FF0138D4
:10099000AB4B032800F24781DFE810F004003D0173
:1009A0003F0141010122A7489A7001F09DFD0124F9
:1009B000A54E0C220021304602F03AFD1021A34B37
:1009C00003222046347000F09DFB204600F0F6FA2A
:1009D0000546022000F0F2FA9D490746284603F03A
:1009E00041FA30B92946284603F010FAB0FA80F4EB
:1009F00064099849284603F018FA39460028384611
:100A000018BF012403F002FA0028384608BF012469
:100A100003F0E0F94FF033328F4B8046894602F005
:100A2000F6FF40B982A3D3E900234046494602F0CD
:100A3000C5FF00B944B10021012000F09FFA4FF03A
:100A40007E51022000F09AFA002000F0BDFA044620
:100A50008249082001F09EFE072C04D90021084697
:100A600000F09CFA0024E0B201F088FE02F03AFAAD
:100A70004FF47A53B0FBF3F00138B0F1807F09D224
:100A8000E021774B774A586082F8231000229A6061
:100A900007221A602022734BDFF8E89183F82320A5
:100AA000714C674FFFF7E4FE01F0FCFC00F06CFEB8
:100AB0000728054600F0E8800C2800F0EF8021466A
:100AC000284601F025F8284600F038FB2168C94384
:100AD00001F0010500F084FD294601F0B5FFC0B228
:100AE000022800F0E080032800F0E480012803D110
:100AF00002F01CF900F056FD00F092FF0028D1D062
:100B000001F002FD002001F0C1FC7060002000F047
:100B10005BFAC0B201F032FE00F062FD534D2B785B
:100B200083420AD000F05CFD2870206820F00100AC
:100B3000206000F0FE0000F059FD2368DA07AFD511
:100B400000F07CFF4A4C4FF0000AE080FFF722FEE5
:100B50000546012000F032FA0146284603F036F837
:100B60000546022000F02AFA0146284602F078FFE6
:100B7000D9F80030054613F0020F84F805A03D4F68
:100B80002ED04FF0030B736821460220236084F8B7
:100B900004B000F091FD4FF0050321465846237143
:100BA000256000F089FD504601F076FC214620606A
:100BB000042084F804B000F07FFD386803F005F9E4
:100BC00003F008F94FF011322B4B02F0F1FC02F068
:100BD000CDFE21462060052084F804A000F06CFDC5
:100BE0002649284603F03EF918B1637943F0010322
:100BF0006371124B00205B683B6000F0E5F9072849
:100C00006DD8DFE810F06100A900B400BF00CA0091
:100C1000D500E000EB000222C5E60322C3E6042271
:100C200017489A70C1E600229A70C0E6AFF30080C0
:100C30009A9999999999E93F423F010000000A4029
:100C400000000002B4C2663B1803000284010002E7
:100C50000000C8420000C8C23333F33F0600000260
:100C600010E000E000ED00E0280300020C030002A9
:100C700010030002240300021111913F00008C4276
:100C800037BF853B78010002207800F0AFFC3B467F
:100C900006220021882000F0D7FC10E7554B1B7876
:100CA000C9F800300BE73F2000F07CFC012000F089
:100CB00051FD21E701F05CFD0146002000F06EF9D6
:100CC0000D2000F03BFA17E7002001F0E5FB00F0F3
:100CD000CBFF294602F0ECFF00F0F6FF2060464B08
:100CE000D4F800805A683B6841469B1A23F07F4342
:100CF0003B60424F424D386802F0DAFF2B68414AB0
:100D000001333860414600202B6000F063F9032175
:100D10002060002000F0DCF93B492071012000F048
:100D2000CBFCD9F80030DB077FF5BAAE2868132872
:100D30007FF6B6AE03F049F80146386802F0E8FEE7
:100D400003232060A3803049012000F0AFFC002382
:100D50003B6000232B60A3E6002001F09DFB00F028
:100D6000FBFF294602F0A4FF01F024F8B6E70020BB
:100D700001F092FB01F064F8294602F099FF01F0BE
:100D80008FF8ABE7002001F087FB01F0D1F829468E
:100D900002F08EFF01F010F9A0E7002001F07CFBCB
:100DA00001F052F9294602F083FF01F07BF995E743
:100DB000002001F071FB01F0BDF9294602F078FF37
:100DC00001F0ECF98AE7002001F066FB01F03AFA45
:100DD000294602F06DFF01F069FA7FE7002001F07B
:100DE0005BFB01F0B7FA294602F062FF01F0E0FA7E
:100DF00074E700BF011B000200000A407C010002F2
:100E000080010002150300021003000200F076B812
:100E10004FF0E05002F0AAB830B94FF0E053987F9D
:100E2000003018BF01207047012803D14FF0E05374
:100E3000587AF5E70120704738B50D2001F0FCFF26
:100E40000C2001F0F9FF2A2001F0F6FF0D2002F03E
:100E5000B9F90D2002F0C8F916220C490C4802F02D
:100E600023F900240B4D05EB44035B7815F81400BF
:100E7000C3F34101C3F3C40303EB4111C9B201340D
:100E800002F07AF9082CEED138BD00BF643F0100B2
:100E900000800F40BC3F010038B54FF4001002F055
:100EA000C5F90123144C4FF48000C4F8A03002F0BF
:100EB000AFF944234FF48000C4F8983102F0B6F93A
:100EC000D4F89C31DB07FBD50125C4F8C050D4F819
:100ED0002431062023F4405343F40053C4F8243152
:100EE00001F08CFF4FF4000002F092F9C4F8A45016
:100EF000C4F8CC5038BD00BF0040074008B5FFF72C
:100F00009BFFFFF7C9FF0122014BC3F8CC2008BDAE
:100F1000004007402DE9F0470024DFF85480DFF857
:100F20005490DFF854A0D8F80030A34206DCBDE8A6
:100F3000F047F0220C49102001F0FCBFD9F8002046
:100F4000DAF8007004FB02F6BD19294606F5807038
:100F500001F0F0FF054B2A791B6801349A42C2BFA9
:100F60000023BB516B60DEE748030002140000025F
:100F700010000002440300024003000208B5064BC3
:100F8000F02243F820101946102001F0B7FFBDE809
:100F90000840FFF7BFBF00BF4803000208B5064B7B
:100FA000F02243F820101946102001F0A7FFBDE8F9
:100FB0000840FFF7AFBF00BF48030002014B53F8E2
:100FC0002000704748030002014B53F8200070478F
:100FD000480300022DE9F84F3A4B17781B6807F0D9
:100FE000FD0783420D469146177068DD364B1E683B
:100FF000364B1C6806FB00463379002B4FD0012B83
:101000004FF0000426D9182206F1080B03F1FF382F
:1010100004F1010A02FB0AF329465BF8030002F01F
:1010200021FF00283ED1C24554464FF01802EFDBA5
:101030003379013BA3420DD1182303FB04632946F6
:10104000986802F0F2FE28B199F8003043F00203EC
:1010500089F800302946284602F002FD074618208C
:1010600000FB04643946284602F0FAFC216902F0CC
:10107000F7FC61690646384602F0F2FC014630464C
:1010800002F016FEA1690646284602F0E9FC014678
:10109000304602F00DFEE16902F00AFE05462846E0
:1010A000BDE8F88F002CC3D12946B06802F0DAFE03
:1010B0000028BDD047F0020789F80070B8E7002586
:1010C000EDE700BF100000024403000240030002ED
:1010D000094A0346126882420BDD084A0848126832
:1010E000006802FB03031A791AB15B79002B18BF61
:1010F00019460846704700BF100000024403000272
:101100004003000210B4084C2260084A10BC106072
:10111000074A1160074A136018234B43064A0833F5
:101120001360FFF7F7BE00BF340300021000000297
:101130001400000240030002440300022DE9F74FAF
:101140000738072831D8DFE810F0330049000B01D9
:101150007700300030000800380000248E4D8F4F9B
:101160008F4E3B68A34220DD55F8043B05223360D7
:1011700000218B4B8D20347100F066FA0134F0E7CA
:10118000396834685143874B60186158541C1960A2
:10119000017906221971417989205971E1B200F073
:1011A00053FA22462B689342EADC03B0BDE8F08F85
:1011B00000227D4D7D4E7E4FF4E77E4A13793B2B16
:1011C000F3D812687449102041F82320F02201F06E
:1011D00095FE03B0BDE8F04FFFF79CBE764D2B782F
:1011E00053B3714A1268934226DC4FF00008704AEC
:1011F000013B1268DFF8C8B102FB03FA6B4B6F4C7E
:101200001B6803EB0A09019309F10806DBF80030BB
:101210002978434506F118062CDC019A614B52F8F7
:101220000A2089201A6099F804201A7199F805207B
:101230005A71062200F008FA5F4B1A78002AB4D0DF
:10124000594B1B689A42B0DC5A485D4B41791B6888
:101250009942AADA564B013A1C68544B1B6804FBAE
:1012600002330279012A51D1182202FB01330268AC
:101270009A609AE756F8183C5FFA88F723604FF0B7
:101280000103062223718A204C4B677100F0DCF9C0
:1012900056F8143C062223600223297823718A2001
:1012A000464B677100F0D0F956F8043C06222360E3
:1012B0000323297823718A20404B677100F0C4F919
:1012C00056F8083C062223600423297823718A20DB
:1012D0003A4B677100F0B8F956F80C3C06222360CF
:1012E0000523297823718A20344B677100F0ACF90B
:1012F000062256F8103C297823608A202F4B227151
:10130000677108F1010800F09FF97FE7022A0ED00B
:10131000032A12D0042A17D0052A1BD0062A7FF4EC
:1013200044AF182202FB013302681A613DE718221C
:1013300002FB01330268DA6037E7182201FB022260
:10134000134402685A6030E7182201FB0222016848
:1013500099502AE7182202FB013302685A6124E7F8
:10136000154B187800283FF420AF0F4B1B689842AC
:101370003FF71BAF0E4B01381A680C4B50431C68EB
:101380000C4B21181D6825501C7900F580700C71DC
:101390005B794B711BE700BF480300023403000276
:1013A000380400022C030002100000024003000277
:1013B00044030002011B00023D0400023803000246
:1013C00014000002142110B50B4C0C4A236801FBD9
:1013D000032358740A4B20681B6801FB00219B689B
:1013E000084A1B6910689847236801332360236803
:1013F00003F00F03236010BD9C0D00025C0C000283
:1014000000020003580C0002022802BF0022014B18
:101410001A607047A8170002430742BF0122014B20
:101420001A707047A40D00027FB50C4B00F03F000E
:10143000187001238DF81530094B0A4A43EA8013CE
:101440000193094B01A90293084B10681B689B6824
:10145000DB68984707B05DF804FB00BF3F0400025B
:1014600000005023580C0002C00FF80300020003D4
:10147000034B044A1B6810689B689B68184700BFB1
:1014800000020003580C000230B53B4D8DB006AC95
:101490000FCD0FC495E8030084E80300272001F076
:1014A000CBFC272001F08EFE272001F09DFE80223C
:1014B000324B0B21DA626220DA6701F05DFE1F21F8
:1014C000612001F059FE2E4B2E4C0693042323601D
:1014D0002D4B1B7823B1022B10D042F2017301E097
:1014E0004FF41C5363600123284DA3602B6806A8AA
:1014F0009B681B689847802803D9FEE742F2037374
:10150000F0E72B6806A99B6821485B68984708B1FB
:1015100030BFFDE7A3680024012B08BF4FF0006235
:101520001C4B01A908BF1A60E02283F81B231A4A4A
:101530001A4B8DF81540CDE90123144B144A1B6852
:1015400010689B68DB689847154B01220DF1030179
:1015500020461C608DF8034001F0ECFC9DF8033040
:10156000013B3E2B84BF3F238DF803309DF80300E1
:10157000FFF75AFF0DB030BDCC3F010000800F4097
:10158000580400024C0400023E0400020002000362
:10159000580C000200E100E000005023C00FF803E7
:1015A000A817000213B5012204468DF807000DF1BB
:1015B0000701002001F0A2FC01220DF1070100202B
:1015C00001F0B8FC9DF807302046013B3E2B84BF5C
:1015D0003F238DF80730FFF727FF02B010BDFFFF54
:1015E000014B1878704700BF3F0400027FB5114BD4
:1015F0008DF810001B78104A9B0143F04D5343F4C3
:10160000C31301930023029340F20673ADF8143024
:101610000A4B01A91B6810680393094B1B788DF8CE
:101620001130084B1B689B685B69984707B05DF8F1
:1016300004FB00BF3F040002580C000240040002FB
:1016400044040002000200032DE9F8431425144E5F
:1016500088463168134F4D43044605F1080019468A
:101660003844914601F0E2FE002302217A195360CA
:10167000517482F810900C4A2103127841EA8211C9
:10168000326841EA080101327F2A98BF134641F0CF
:101690004D5141F4801179513360BDE8F88300BFAA
:1016A000B0170002A80D00023F0400020B460822FA
:1016B000C1B28B20FFF7C8BF10B5102886B00B460B
:1016C000C4B206DD082221468420FFF7BDFF06B024
:1016D00010BD0E4B08221B780F3440EA8310002304
:1016E00040F04D5040F4C210019003A802938DF8D1
:1016F00014208DF8154001F099FE054B054A1B6832
:1017000001A99B6810685B699847E0E73F04000205
:1017100000020003580C0002012238B50A4C0546AD
:101720002146104601F006FC2378022B84BF0123DA
:10173000237000F0BBF8054B1860054B1D70BDE829
:101740003840FFF7A1BE00BF3E0400024004000283
:101750004404000207B501228DF807000DF10701CE
:10176000104601F0CBFBBFF34F8F0549054BCA680C
:1017700002F4E0621343CB60BFF34F8FFEE700BF7C
:1017800000ED00E00400FA05F8B52A4C2A4B216868
:101790001B68994219D0294B1D68B5B91420284AF5
:1017A00000FB012102224A7401221A60254B264ABD
:1017B0001D60264B10681B689B685B69984723680F
:1017C00001337F2B88BF2B4623602148214A0368C1
:1017D000126893422CD014225A431F491F4E8D5831
:1017E0000832C5F3073405F03F0535701C4E0A4436
:1017F0003546082112F8017B013906F8017BF9D141
:10180000013303F00F03062C036004D00B2C0DD121
:101810002878FFF79FFF00F049F82B68984205D120
:101820002879431E3E2B01D8FFF7BCFE2046F8BDA9
:101830000024FBE7B4170002B0170002A81700024B
:10184000A80D0002AC170002580C000200020003B1
:10185000A00D00029C0D00025C0C00023D04000281
:10186000011B00020D4908B50B782BB10C4A136817
:101870000133642B0BD813600A4A1368092B85BF08
:101880000022094B01331A6098BF136008BD002382
:1018900013600B70FFF7F8FDEEE700BFA40D000228
:1018A00048040002AC170002A81700024FF47C3372
:1018B00018687047014B1868704700BF04F00300B8
:1018C000114B1B78F3B1114B9A68D20708D5104A17
:1018D000596913780133DBB2137013780D4AD15470
:1018E0000D4A0E491378097899420BD007498B6845
:1018F0005B0707D513780133DBB213701378084AFE
:10190000D35CCB61704700BFBC18000200000440EC
:10191000B8170002BC170002BF180002BD18000271
:10192000C118000210B5194C01214FF4E10001F07B
:10193000B5FA204601F08AFC23684FF4E13123F028
:101940007C0343F4401343F004032360204601F07A
:10195000A7FC23680E4A43F001032360636823F069
:1019600040036360002313700A4A13700A4A13701D
:101970000A4A13700A4A13700A4A13700A4A13700B
:101980000A4A137001220A4B1A7010BD000004406D
:10199000BA170002BF180002B8170002BD180002F3
:1019A000BB170002C0180002B9170002BE180002DF
:1019B000BC18000238B9084B084A1B781078C01AC6
:1019C00018BF01207047012803D1054B054A1B7839
:1019D000F4E70020704700BFB8170002BA170002F2
:1019E000B9170002BB17000238B9094A137801334E
:1019F000DBB21370074AD05C7047012808BF064A63
:101A00004FF0000002BF137801331370704700BF1E
:101A1000BA170002BC170002BB1700027047FFFF95
:101A2000044B1A68044B196891421ABF01201A60CE
:101A300000207047C4190002E0190002014B186829
:101A4000704700BFEC19000270B5284B284C19688C
:101A5000226801F58030002A186017DD013A103045
:101A6000226018605A88234C12F008020CD02668B5
:101A700056B92149214B0D6821487DB10E6021499D
:101A80000968196032230360226070BDEAD001F555
:101A90007F410132F03122601960E3E719680131BA
:101AA00019604EF65F211E688E42016888BF1D6076
:101AB00011B101390160E7E764201D68B5FBF0F161
:101AC00000FB11510029DFD10F480168013101608D
:101AD0004FF47A711868B0FBF1F301FB1303002B8C
:101AE000D2D10A490B6801330B60CDE7D01900024F
:101AF000CC190002D8190002E8190002EC19000202
:101B0000DC190002F0190002C4190002C819000211
:101B1000022873B50D462FD024D801283FD0474A5C
:101B2000474B1168186888421AD012681A60454AF3
:101B300013680133B3F5966F136088BF2B68424A70
:101B400084BF23F002032B6013680133C72B6ED8C8
:101B50001360FFF787FEAA223C4B9A6055229A60D9
:101B600002B070BD032813D02028D8D15522374B9E
:101B70009A60AA229A60D2E7FFF732FD3F28CED0C2
:101B8000286840F001002860C0B2FFF72FFDC6E7CB
:101B9000086820F00100086000F0FE00F5E72C4B1B
:101BA0002C4E1B8833602C4B34681B68ADF800400A
:101BB000ADF80230A4B29BB2E41A284B9C4220DA62
:101BC00004F56A4460346B4600210822C020019469
:101BD000FFF73AFD84EAE473A3EBE473642B204936
:101BE0002B6816DD23F0020301202B6000233268EE
:101BF0000B601E3232601B4A10600022114B1A60CB
:101C00008DE747F22F539C42C4BFA4F56A44603C61
:101C1000D9E743F002032B606FF005039C42B8BF85
:101C20001C46062CA8BF062424040C60E5E700230C
:101C300028781360FFF7DAFC8BE700BFC4190002B5
:101C4000E4190002F4190002D419000200C0024095
:101C5000011B0002F0190002EC190002D08AFFFFFC
:101C6000CC190002E81900022DE9F0411449804620
:101C700002F0F8F8002814BF24200020114C10496D
:101C80002658404602F0EEF8002814BF242500250F
:101C900047462544012455F82410384601F0E0FE5B
:101CA0000146304602F004F841460646384601F047
:101CB000D7FE0134092C0746EDD13046BDE8F0814E
:101CC0005CA71D44E43F01002DE9F0411C49054695
:101CD00002F0C8F800282FD11A49284602F0A5F8CA
:101CE00000282BD11849284602F0BCF8002814BF60
:101CF00024200020154E14493458284602F0B2F82A
:101D0000002814BF24270027A8463744012657F887
:101D10002610404601F0A4FE0146204601F0C8FF0F
:101D200029460446404601F09BFE0136092E8046B6
:101D3000EDD12046BDE8F081054CFAE7054CF8E707
:101D4000B81E5D416F12833A81951B402C40010003
:101D50000080E344000034422DE9F0410021804638
:101D600002F080F8002814BF38200020104C002119
:101D70002658404602F076F8002814BF3825002582
:101D800047462544012455F82410384601F068FEE2
:101D90000146304601F08CFF41460646384601F0C8
:101DA0005FFE01340E2C0746EDD13046BDE8F081D0
:101DB000744001002DE9F0411C49054602F052F83B
:101DC00000282ED11A49284602F02FF858BB0021CE
:101DD000284602F047F8002814BF28200020154E9E
:101DE00000213458284602F03DF8002814BF282767
:101DF0000027A8463744012657F82610404601F030
:101E00002FFE0146204601F053FF29460446404676
:101E100001F026FE01360A2E8046EDD12046BDE8AF
:101E2000F081054CFAE7054CF8E700BFFABE98428E
:101E3000295C1DC1E440010000007A44000087C312
:101E40002DE9F0411449804602F00CF8002814BF37
:101E500024200020114C10492658404602F002F878
:101E6000002814BF2425002547462544012455F8A1
:101E70002410384601F0F4FD0146304601F018FF09
:101E800041460646384601F0EBFD0134092C074671
:101E9000EDD13046BDE8F08100003E443441010000
:101EA0002DE9F0411C49054601F0DCFF00282FD147
:101EB0001A49284601F0B9FF60BB1949284601F0CC
:101EC000D1FF18BB0021284601F0CCFF003018BF1D
:101ED000012024232F4601265843124A145802EBAE
:101EE000000858F82610384601F0BAFD0146204691
:101EF00001F0DEFE29460446384601F0B1FD013608
:101F0000092E0746EDD12046BDE8F0810220E0E72A
:101F1000054CF8E7054CF6E7231B8B421F8501C1F2
:101F20000EAD2B427C41010000009644000052C3DC
:101F30002DE9F0410021074601F094FF002830D040
:101F40001949384601F042FE0446184901F088FD5F
:101F5000214601F085FD01F0AFF9154901F080FD42
:101F600001232C22534313493E4601EB0308C95871
:101F700001F09EFE0124054658F82410304601F079
:101F80006FFD0146284601F093FE3946054630466E
:101F900001F066FD01340B2C0646EDD12846BDE864
:101FA000F08103460020DCE7ECEFFD42062FF8B895
:101FB0004CE3F23DE84101002DE9F0411C490546A2
:101FC00001F050FF00282FD11A49284601F02DFFBB
:101FD00060BB1949284601F045FF18BB002128467F
:101FE00001F040FF003018BF012028232F460126B2
:101FF0005843124A145802EB000858F82610384685
:1020000001F02EFD0146204601F052FE294604460D
:10201000384601F025FD01360A2E0746EDD120464F
:10202000BDE8F0810220E0E7054CF8E7054CF6E753
:10203000448B5B42F0A7CEC0E926A5414042010097
:102040000080AB44000087C32DE9F04100218046A9
:1020500001F008FF002814BF2C200020104C0021A4
:102060002658404601F0FEFE002814BF2C2500250E
:1020700047462544012455F82410384601F0F0FC69
:102080000146304601F014FE41460646384601F04E
:10209000E7FC01340B2C0746EDD13046BDE8F0815A
:1020A000B84201002DE9F0411C49054601F0DAFE75
:1020B00000282FD11A49284601F0B7FE60BB194904
:1020C000284601F0CFFE18BB0021284601F0CAFEC9
:1020D000003018BF01204C232F4601265843124AD6
:1020E000145802EB000858F82610384601F0B8FCE6
:1020F0000146204601F0DCFD29460446384601F041
:10210000AFFC0136132E0746EDD12046BDE8F08125
:102110000220E0E7054CF8E7054CF6E7500D3E429B
:102120003D0A8BC06DE7A441104301000080A2442A
:10213000000087C32DE9F0411549074601F092FEE2
:1021400018BB1449384601F08DFE003018BF01203D
:1021500028233E46012458430F4A155802EB000835
:1021600058F82410304601F07BFC0146284601F067
:102170009FFD39460546304601F072FC01340A2CB9
:102180000646EDD12846BDE8F0810220E0E700BF19
:102190000010D044C3058544F44301002DE9F0410B
:1021A0002049044601F05EFE002837D11E49204632
:1021B00001F03BFE002833D11C49204601F052FEBD
:1021C00050BB1B49204601F04DFE051C18BF0125E0
:1021D0001849204601F046FE002818BF03252C2090
:1021E000274601266843144B1D5803EB000858F896
:1021F0002610384601F034FC0146284601F058FD0F
:1022000021460546384601F02BFC01360B2E0746C9
:10221000EDD12846BDE8F0810225D9E7074DF8E762
:10222000074DF6E7F2D2A8418B6C67BEA8C63541D0
:10223000DD24F63F79E99D416C4401003303DD4420
:10224000000048C22DE9F0411549074601F00AFE99
:1022500018BB1449384601F005FE003018BF0120B4
:1022600024233E46012458430F4A155802EB000828
:1022700058F82410304601F0F3FB0146284601F0DF
:1022800017FD39460546304601F0EAFB0134092CBA
:102290000646EDD12846BDE8F0810220E0E700BF08
:1022A0000010D044C30585441C4501002DE9F041D0
:1022B0002049044601F0D6FD002837D11E492046AA
:1022C00001F0B3FD002833D11C49204601F0CAFDBE
:1022D00050BB1B49204601F0C5FD051C18BF012558
:1022E0001849204601F0BEFD002818BF042528200B
:1022F000274601266843144B1D5803EB000858F885
:102300002610384601F0ACFB0146284601F0D0FC0F
:1023100021460546384601F0A3FB01360A2E074642
:10232000EDD12846BDE8F0810225D9E7074DF8E751
:10233000074DF6E7448B9541FCA971BEDF4F25415F
:102340003BDFEF3FBA498C41884501003303DD4450
:10235000000048C22DE9F0410021804601F082FDD5
:10236000002814BF3C200020104C00212658404675
:1023700001F078FD002814BF3C2500254746254480
:10238000012455F82410384601F06AFB0146304616
:1023900001F08EFC41460646384601F061FB0134EF
:1023A0000F2C0746EDD13046BDE8F08128460100EC
:1023B0002DE9F0411C49054601F054FD00282ED1BD
:1023C0001A49284601F031FD58BB0021284601F08A
:1023D00049FD003018BF0120154E4001345800213E
:1023E000284601F03FFD002814BF20270027A846FB
:1023F0003744012657F82610404601F031FB0146CC
:10240000204601F055FC29460446404601F028FBD1
:102410000136082E8046EDD12046BDE8F081054CFE
:10242000FAE7054CF8E700BFDBF9A6418941C8C0CF
:10243000A04601000000C8430000D8C14FF49062DC
:1024400038B50E4B0E4C9A650546DA65842000F0CF
:10245000A6FE832000F0A3FE204600F09CFD13237F
:1024600008496361204600F0A2FD236803F01E03C3
:1024700043F001032360044B1D6038BD00800F4012
:1024800000000540A08601002C000002014B53F81B
:1024900020007047F8190002014B53F820007047E4
:1024A000001A000238B50D4C2368012B02D0022B14
:1024B00008D038BD0A490B4800F0E6FD2368013317
:1024C0002360F6E707484368DB07F2D5044D294649
:1024D00000F086FDAB89FF2BF0D1EAE7BC1A0002C1
:1024E000AC1A00020000054008B501464FF07E50CE
:1024F00001F06CFB0022024B1860024B1A6008BD11
:10250000240000020C1A00022DE9F041744B754DB5
:102510001C682E682146304601F087FC20B3304607
:1025200001F058FC06460F4602460B4600206E4955
:1025300001F0C4F868A3D3E9002301F039F832466A
:102540003B4601F08FF901F011FA0646014620469C
:1025500001F06BFC002846D12E6029684FF07E50B8
:1025600001F034FB614B1860614B624C1A68013218
:10257000092A1A6084BF0122A281A289FF2A0BD0F6
:1025800000215D4E1960002A58D13368012B2CD0F0
:10259000002B53D0022B3DD0584B1B68002B6BD126
:1025A0002F68574C514B216838461D6801F058FA86
:1025B000544E80463168284601F052FA01464046A2
:1025C00001F076FB61682060384601F049FA7168D5
:1025D0000746284601F044FA0146384601F068FBF8
:1025E0006060BDE8F0812C60B7E7474A1178890642
:1025F00026D5464902200968306000290CBF4821D1
:102600004921A1734249C4E90012424AA260424AE8
:102610001360C1E73C4B1A7858783C4B40EA0220E3
:102620001F683E4B00B223F8170001F0C5FB4FF0C6
:10263000705101F015FA334B43F827000123336042
:10264000324A37491368096801338B4213600ED34D
:10265000002313604823A373324B012223602A4BCB
:1026600063604FF00113A3602B4B1A6094E7002BBB
:102670000CBF48234923EEE72B4A284913680888F2
:10268000013303F01F031360284A498822F813001E
:10269000203322F813100023184632F9021B0133AD
:1026A000202B0844F9D101F087FB4FF0665101F06F
:1026B000D7F90023124C1E4A2060184632F9021B3B
:1026C0000133202B0844F9D101F076FB4FF066511D
:1026D00001F0C6F984E700BF7B14AE47E17A843F7E
:1026E00024000002101A00020000F03F280000023F
:1026F000141A0002AC1A0002201A00020C1A00027E
:10270000001A0002F8190002081A0002A81A0002B2
:10271000241A000201000200BC1A0002181A00026A
:102720002C000002300000021C1A0002261A0002CF
:10273000661A00023F2830B50A4A0B4D03D1CE235A
:102740002B7000230BE00A23B0FBF3F103FB110312
:10275000064CDBB2E35C09282B70F2D9635C137082
:1027600030BD00BFE81A000232000002E04601005E
:10277000014B1878704700BFD81A0002034B1B6842
:10278000092B9CBF024B1870704700BFEC1A000267
:10279000D81A0002024B01381870024B19607047BA
:1027A000D91A0002D41A0002102228494FF0E0532F
:1027B0000A6020224FF000600A6003F508521060A2
:1027C0004FF0007010604FF4806008604FF40040DC
:1027D0001060082008604FF0805111604FF0806158
:1027E00011604FF48031A2F5FE72C2F8FC1111683D
:1027F00003F5005341F010011160116841F0200110
:102800001160196841F000611960196841F00071A8
:102810001960116841F480611160196841F4004148
:1028200019601168014311601A6842F080521A6001
:102830001A6842F080621A601A6842F480321A60A4
:102840001A6842F480421A60704700BF0422001CDC
:10285000714AF8B513680133B3F5A07F0CD2136049
:102860006E4A136801332F2B136064D90023136061
:102870006B4B4FF4804284E000200127694B1060CD
:102880001F60FEF7C9FA684E684D694CD8B93846E2
:10289000FEF7C2FAB8B93368F92B9CBFDB19336075
:1028A0003368632B08D1634A138843F01003138005
:1028B00000232B602360D3E7F92BF9D15D4A1388FD
:1028C00043F02003F3E700203060FEF7A5FAE0B9FB
:1028D0002B68632B08D80133632B2B6004D1554A36
:1028E000138843F0020313800120FEF795FA236852
:1028F000B8B9632BB4D80133632B2360B0D14D4AF0
:10290000138843F008031380AAE72B68033B5F2B6F
:102910009FBF484A138843F00103138000232B60B4
:10292000E2E7033B5F2B9FBF424A138843F0040357
:1029300013800023BEE7012B25D13F4B4FF0E0521F
:102940001B78DB43DBB2D90982F82410C3F3801172
:1029500082F82510C3F34011D176C3F300115176EC
:10296000C3F3C00182F82A10C3F38001D173C3F30B
:10297000400103F0010382F823101377284B4FF036
:1029800080621A60F8BD102B01D12C4BF7E7112B98
:1029900024D12B4B4FF0E0521B78DB43DBB2D9093B
:1029A00082F82410C3F3801182F82510C3F340117C
:1029B000D176C3F300115176C3F3C00182F82A1017
:1029C000C3F38001D173C3F3400103F0010382F824
:1029D00023101377124B4FF48032D2E7202B01D112
:1029E000164BF8E7212BCDD1164B4FF0E0521B7858
:1029F000DB43DBB203F0010182F82410C3F3400192
:102A000082F82510C3F38001C3F3C003D17382F8A9
:102A100023300A4B2DE700BFC41A0002C01A00027F
:102A20008022001CF41A0002DC1A0002E01A0002E4
:102A3000E41A0002D01A0002320000020022001C38
:102A4000E81A0002E91A00022DE9F8439A4B884679
:102A50001A681AB900263046BDE8F8830025974C5D
:102A60001D60236801332360954B1E68002E35D00E
:102A70009449721E0E681A600EB91E60EBE7924907
:102A80000B681BBBFF20914C2070914C20703F24A1
:102A90009048047050070FD101330B608C498B4C68
:102AA000087880280CBF012323784FEA40001CBF20
:102AB0005B00DBB22370087012F00F06CAD1854AA2
:102AC0001378002BC6D05B081370C4E7082BE1D144
:102AD00001247F4804707D480570DBE77E4B1A882F
:102AE0001D4612F0200F02D01E800226B3E77B4F56
:102AF0003B68002B36D12B88D9060AD5784B1B783A
:102B00003BB10A233B60774B2E801870764B2660D2
:102B10001E602B8803F00A0343B1012200233A60B0
:102B2000704A2B801070704A236013606F4B1B68D3
:102B300023B16F4A12789A5C664B1A70614BD3F8D6
:102B40000090B9F1020F42D0FFF7F4FDB9F1010F87
:102B50003DD1236813F0010F04D000235B4A1370AA
:102B60005B4A13703868012855D15F4B1A680132EF
:102B70001A602A8852070ED52A885A4922F0040280
:102B80001204120C2A800A780132D2B23F2A25D9C7
:102B9000087000221A602A8812F0010227D02A88C1
:102BA000504922F001021204120C2A800A78013ADC
:102BB00012F0FF0217D13F220A7000221A60236828
:102BC000132B1BD9474B1878FFF7B4FD1BE0B8F166
:102BD000010FC7D1236813F0800FBDE7202A88BFFB
:102BE0003F220A70D5E73E2A08BF2022E4E7196891
:102BF000B429E4D91A60022322603B600023334ADF
:102C00001370334A13702368590741BF304A137851
:102C100043F0010313703B68022B0FD1314B18783E
:102C2000FFF788FD2368132B4FF0000303D8274AD2
:102C30001370274A48E73B6001260CE70A2B66D150
:102C4000294B1A6801321A602A88520714D52A883B
:102C5000274922F004021204120C2A8020480A7824
:102C600000780132D2B20A7090424FF0000238BFB1
:102C70000A701A60042222602A8812F001023CD0F5
:102C80002A881B4922F001021204120C2A800A78B9
:102C900082BB134A12780A7000221A600423236050
:102CA000124B1B68002B3FF4D5AE114A12789A5C88
:102CB000084B1A70CEE600BFF41A0002C81A0002D0
:102CC00034000002CC1A0002F01A0002E81A0002D6
:102CD00032000002E91A0002D01A0002EC1A0002C7
:102CE000D91A000231000002F81A0002D41A0002B8
:102CF000D81A0002013AD2B2CDE71968B4290ED928
:102D00001A600B2322603B600022074B1A703B685D
:102D10000B2B7FF49FAE002303263B609BE62368CA
:102D20005B07F1D5BCE700BFE91A0002014B187838
:102D3000704700BF3100000208B500F0D3F8014B26
:102D4000186008BD0C1B000210F0030004D001281D
:102D500004D1034B18687047024870470020704741
:102D60005C3F0100001BB700024BD3F8A000FFF747
:102D7000EBBF00BF0040074008B5054BD3F89821D2
:102D8000FFF7F2FF02F03F0202FB000008BD00BFA8
:102D900000400740084BD3F88030DBB2012B05D050
:102DA0003BB1022B054818BF00207047044B186840
:102DB00070470448704700BF00400740D8AC070088
:102DC0005C3F0100001BB7000A4BD3F88430DBB234
:102DD000032B0CD8DFE803F002040608FFF7DABF84
:102DE000FFF7C2BFFFF7C8BF034B1868704700204A
:102DF000704700BF00400740603F0100032898BFB4
:102E00000022064B85BF0438C0B2C3F88000C3F867
:102E1000840098BFC3F88420704700BF004007407B
:102E2000044BD3F8843013F0FF0F01D1FFF7B2BF8A
:102E3000FFF7CABF004007401F28094A4FF00103AF
:102E400007D9D2F8C810203883400B43C2F8C830E5
:102E50007047D2F8C41083400B43C2F8C4307047A7
:102E60000040074010B50C4CD4F8D01091B1FFF7DA
:102E7000D7FFD4F82821B0FBF1F1D3B2FF2B09D151
:102E8000C2F30722080202F580720023090E00F047
:102E9000D3FA0146084610BD0040074038B5044645
:102EA000FFF7BEFFA0422CBFB0FBF4F201220C4D95
:102EB000D3B2C5F8D03081B16243811A0802002331
:102EC000090E00F0B9FA000280B240F0FF00C5F828
:102ED0002801BDE83840FFF7C5BFC5F82811F8E75D
:102EE0000040074008B5FFF79BFF034BD3F8C03005
:102EF000B0FBF3F008BD00BF0040074000B53D2324
:102F00008BB0CDE902124FF47A72CDE90030074B55
:102F100068461B6805A9B3FBF2F30493044B98477A
:102F20009DF814000BB05DF804FB00BF0C1B000201
:102F30000502000300B53E238BB0CDE902124FF429
:102F40007A72CDE90030074B68461B6805A9B3FBD0
:102F5000F2F30493044B98479DF814000BB05DF80E
:102F600004FB00BF0C1B00020502000308B50E2085
:102F7000FFF762FF0F20FFF75FFF1020FFF75CFFF6
:102F80000B20FFF759FF0B2000F01CF9BDE80840AB
:102F90000B2000F029B908B52D20FFF74DFF2D209B
:102FA00000F010F9BDE808402D2000F01DB938B53B
:102FB00005460C46FFF734FF696989B201FB0444FA
:102FC000B0FBF4F04408A3B2023B001B1B01063027
:102FD00003F0700300F007001843686238BDFFFF7C
:102FE000436810B5DC0608D505238B8110234360A8
:102FF0008889FF3818BF012010BD5A0603D5032366
:103000008B814023F3E7DB073AD54368C3F34203E0
:10301000042B35D801A252F823F000BFF12F010094
:10302000313001004B300100733001007B30010072
:103030004B68826A5C1C4C601A704B89013B9BB2E6
:103040004B81BBB101230362D2E70B893BB10A6814
:10305000013B541C0C60127882620B81F2E74B89B1
:1030600043B18B7B5B0043F00103DBB2836202233D
:10307000E9E702238B810423E5E704238B81E2E760
:1030800001238B81B4E700BFFF238B815023436072
:103090000B898A7BB3FA83F35B0943EA4203DBB211
:1030A000836202230362704730B501EB82029142D2
:1030B00000D130BD0D784B784C8803EB451340F8B8
:1030C00023400431F3E710B50C46FFF70BFFB0FBCC
:1030D000F4F0013810BD026810B512F0010205D0FD
:1030E000036823F043031B051B0D03608C784B78AA
:1030F00023430C7823434C68234303600B894362CA
:10310000BC2383601AB1036843F00103036010BD60
:1031100008B50B4B98420AD12A20FFF78DFE2A20D2
:1031200000F050F82A20BDE8084000F05DB82920E2
:10313000FFF782FE292000F045F82920F3E700BFC1
:1031400000C004400B7803F00F0343604B784268E3
:103150001B01DBB2134343608B7842681B0203F40C
:10316000706313434360CB782BB1013B42681B0370
:103170009BB213434360704710B5FF2400F00F0368
:103180000009800000F1804000F56030DB0002683B
:103190009C4022EA040299401143016010BD0121C4
:1031A000C3099B0003F1804303F56033D3F8C021CA
:1031B00000F01F0001FA00F022EA0002C3F8C0216B
:1031C0007047FFFF1F28074A4FF0010305D9916C94
:1031D000203883400B4393647047516C83400B430A
:1031E00053647047004007401F28084A4FF001030E
:1031F00006D9916C2038834021EA03039364704719
:10320000516C834021EA0303536470470040074038
:10321000054AD2F80832184320F07E4020F087009B
:10322000C2F80802704700BF00400740054A06493F
:10323000D2F80832084023EA00030B40C2F80832F3
:10324000704700BF0040074078FFFF0138B5124DBE
:103250000446A84210D01148844214BF33203220C3
:10326000FFF7EAFDAC4209D13120FFF7ABFF312077
:10327000BDE83840FFF7B8BF3120F1E7074B9C426B
:1032800004D13220FFF79EFF3220F1E73320FFF711
:1032900099FF3320ECE700BF0000044000400440E9
:1032A00038B50C460546FFF7DDFD2401B0FBF4F40C
:1032B000013C2C6238BDFFFFF8B53D49044600F0E3
:1032C000D1FD28B122224FF0FF403A4B1A60F8BDE1
:1032D0003949204600F0A9FD002864D1204600F0BD
:1032E0007DF8364900F0A1FD00285ED1002120467E
:1032F00000F0D5FD002853D14FF03F45304920461E
:1033000000F0AEFB294600F0D3FC00F027FD054697
:1033100000F052FD2B49064600F0A2FB0146204674
:1033200000F054FC28490446304600F099FB014661
:10333000204600F0BDFC0146044600F091FB064625
:10334000224900F08DFB224900F0B2FC314600F02A
:1033500087FB4FF07A5100F0ABFC214600F080FB78
:1033600007461C49304600F07BFB1B4900F0A0FCDF
:10337000314600F075FB4FF07C5100F099FC394666
:1033800000F024FC0146384600F0C2FB01354FF046
:103390007C5100F08DFC2946BDE8F84000F028B8CB
:1033A0004FF07C55AAE7002091E74FF07E508EE762
:1033B0001872B142FC1A000250ACAEC208E53C1EC5
:1033C00065A9B83F0080313F83805E3923958A37F5
:1033D0002387E33BCBFC013A748C633D10B500219D
:1033E000044600F022FD08B104F10044204610BD5F
:1033F00038B50D460021044600F008FD88B9C4F335
:10340000C7512944FE2905DD22224FF0FF40064B1B
:103410001A6038BD002904DD24F0FF4040EAC150A5
:10342000F7E70020F5E700BFFC1A000200F056BDE8
:1034300000F06EBDFDF77CBA5FF0000C30B51C00EB
:1034400022D112006FD0914206D3054608460021D2
:1034500000F06FF80446284600F06BF80A46214653
:10346000BDE830401CF0404F08BF704703D54942CB
:10347000404261F100015FEA8C0C38BF70475B424B
:10348000524263F10003704742D41C0C04BF1B047A
:103490000CF1100C13F07F4F04BF1B020CF1080C51
:1034A00013F0704F04BF1B010CF1040C13F0404FDC
:1034B00004BF0CF1020C5FEA83035CBF0CF1010C4A
:1034C0005B00CCF1200E22FA0EF4234302FA0CF238
:1034D00000FA0CF520FA0EF001FA0CF4204321FA60
:1034E0000EF114461A4600F024F8A4FB0023AA1A91
:1034F00071EB03033CBF1B190138CCF1200E22FAFB
:103500000CF203FA0EF4224323FA0CF30021A7E78E
:10351000821A71EB03033CBF02460B464FF00001D9
:1035200041F100009CE700200021BDE8304000F0A0
:103530003DB80423B1EB122F09D2090241EA106110
:103540000002013B08BF7047B1EB122FF5D3001802
:10355000494134BF9142891A4041494134BF9142A7
:10356000891A4041494134BF9142891A4041494139
:1035700034BF9142891A4041494134BF9142891A6E
:103580004041494134BF9142891A4041494134BFC9
:103590009142891A4041494134BF9142891A4041C0
:1035A000A3F1010313F00F0FD2D170477047FFFF53
:1035B0002DE9F04781EA0304C1F30A5640F2FF7790
:1035C00004F0004436B1BE4204D0C3F30A550DB135
:1035D000BD4207D1490011F5001F58D35BD0002030
:1035E000344946E0C1F313014FEAC22841F4801187
:1035F0003544A1FB08674FEA525CB6463A46A8FB41
:1036000000674FF00009B8464CEAC32343F0004C72
:1036100000234FF0000AE0FB0C89ECFB012318EBC0
:103620000E0149EB0A0A12EB0A0843F10009B9F549
:10363000801F41EA96011ED218EB080649EB0900EB
:10364000814646EAD178A5F580654900C80F18EB98
:10365000000249F10003B1F1004F40F2FD7116463E
:1036600008BF22F001068D4208D830461C4304EB07
:103670000551BDE8F087A5F2FF35E7E7002D03DB34
:1036800044F0FF4444F4E00400202146F1E75A00EE
:1036900012F5001FF8D3084A5B0093429FD81142ED
:1036A0004FF000009CD013429AD044F0FF4141F407
:1036B000E001DEE70000F87F0000E0FF944691EAB9
:1036C0000302F0B405460E4606D503F100452B462D
:1036D000F0BC624600F0C6B8994203D3604508D8F2
:1036E000994206D102F10042564053402A466546AF
:1036F000944640F2FF71370D27F40062180D8A429C
:10370000A7EB000400F0A080944200F09980C6F37B
:103710001302C3F313031F2C42F4801143F48013EC
:103720004FD823FA04F2891A00F12002D21B9340E9
:103730002CFA04F41C432C1B38BF01F1FF311CFA96
:1037400002F3254603D05B42651E04B9013911F42A
:10375000C01F54D1EA0FDB0F42EA410243EA45039E
:1037600052EA03046DD0BC1E510B24D0510C01BF92
:10377000190F41EA02121B01043CD10C01BF990F41
:1037800041EA82029B00023C110D02BFD90F41EABF
:10379000420204F1FF344FEAD67108BF5B00B1EB7F
:1037A000D42F4FF0000006BF184602EB045106F07C
:1037B0000041F0BC7047190E41EA02221B02083C8E
:1037C000D2E7352C1BD8203C23FA04F2AA1AC4F104
:1037D000200003FA00F338BF01F1FF312CFA04F4A2
:1037E0005FEA0C60154643EA040306D043F0FF038A
:1037F0005B42551E1AB9013901E0002BF8D1CA020B
:1038000009D4013F7A050FD0EA0F42EA4101DA0FED
:1038100042EA45055B00002B21F480124FEA075471
:1038200005DB11192846C4E739051046C1E7013503
:1038300008BF0132B3F1004F08BF25F00105F0E7E2
:103840005CB921462046B4E733034FF0000001D0B5
:103850000349AEE70CB90249F4E73146E2E700BF9D
:103860000000F87F91EA030FF0B405460E4605D537
:1038700003F100452B46F0BCFFF720BF994238BF4B
:103880001E4640F2FF7C3EBF0B4615460246300DF9
:1038900020F40067190D6745A0EB01045CD0BC4221
:1038A00055D0C6F31307C3F313031F2C47F4801737
:1038B00043F4801327D82031091A23FA04FC22FA92
:1038C00004F48B402343ED18674428BF013702FA04
:1038D00001F3BA022BD5013508BF01370BB925F02A
:1038E0000205360D360506EB5706730013F5001F6B
:1038F0002BBF421C31460020FF0734BF47EA55006A
:103900001105F0BC7047352CE3D8203C23FA04F1B4
:103910006D18C4F1200103FA01F322FA04F428BF60
:1039200001372343120618BF43F0FF03D1E7002BF2
:1039300000F1FF3207DA013508BF0137B3F1004F5C
:1039400008BF25F0010507EB02512846D9E74CB91D
:1039500006F000412046D4E733034FF0000001D0C9
:103960000149CEE73146F0E70000F87F21F0004240
:1039700030B502F1474505F57005B5F17E6F01F0F0
:1039800000440FD202F14843420FC10042EAC30291
:1039900002EBD173B1F1004F08BF23F001031C43C8
:1039A000204630BD002DFBDB490011F5001F94BF00
:1039B00044F0FF44004CF3E70000C07F30B50546FB
:1039C00051EA03000BD4580010F5001F1DD899428E
:1039D00019D31AD195422CBF0020012030BD4800D8
:1039E00010F5001F11D85C0014F5001F0DD82C43F2
:1039F00014432043F2D0994205D806D1954294BF92
:103A000000200120EAE70120E8E70020E6E730B5E2
:103A100051EA030405464FEA41000AD410F5001F9D
:103A20001CD8994218D819D1954294BF0020012082
:103A300030BD10F5001F11D85C0014F5001F0DD823
:103A40002C4314432043F3D0994205D306D1954229
:103A50002CBF00200120EBE70120E9E70020E7E789
:103A6000C0F3C75230B581EA000332B1FF2A04D057
:103A7000C1F3C7540CB1FF2C11D14000B0F17F4FFE
:103A80003AD340D14900B1F17F4F3CD810F07F4F7D
:103A900039D011F07F4F36D003F0004029E02244A6
:103AA0000902040241F0004144F00044A4FB014536
:103AB0002946002DA8BF690003F0004040EA112309
:103AC0004FEA0161B4BF7F3A803AB1F1004F03EB96
:103AD000C25304D0FD2A02D803EBD17030BD0133AC
:103AE0000CB923F00103FD2A01D81846F6E7002A95
:103AF000F4DB40F0FF40F1E74A00B2F17F4FC1D262
:103B000003F00040EAE70148E8E700BF0000C07F9B
:103B100030B5C0F3C75580EA010335B1FF2D04D09D
:103B2000C1F3C7520AB1FF2A05D14200B2F17F4F5B
:103B300032D9254812E00402090244F0004441F061
:103B400000418C42A5EB020532BF7D357E3564080D
:103B5000FD2D04D9002D03F000402EDA30BD090AF6
:103B6000B4FBF1F201FB1244D80F240202EBC03087
:103B7000B4FBF1F201FB12442402B4FBF1F301FBAC
:103B8000134402EB002003EB002000EBC550A1EB37
:103B9000440100EBD170E1E74C00B4F17F4FC8D88D
:103BA0000843400010F07F4FC3D012F07F4F03F066
:103BB0000040D3D0B4F17F4F02D040F0FF40CDE7BA
:103BC000B2F17F4FB5D0C9E70000C07F90EA010293
:103BD00030B4034604D530BC01F1004100F068B8B0
:103BE00088423CBF02F1004253404FEAD35038BFF5
:103BF0005140C2B2CC0DFF2AA0EB04054DD0954236
:103C000047D009021A0241F0004142F0004221FA75
:103C100005F5521B13D502F100428032C30503EBB8
:103C20001223120608D12034201A11FA00F20CBF18
:103C300023F0010303F1FF33184630BC70475200F4
:103C4000002A18DADB0D8032DB0503EB2223120693
:103C500000F0FE0501D0002DEED12034201A11FA1B
:103C600000F20CBF23F0010303F1FF33002DE3D179
:103C700003F00043E0E716D0B2FA82F10238401AAE
:103C8000C00593EA000FF3D402FA01F300EB13230B
:103C9000D2E7002D08BF0023CEE75A0201D1002D44
:103CA000CAD1024BC8E70023C6E700BF0000C07FAF
:103CB00090EA010F70B4034604D570BC01F10041D5
:103CC000FFF784BF88423EBF02460B461146DD0D1A
:103CD000EAB2CC0DFF2AA5EB040039D0904232D0D5
:103CE00009021A0241F0004142F0004221FA00F0BC
:103CF00012180AD202F100428032E80500EB1223CA
:103D0000120618D070BC18467047681C02F5807205
:103D1000C60506EB5223D205C0B201D0FF28F1D16F
:103D20002034651B11FA05F208BF23F00103FF28B8
:103D300008BF3346E6E72034651B11FA05F2E1D1EE
:103D400023F00103DEE70028DCD103F00043D9E7CC
:103D50005A0218BF004BD5E70000C07FC20D010218
:103D600041F00041C2F19E039D2A10B5044621FA9C
:103D700003F003D9D2B29D2A01D8404210BDFF2AD8
:103D800002D1B1F1004FF9D16FF0004303EBD470D1
:103D9000F4E778B1B0FA80F200FA02F3C2F11F0042
:103DA000803301EBC05000EB23201B0603D120F031
:103DB000010070470020704700F00041002801F129
:103DC0008041B8BF4042FFF7E4BF4FF08041FFF7AA
:103DD000E0BFFFFFC31013F07F610AD0B1F17F6F26
:103DE0004FEA407243F0E04308D003F148411046E7
:103DF000704703F0004300201946704752EA03322F
:103E0000014A18BF1346F6E70000F87F884203D046
:103E10000143B1F1004F06D14000B0F17F4F8CBF9C
:103E20000020012070470020704750EA010308D4A9
:103E30004B00B3F17F4F13D888422CBF00200120E4
:103E400070474200B2F17F4F0AD84A00B2F17F4F6B
:103E500006D8884204D913F1004018BF01207047EA
:103E60000020704750EA01034FEA400207D4B2F144
:103E70007F4F12D8884294BF002001207047B2F1D2
:103E80007F4F0AD84A00B2F17F4F06D8884204D249
:103E900013F1004018BF012070470020704750EA1E
:103EA00001034FEA400207D4B2F17F4F12D8884293
:103EB00034BF002001207047B2F17F4F0AD84A007A
:103EC000B2F17F4F06D8884206D903F10043584229
:103ED00058417047002070470120704740EA0103B5
:103EE000DB0703460CD40346043A22BF51F804CB47
:103EF00043F804CBB2F10402F7D2043208BF704792
:103F0000013A24BF11F801CB03F801CBF8D8704770
:103F1000034613F0030F0ED101F0FF0141EA012126
:103F200041EA0141043A24BF43F8041BB2F1040200
:103F3000F9D202F10402013A24BF03F8011BFAE7A7
:103F40007047404465766963654964400140526545
:103F5000766973696F6E400900FFFFFF001BB700B1
:103F6000008000000104800001058000001B80002B
:103F700000198000010A8000000F8000010380000A
:103F8000001C800000108000001A8000001E9000BD
:103F900000099000000D800000128000000B8000DE
:103FA000001F8000010080000001800000038000ED
:103FB000000580000002800000078000625861F860
:103FC0000168009050025218510853280000000068
:103FD00000000F404C040002180000020000000026
:103FE0000000000000000000C53D81B9561BC63628
:103FF0003337B6B0F982DC2B4732F4A629EA3921EF
:1040000000000000000000004C3479C04C0FEA3C76
:104010005804B2B83F7E2934481B39AF9A2BFA298D
:104020008B4A4DA4AFF53A1E93229197BED8C44255
:10403000C3ED2E44CBE953C4EC507B44695D50C4BE
:10404000EF8AE343FA3A1BC31018EF41B45A1EC07B
:1040500095265543728D8E43B7F852C244A81E412F
:10406000B4F4A5BF9A4AE53D1AA8C6BB9CAE433935
:1040700015F526B6000000003F4B703DAA773E388C
:10408000DA5F51B5279FDDB2096C23B0E1FB23ADA8
:1040900002A8E7A9AFA667A67641A2A27E089B9ECA
:1040A00090D93F9AC6388A9573BC2F9000000000C3
:1040B0003F4B703D0AE13C384252F83272BBB5AF1B
:1040C0000507372B01555DA5F001B9A1315E221D11
:1040D000E8A4DE97E5EDE311000000000000000019
:1040E00000000000000000007CD18741F1CBDEBE63
:1040F0003E6722BE2572BDBDC5AED5BC738787BBEA
:10410000B46FB2B9D30642B700000000000000004F
:10411000CF7488412A9C6EBE596BD63BB3459AB882
:104120003132F0B55F77B433D4C8BCB078003B2DE2
:10413000F22012A900000000815C4E3D5DA6FF3711
:10414000AAFFB7B30F72112FCEFF3FAADA837125F2
:10415000FA0614A0472E9719673A9443C7B1BFBF18
:10416000E951503BE9B955B6B710D830EDC6ACAA05
:10417000000000000000000000000000000000003F
:10418000E5399C415F439DBFBDA089BF364317BF42
:1041900070B530BE0F74E6BCDD0B1DBB4ECAAFB8A8
:1041A0000000000025469E415DEC4CBEA2E5293C86
:1041B00052AD85B976987036098965B3492F0C30B0
:1041C000000000004F9942C597459643E9291FC159
:1041D000FF5C2E3E117ABBBA81029F3600000000C0
:1041E0000000000000000000000000007596213D66
:1041F000A928C637F068B0B4C078ABB1397494AEB2
:10420000809821ABD90460A754CC40A34CD9BB9E65
:104210000BDD9D99BE2E90BCD76B1F3DA8AE9B3782
:104220006495D5B3260CAF2FBED41DAB17A02126A5
:104230005804BDA0A6E5EA1A3BC26F940000000036
:10424000000000004063C941EB4895BFAAAB8ABF9C
:10425000FDD165BF6631BFBE756CB1BDFC382BBCEE
:104260004F1B08BA00000000000000001CABC84152
:1042700098F9A03D0A2980BEF64BAA3D7B3349BC84
:10428000E380803A8C1839B877F78D35A8DC34B2E2
:1042900049CE03C37935414225B1D2BFDCD55F3D5C
:1042A000DAFC7CBA22AD1337B89B05B300000000DE
:1042B0000000000000000000000000009F4BD63C02
:1042C00009D63737B285C9B3501F4CAEEB1739AC9E
:1042D000460BCCA83273AFA4B994DC9F0000000059
:1042E0000000000000000000E269D43C46C98337AA
:1042F000C93A3C33F0DF8AAF8D05352BA80791A66C
:10430000B9329321A8F2379CEC0C8116C5931B900F
:104310000000000055BF194228EF8C3F4122A74002
:10432000FB97E640DA29BB40A8A13140FB4F453F4F
:104330008636ED3D54A9EF3B000000000000000070
:10434000000000000000000000000000000000006D
:10435000000000000000000000000000000000005D
:1043600027C21A42EE948ABF9198403D5B620EB616
:10437000EDEFF5B8CDF3B4361767ABB3000000002E
:10438000000000000000000000000000000000002D
:10439000000000000000000000000000000000001D
:1043A00000000000000000007ECC9D41A8090442EE
:1043B000C674C8BE8278213CA3A005B9927E503550
:1043C00000000000000000000000000000000000ED
:1043D00000000000000000000000000000000000DD
:1043E00000000000000000000000000000000000CD
:1043F00000000000000000008754AD3B987B693747
:10440000EC2CCDB22BF91C2E0F3950A95DF166248E
:10441000BC31309FB688981968A95E93ADE63C40E0
:10442000DC3025BB37DA8537DB4403B28378102CC8
:104430003F1CA9A5000000000000000000000000D3
:10444000000000006C3B1843C3A289BEB399333906
:10445000A38F14B3625E28A80000000000000000D3
:10446000000000000000000000000000000000004C
:10447000EFE93C43ABABBBC2AAAF02432A0963C31B
:1044800072BAAF43FEC4C2C386328D434725FCC215
:1044900032D4FA41D76654C095885541B34313438B
:1044A000A18593C104FF804041FC1FBF1C79843D5E
:1044B000B61A92BB18295139C649B2B60B338B33A1
:1044C00000000000F3FDA3C26E651B43A47905C183
:1044D000641BDB3E663A43BC5B7A1C39000000007B
:1044E00000000000000000000000000000000000CC
:1044F000C70D0547D57DDBC596920B440B319CC19A
:10450000221C833E000000000000000000000000AC
:10451000000000000000000000000000000000009B
:10452000C40CB13B5E48533772B2C7B239A10D2EED
:10453000564715A9E7E1EB23983F6C9EDC0452181F
:10454000D11CAA3F5A395B3B56B7DB36A493E2B085
:10455000202B6A280000000000000000000000007E
:1045600000000000D4A01243015184BE29A52B39BC
:1045700028EC0DB384EA29A8000000000000000028
:1045800000000000000000000000000010F33843AD
:10459000CF19A0C29079CC42A43F18C344D23C4367
:1045A00000161FC3079BA4427658BBC12E10334090
:1045B00022A44E4140A11243DC8D75C12E574940C3
:1045C000A728D5BE3994023D2A4CA9BAC529B737C8
:1045D00044691BB48F110D328BC1A1C245282243FF
:1045E000049708C1E2A5F13E04356CBC08465A396F
:1045F00000000000000000000000000000000000BB
:10460000C05A5047B11B41C60B958844B4A02AC27A
:10461000AFED1F3F000000000000000000000000A0
:1046200000000000000000000000000056B61E3D23
:104630006A5D3938DB5AFE33FA14AC32FEC4773087
:10464000DF3DC72D0310CB2A65B08A27A61C0224A4
:10465000CD402820ED64131C890DA717C0F7DC128C
:104660009C79810D0000000056B61E3D42A30B3818
:10467000FF625D34AC5F16B18D75412D27C80AA964
:1046800049BC51240FED019F000000000000000014
:10469000000000000000000000000000000000001A
:1046A00000000000F297CF4126495ABEB1494A3F67
:1046B00002BED93EE13C083E64D1A53C540BA63A6B
:1046C000000000008B6CCF41C4A242BFC3F63D3D49
:1046D00048E90DBB74AD7D3804C843B50000000047
:1046E000FC60DAF266B6BEE0FEF6EE3E9C7A9E8E86
:0446F000CEFFFFFFFB
:1046F400010900010A1001040208090C0A05FFFF60
:104704000100000001000000C513010009140100AC
:10471400191401003D197F3F0000803F0100000093
:0847240001FF01FFFA00000093
:04000003100005479D
:00000001FF
