:020000021000EC
:1004000000900002470501001105010013050100DD
:100410001505010017050100190501005051F9FDEE
:100420000000000000000000000000001B050100AB
:100430001D050100000000001F050100B1090100B9
:100440002305010023050100230501002305010008
:1004500023050100230501002305010023050100F8
:1004600023050100230501002305010023050100E8
:1004700023050100230501002305010023050100D8
:1004800023050100230501002305010023050100C8
:1004900023050100230501002305010023050100B8
:1004A0002305010023050100230501003914010083
:1004B0002305010023050100230501002305010098
:1004C0002305010023050100230501002305010088
:1004D0002305010023050100230501002305010078
:1004E0002305010023050100230501002305010068
:1004F000230501002305010023050100202F010031
:10050000000000022C0000002C000002081A00006D
:10051000FEE7FEE7FEE7FEE7FEE7FEE7FEE7FEE7B3
:10052000FEE7FEE7002310B5934200D310BD1C5830
:100530005C500433F8E700231A468B4200D370471F
:100540001A500433F9E738B50E4C0F4DAC420AD3BC
:100550000E4DAC420FD301220D4B1A6000F03AFC55
:1005600002F091F8FEE7D4E900010C3454F8042CB1
:10057000FFF7D8FFEAE754F8080B54F8041CFFF71C
:10058000DAFFE6E7FC0401000805010010050100A0
:10059000D8400740FFFFFFFFFFFFFFFFFFFFFFFF08
:1005A000FFFFFFFFFFFFFFFFFFFFFFFFFFFFFFFF5B
:1005B000FFFFFFFFFFFFFFFFFFFFFFFFFFFFFFFF4B
:1005C000FFFFFFFFFFFFFFFFFFFFFFFFFFFFFFFF3B
:1005D000FFFFFFFFFFFFFFFFFFFFFFFFFFFFFFFF2B
:1005E000FFFFFFFFFFFFFFFFFFFFFFFFFFFFFFFF1B
:1005F000FFFFFFFFFFFFFFFFFFFFFFFFFFFFFFFF0B
:10060000FFFFFFFFFFFFFFFFFFFFFFFFFFFFFFFFFA
:10061000FFFFFFFFFFFFFFFFFFFFFFFFFFFFFFFFEA
:10062000FFFFFFFFFFFFFFFFFFFFFFFFFFFFFFFFDA
:10063000FFFFFFFFFFFFFFFFFFFFFFFFFFFFFFFFCA
:10064000FFFFFFFFFFFFFFFFFFFFFFFFFFFFFFFFBA
:10065000FFFFFFFFFFFFFFFFFFFFFFFFFFFFFFFFAA
:10066000FFFFFFFFFFFFFFFFFFFFFFFFFFFFFFFF9A
:10067000FFFFFFFFFFFFFFFFFFFFFFFFFFFFFFFF8A
:10068000FFFFFFFFFFFFFFFFFFFFFFFFFFFFFFFF7A
:10069000FFFFFFFFFFFFFFFFFFFFFFFFFFFFFFFF6A
:1006A000FFFFFFFFFFFFFFFFFFFFFFFFFFFFFFFF5A
:1006B000FFFFFFFFFFFFFFFFFFFFFFFFFFFFFFFF4A
:1006C000FFFFFFFFFFFFFFFFFFFFFFFFFFFFFFFF3A
:1006D000FFFFFFFFFFFFFFFFFFFFFFFFFFFFFFFF2A
:1006E000FFFFFFFFFFFFFFFFFFFFFFFFFFFFFFFF1A
:1006F000FFFFFFFFFFFFFFFFFFFFFFFFFFFFFFFF0A
:100700000022014B1A7070472E0000020B78042B58
:1007100003D1012A04BF014B1A707047E41900028B
:1007200038B5234D234C002001F028F900B938BD1D
:10073000002001F03DF92A7803461118297021782C
:1007400004290CD8DFE801F00309101B2800312B25
:10075000E9D101222B702270E5E7412B01D0002363
:1007600000E002232370DEE7134A144913700022CD
:10077000F02B0A7001D80323F4E72270D3E70F4867
:1007800001784A1CD2B202700D4843540A4B1B78C0
:100790009342C8D80423E5E700209A422A702070CB
:1007A000C1D1054B06491A78FFF7B0FFBBE700BF80
:1007B0002D0000022E0000021F0100022C0000028A
:1007C0002F0000027FB50426204C0025204601F0B2
:1007D00095FE1F492046ADF8046001F069FE0DEB5F
:1007E0000601ADF80C0020468DF80650029501F088
:1007F00067FE4FF0807369462046009301F098FE33
:100800002368052143F001032360532001F0AAFE71
:100810004FF0E05202F50053196802F50A5041F01A
:1008200020011960202101600A4902F50852C1E93E
:100830000055196841F010011960102111601A6803
:1008400032431A60066004B070BD00BF00C00440AF
:1008500000093D00E81900020E4A08B513681BB1F3
:10086000013B136001230B60012808D10A4B186873
:1008700002F057FA4FF0605102F0C2F808BD0023B1
:100880001846064A52F8041B0133102B0844F9D1CC
:100890000011EDE72401000220010002E819000226
:1008A00008B5002000F074FB084B38B91A6822F034
:1008B00010021A601022C3F8002208BD1021044A59
:1008C00011601A680A431A60F7E700BF0020001C95
:1008D0008022001C2D4A08B51368013B3ED01360EE
:1008E0002B4B1A6812B11A68013A1A601A6822B1C1
:1008F0004FF0E052D278002A46D14FF47A520521C7
:1009000053201A6001F02EFE224B19469A6812F00D
:10091000010230D1204898618B68D807FCD51F4B65
:1009200048698B611B4B9968C907FCD55B699BB211
:1009300053EA004309D4990003F080521DD512B147
:100940000321174A116023F06042164B92101A607F
:10095000FF21BDE80840532001F004BEA023114947
:100960001360114A08681368104941F823000133E5
:1009700003F00F03B3E75A69C8E712B90321084A25
:10098000116043F06042E0E708BD00BF00000002D4
:100990000400000200C00440FFFF0E0FFFFF1E0F07
:1009A000240100022001000228010002E8190002CF
:1009B00008B5FFF78FFF01F02BF801F0C7F9BDE88C
:1009C000084000F061BFFFFF2DE9F743134B01F032
:1009D00031FC00F001FA092001F0ACFC092001F023
:1009E000D5FD092001F0E4FD00F0FCFF00F07EFFE2
:1009F000FFF786FEFFF7E6FE01F054F9052000F050
:100A00006FFE00F03BFF0138054B032800F27F81A9
:100A1000DFE810F07B017901770108006C2E0100FE
:100A2000080000020422C24C9A7000210C222046C9
:100A300001F027FE0120BF4B05221021207000F09D
:100A400045FB002000F0A4FA0128064604D9002145
:100A5000084600F087FA0026012000F093FA0546C8
:100A6000022000F08FFAB4490746284602F0AEF99A
:100A7000002840F04E812946284602F07BF9B0FA62
:100A800080F46409AD49284602F083F9394600280C
:100A9000384618BF012402F06DF90028384608BF17
:100AA000012402F04BF94FF03332A54B80468946C2
:100AB00001F07DFF40B99AA3D3E90023404649469F
:100AC00001F04CFF00B944B10021012000F03AFAD6
:100AD0004FF07E51022000F035FA032000F052FA68
:100AE0000546042000F04EFA93490746284602F0D6
:100AF0006DF9002840F00F812946284602F03AF9A6
:100B0000B0FA80F464098D49284602F042F939466A
:100B10000028384618BF012402F02CF90028384676
:100B200008BF012402F00AF94FF03332844B8046AB
:100B3000894601F03CFF40B979A3D3E90023404640
:100B4000494601F00BFF00B944B10021032000F039
:100B5000F9F94FF07E51042000F0F4F979490220B0
:100B600001F096F8F0B201F087F801F039FC4FF48B
:100B70007A53B0FBF3F00138B0F1807F09D2E02165
:100B8000714B724A586082F8231000229A60072243
:100B90001A6020226D4B6E4E6E4F83F823206E4CF0
:100BA000DFF8C881FFF7BCFD00F0D2FD072805463D
:100BB00000F0E0800C2800F0E7802146284600F095
:100BC0008BFF284600F09EFA2168C94301F0010519
:100BD00000F0EAFC294601F0B5F9C0B2022800F0A5
:100BE000D780032800F0DB80012803D101F01CFB33
:100BF00000F0BCFC00F0F8FE0028D3D0002000F08C
:100C0000C7F9C0B201F038F8FFF74AFE00F0CCFC9B
:100C1000524D2B7883420AD000F0C6FC2870206821
:100C200020F00100206000F0FE0000F0C3FC23680B
:100C3000DA07B5D5002401A920460194FFF70CFE80
:100C40000546204600F0A4F9002840F0B2800120BB
:100C500000F098F90146284601F088FF044602207A
:100C600000F090F90146204601F0CAFE02F066F855
:100C70002DA3D3E9002301F0C3FD01F047FEDFF807
:100C8000F080374D01468146D8F8000001F0E0FFC2
:100C90002B68344C01332B6000236371019BC8F82F
:100CA00000000BB10423637100F0ACFE2E4AE0801B
:100CB0004946002000F072F901212060002000F078
:100CC000EBF928492071012000F0DAFC3368DB07DA
:100CD0007FF565AF286813287FF661AF02F02AF828
:100CE0000146D8F8000001F0E3FE206001201D4914
:100CF000A08000F0BFFC0023C8F8003000232B6068
:100D00004DE703228FE602228DE601228BE60022C8
:100D100089E60124B6E60124F5E600BFAFF30080C2
:100D20009A9999999999E93FFCA9F1D24D62503F5E
:100D3000CC020002380100020000C8420000C8C214
:100D40003333F33F0E00000210E000E000ED00E05E
:100D50002C01000200004C42D8020002C002000236
:100D600034010002C4020002C902000208000002AD
:100D700030010002207800F01DFC434606220021CD
:100D8000882000F045FC18E7114B1B78336014E70E
:100D90003F2000F0EBFB012000F0C0FC2AE700F050
:100DA00065FF0146002000F0DDF80D2000F0AAF9F3
:100DB00020E73946284601F023FE0446032000F0D0
:100DC000E1F80146204601F0D1FE0446042047E741
:100DD000281A000200F076B84FF0E05001F044BB52
:100DE00030B94FF0E053987F003018BF01207047B2
:100DF000012803D14FF0E053587AF5E701207047FE
:100E000038B50D2001F096FA0C2001F093FA2A2053
:100E100001F090FA0D2001F0B9FB0D2001F0C8FBA4
:100E200016220C490C4801F034FB00240B4D05EB55
:100E300044035B7815F81400C3F34101C3F3C40302
:100E400003EB4111C9B2013401F08CFB082CEED147
:100E500038BD00BF8C2E010000800F40E42E010041
:100E600038B54FF4001001F0C5FB0123144C4FF4CA
:100E70008000C4F8A03001F0AFFB44234FF48000A1
:100E8000C4F8983101F0B6FBD4F89C31DB07FBD5F0
:100E90000125C4F8C050D4F82431062023F440536F
:100EA00043F40053C4F8243101F026FA4FF4000053
:100EB00001F092FBC4F8A450C4F8CC5038BD00BF78
:100EC0000040074008B5FFF79BFFFFF7C9FF01226D
:100ED000014BC3F8CC2008BD004007402DE9F04786
:100EE0000024DFF85480DFF85490DFF854A0D8F8DD
:100EF0000030A34206DCBDE8F047F0220C49102088
:100F000001F096BAD9F80020DAF8007004FB02F676
:100F1000BD19294606F5807001F08AFA054B2A7939
:100F20001B6801349A42C2BF0023BB516B60DEE7ED
:100F3000F80200021400000210000002F402000295
:100F4000F002000208B5064BF02243F820101946C3
:100F5000102001F051FABDE80840FFF7BFBF00BF05
:100F6000F802000208B5064BF02243F8201019469B
:100F7000102001F041FABDE80840FFF7AFBF00BF05
:100F8000F8020002014B53F820007047F8020002FB
:100F9000014B53F820007047F80200022DE9F84F8A
:100FA0003A4B17781B6807F0FD0783420D469146C0
:100FB000177068DD364B1E68364B1C6806FB004612
:100FC0003379002B4FD0012B4FF0000426D9182283
:100FD00006F1080B03F1FF3804F1010A02FB0AF3E2
:100FE00029465BF8030001F0F1FE00283ED1C2451E
:100FF00054464FF01802EFDB3379013BA3420DD189
:10100000182303FB04632946986801F0C2FE28B147
:1010100099F8003043F0020389F800302946284649
:1010200001F0EEFC0746182000FB04643946284610
:1010300001F0E6FC216901F0E3FC616906463846EF
:1010400001F0DEFC0146304601F002FEA1690646D1
:10105000284601F0D5FC0146304601F0F9FDE16972
:1010600001F0F6FD05462846BDE8F88F002CC3D1F7
:101070002946B06801F0AAFE0028BDD047F002075B
:1010800089F80070B8E70025EDE700BF1000000206
:10109000F4020002F0020002094A0346126882428A
:1010A0000BDD084A08481268006802FB03031A793E
:1010B0001AB15B79002B18BF19460846704700BF6C
:1010C00010000002F4020002F002000210B4084C0A
:1010D0002260084A10BC1060074A1160074A13607A
:1010E00018234B43064A08331360FFF7F7BE00BFCF
:1010F000E40200021000000214000002F0020002EC
:10110000F40200022DE9F74F0738072831D8DFE84D
:1011100010F0330049000B01770030003000080068
:10112000380000248E4D8F4F8F4E3B68A34220DD48
:1011300055F8043B0522336000218B4B8D20347120
:1011400000F066FA0134F0E7396834685143874BA0
:1011500060186158541C196001790622197141798F
:1011600089205971E1B200F053FA22462B6893426C
:10117000EADC03B0BDE8F08F00227D4D7D4E7E4F4E
:10118000F4E77E4A13793B2BF3D812687449102098
:1011900041F82320F02201F02FF903B0BDE8F04F11
:1011A000FFF79CBE764D2B7853B3714A1268934279
:1011B00026DC4FF00008704A013B1268DFF8C8B126
:1011C00002FB03FA6B4B6F4C1B6803EB0A0901939C
:1011D00009F10806DBF800302978434506F11806C6
:1011E0002CDC019A614B52F80A2089201A6099F888
:1011F00004201A7199F805205A71062200F008FAA5
:101200005F4B1A78002AB4D0594B1B689A42B0DC65
:101210005A485D4B41791B689942AADA564B013A0C
:101220001C68544B1B6804FB02330279012A51D11C
:10123000182202FB013302689A609AE756F8183CBC
:101240005FFA88F723604FF00103062223718A209A
:101250004C4B677100F0DCF956F8143C0622236011
:101260000223297823718A20464B677100F0D0F958
:1012700056F8043C062223600323297823718A2030
:10128000404B677100F0C4F956F8083C0622236011
:101290000423297823718A203A4B677100F0B8F94A
:1012A00056F80C3C062223600523297823718A20F6
:1012B000344B677100F0ACF9062256F8103C2978DF
:1012C00023608A202F4B2271677108F1010800F01A
:1012D0009FF97FE7022A0ED0032A12D0042A17D0E2
:1012E000052A1BD0062A7FF444AF182202FB0133E3
:1012F00002681A613DE7182202FB01330268DA60D6
:1013000037E7182201FB0222134402685A6030E7D3
:10131000182201FB0222016899502AE7182202FBD9
:10132000013302685A6124E7154B187800283FF40E
:1013300020AF0F4B1B6898423FF71BAF0E4B013895
:101340001A680C4B50431C680C4B21181D68255023
:101350001C7900F580700C715B794B711BE700BF45
:10136000F8020002E4020002E8030002DC020002CC
:1013700010000002F0020002F4020002281A00022B
:10138000ED030002E802000214000002142110B56F
:101390000B4C0C4A236801FB032358740A4B20684A
:1013A0001B6801FB00219B68084A1B69106898476D
:1013B000236801332360236803F00F03236010BD0B
:1013C0004C0D00020C0C000200020003080C00028D
:1013D000022802BF0022014B1A6070475817000212
:1013E000430742BF0122014B1A707047540D00029F
:1013F0007FB50C4B00F03F00187001238DF81530BD
:10140000094B0A4A43EA80130193094B01A902934D
:10141000084B10681B689B68DB68984707B05DF84D
:1014200004FB00BFEF03000200005023080C000281
:10143000C00FF80300020003034B044A1B68106846
:101440009B689B68184700BF00020003080C00025D
:1014500030B53B4D8DB006AC0FCD0FC495E8030001
:1014600084E80300272000F065FF272001F08EF8B4
:10147000272001F09DF88022324B0B21DA62622096
:10148000DA6701F06FF81F21612001F06BF82E4B35
:101490002E4C0693042323602D4B1B7823B1022B83
:1014A00010D042F2017301E04FF41C53636001233A
:1014B000284DA3602B6806A89B681B689847802866
:1014C00003D9FEE742F20373F0E72B6806A99B6895
:1014D00021485B68984708B130BFFDE7A368002446
:1014E000012B08BF4FF000621C4B01A908BF1A6016
:1014F000E02283F81B231A4A1A4B8DF81540CDE9D8
:101500000123144B144A1B6810689B68DB689847DA
:10151000154B01220DF1030120461C608DF803409C
:1015200000F086FF9DF80330013B3E2B84BF3F2334
:101530008DF803309DF80300FFF75AFF0DB030BD62
:10154000F42E010000800F4008040002FC0300029A
:10155000EE03000200020003080C000200E100E0BC
:1015600000005023C00FF8035817000213B50122E2
:1015700004468DF807000DF10701002000F03CFF44
:1015800001220DF10701002000F052FF9DF8073005
:101590002046013B3E2B84BF3F238DF80730FFF7E9
:1015A00027FF02B010BDFFFF014B1878704700BF46
:1015B000EF0300027FB5114B8DF810001B78104A25
:1015C0009B0143F04D5343F4C31301930023029353
:1015D00040F20673ADF814300A4B01A91B6810687D
:1015E0000393094B1B788DF81130084B1B689B68DF
:1015F0005B69984707B05DF804FB00BFEF0300028A
:10160000080C0002F0030002F403000200020003D1
:101610002DE9F8431425144E88463168134F4D4385
:10162000044605F1080019463844914601F027F8B0
:10163000002302217A195360517482F810900C4AE9
:101640002103127841EA8211326841EA080101322D
:101650007F2A98BF134641F04D5141F480117951D2
:101660003360BDE8F88300BF60170002580D000228
:10167000EF0300020B460822C1B28B20FFF7C8BF60
:1016800010B5102886B00B46C4B206DD08222146EC
:101690008420FFF7BDFF06B010BD0E4B08221B785B
:1016A0000F3440EA8310002340F04D5040F4C21044
:1016B000019003A802938DF814208DF8154000F0D6
:1016C000DEFF054B054A1B6801A99B6810685B6932
:1016D0009847E0E7EF03000200020003080C000255
:1016E000012238B50A4C05462146104600F0A0FEFE
:1016F0002378022B84BF0123237000F0BBF8054B35
:101700001860054B1D70BDE83840FFF7A1BE00BF53
:10171000EE030002F0030002F403000207B5012209
:101720008DF807000DF10701104600F065FEBFF3CC
:101730004F8F0549054BCA6802F4E0621343CB6042
:10174000BFF34F8FFEE700BF00ED00E00400FA0595
:10175000F8B52A4C2A4B21681B68994219D0294BAD
:101760001D68B5B91420284A00FB012102224A74E1
:1017700001221A60254B264A1D60264B10681B6803
:101780009B685B699847236801337F2B88BF2B4692
:1017900023602148214A0368126893422CD0142206
:1017A0005A431F491F4E8D580832C5F3073405F0C0
:1017B0003F0535701C4E0A443546082112F8017B5E
:1017C000013906F8017BF9D1013303F00F03062C30
:1017D000036004D00B2C0DD12878FFF79FFF00F099
:1017E00049F82B68984205D12879431E3E2B01D831
:1017F000FFF7BCFE2046F8BD0024FBE7641700029B
:101800006017000258170002580D00025C17000212
:10181000080C000200020003500D00024C0D0002F3
:101820000C0C0002ED030002281A00020D4908B555
:101830000B782BB10C4A13680133642B0BD813605F
:101840000A4A1368092B85BF0022094B01331A602D
:1018500098BF136008BD002313600B70FFF7F8FDFD
:10186000EEE700BF540D0002F80300025C1700020F
:10187000581700024FF47C3318687047014B186802
:10188000704700BF04F00300114B1B78F3B1114BFC
:101890009A68D20708D5104A596913780133DBB228
:1018A000137013780D4AD1540D4A0E4913780978F4
:1018B00099420BD007498B685B0707D51378013332
:1018C000DBB213701378084AD35CCB61704700BF5A
:1018D0006C18000200000440681700026C17000238
:1018E0006F1800026D1800027118000210B5194C33
:1018F00001214FF4E10000F04FFD204600F08AFE88
:1019000023684FF4E13123F07C0343F4401343F0A8
:1019100004032360204600F0A7FE23680E4A43F02C
:1019200001032360636823F04003636000231370A6
:101930000A4A13700A4A13700A4A13700A4A13704B
:101940000A4A13700A4A13700A4A137001220A4B9A
:101950001A7010BD000004406A1700026F180002E0
:10196000681700026D1800026B1700027018000261
:10197000691700026E1800026C18000238B9084B93
:10198000084A1B781078C01A18BF01207047012838
:1019900003D1054B054A1B78F4E70020704700BFD0
:1019A000681700026A170002691700026B1700022D
:1019B00038B9094A13780133DBB21370074AD05C97
:1019C0007047012808BF064A4FF0000002BF137895
:1019D00001331370704700BF6A1700026C170002D2
:1019E0006B1700027047FFFF044B1A68044B19681D
:1019F00091421ABF01201A6000207047741900023A
:101A000090190002014B1868704700BF9C19000232
:101A100070B5284B284C1968226801F58030002ADF
:101A2000186017DD013A1030226018605A88234C84
:101A300012F008020CD0266856B92149214B0D68D6
:101A400021487DB10E602149096819603223036085
:101A5000226070BDEAD001F57F410132F031226091
:101A60001960E3E71968013119604EF65F211E68BD
:101A70008E42016888BF1D6011B101390160E7E73E
:101A800064201D68B5FBF0F100FB11510029DFD186
:101A90000F480168013101604FF47A711868B0FB9A
:101AA000F1F301FB1303002BD2D10A490B68013378
:101AB0000B60CDE7801900027C1900028819000232
:101AC000981900029C1900028C190002A01900024A
:101AD0007419000278190002022873B50D462FD040
:101AE00024D801283FD0474A474B116818688842DC
:101AF0001AD012681A60454A13680133B3F5966F1D
:101B0000136088BF2B68424A84BF23F002032B6016
:101B100013680133C72B6ED81360FFF787FEAA2224
:101B20003C4B9A6055229A6002B070BD032813D0D6
:101B30002028D8D15522374B9A60AA229A60D2E742
:101B4000FFF732FD3F28CED0286840F00100286022
:101B5000C0B2FFF72FFDC6E7086820F0010008605B
:101B600000F0FE00F5E72C4B2C4E1B8833602C4B0D
:101B700034681B68ADF80040ADF80230A4B29BB2E7
:101B8000E41A284B9C4220DA04F56A4460346B4620
:101B900000210822C0200194FFF73AFD84EAE47393
:101BA000A3EBE473642B20492B6816DD23F00203BA
:101BB00001202B60002332680B601E3232601B4A0A
:101BC00010600022114B1A608DE747F22F539C42A0
:101BD000C4BFA4F56A44603CD9E743F002032B601C
:101BE0006FF005039C42B8BF1C46062CA8BF062414
:101BF00024040C60E5E7002328781360FFF7DAFC83
:101C00008BE700BF7419000294190002A4190002A6
:101C10008419000200C00240281A0002A019000224
:101C20009C190002D08AFFFF7C190002981900025B
:101C30003F2830B50A4A0B4D03D1CE232B70002329
:101C40000BE00A23B0FBF3F103FB1103064CDBB2FC
:101C5000E35C09282B70F2D9635C137030BD00BFC0
:101C6000D0190002250000020C2F0100014B18784A
:101C7000704700BFC0190002034B1B68092B9CBFB3
:101C8000024B1870704700BFD4190002C01900023F
:101C9000024B01381870024B19607047C1190002DD
:101CA000BC190002102228494FF0E0530A6020229C
:101CB0004FF000600A6003F5085210604FF00070AA
:101CC00010604FF4806008604FF4004010600820FE
:101CD00008604FF0805111604FF0806111604FF447
:101CE0008031A2F5FE72C2F8FC11116803F50053B1
:101CF00041F010011160116841F020011160196874
:101D000041F000611960196841F0007119601168B3
:101D100041F480611160196841F400411960116853
:101D2000014311601A6842F080521A601A6842F04A
:101D300080621A601A6842F480321A601A6842F4AB
:101D400080421A60704700BF0422001C714AF8B537
:101D500013680133B3F5A07F0CD213606E4A136889
:101D600001332F2B136064D9002313606B4B4FF4A6
:101D7000804284E000200127694B10601F60FFF75C
:101D80002FF8684E684D694CD8B93846FFF728F8E7
:101D9000B8B93368F92B9CBFDB1933603368632B08
:101DA00008D1634A138843F01003138000232B608B
:101DB0002360D3E7F92BF9D15D4A138843F0200360
:101DC000F3E700203060FFF70BF8E0B92B68632BD6
:101DD00008D80133632B2B6004D1554A138843F094
:101DE000020313800120FEF7FBFF2368B8B9632BC1
:101DF000B4D80133632B2360B0D14D4A138843F02C
:101E000008031380AAE72B68033B5F2B9FBF484A58
:101E1000138843F00103138000232B60E2E7033BA8
:101E20005F2B9FBF424A138843F0040313800023B3
:101E3000BEE7012B25D13F4B4FF0E0521B78DB432F
:101E4000DBB2D90982F82410C3F3801182F825107F
:101E5000C3F34011D176C3F300115176C3F3C0012F
:101E600082F82A10C3F38001D173C3F3400103F059
:101E7000010382F823101377284B4FF080621A6019
:101E8000F8BD102B01D12C4BF7E7112B24D12B4B94
:101E90004FF0E0521B78DB43DBB2D90982F8241003
:101EA000C3F3801182F82510C3F34011D176C3F338
:101EB00000115176C3F3C00182F82A10C3F38001E8
:101EC000D173C3F3400103F0010382F823101377A9
:101ED000124B4FF48032D2E7202B01D1164BF8E79A
:101EE000212BCDD1164B4FF0E0521B78DB43DBB2F8
:101EF00003F0010182F82410C3F3400182F8251099
:101F0000C3F38001C3F3C003D17382F823300A4BBB
:101F10002DE700BFAC190002A81900028022001CA6
:101F2000DC190002C4190002C8190002CC19000211
:101F3000B8190002250000020022001CD01900027E
:101F4000D11900022DE9F8439A4B88461A681AB94C
:101F500000263046BDE8F8830025974C1D602368B5
:101F600001332360954B1E68002E35D09449721EB4
:101F70000E681A600EB91E60EBE792490B681BBB36
:101F8000FF20914C2070914C20703F2490480470A9
:101F900050070FD101330B608C498B4C0878802897
:101FA0000CBF012323784FEA40001CBF5B00DBB26B
:101FB0002370087012F00F06CAD1854A1378002BDF
:101FC000C6D05B081370C4E7082BE1D101247F4819
:101FD00004707D480570DBE77E4B1A881D4612F0C1
:101FE000200F02D01E800226B3E77B4F3B68002BF8
:101FF00036D12B88D9060AD5784B1B783BB10A23FA
:102000003B60774B2E801870764B26601E602B88C5
:1020100003F00A0343B1012200233A60704A2B8087
:102020001070704A236013606F4B1B6823B16F4AB6
:1020300012789A5C664B1A70614BD3F80090B9F134
:10204000020F42D0FFF7F4FDB9F1010F3DD1236833
:1020500013F0010F04D000235B4A13705B4A137026
:102060003868012855D15F4B1A6801321A602A88F6
:1020700052070ED52A885A4922F004021204120C83
:102080002A800A780132D2B23F2A25D9087000226C
:102090001A602A8812F0010227D02A88504922F0BB
:1020A00001021204120C2A800A78013A12F0FF028F
:1020B00017D13F220A7000221A602368132B1BD904
:1020C000474B1878FFF7B4FD1BE0B8F1010FC7D1FB
:1020D000236813F0800FBDE7202A88BF3F220A70D3
:1020E000D5E73E2A08BF2022E4E71968B429E4D9DD
:1020F0001A60022322603B600023334A1370334A84
:1021000013702368590741BF304A137843F0010325
:1021100013703B68022B0FD1314B1878FFF788FD05
:102120002368132B4FF0000303D8274A1370274A64
:1021300048E73B6001260CE70A2B66D1294B1A6859
:1021400001321A602A88520714D52A88274922F0BA
:1021500004021204120C2A8020480A780078013206
:10216000D2B20A7090424FF0000238BF0A701A6073
:10217000042222602A8812F001023CD02A881B49DE
:1021800022F001021204120C2A800A7882BB134A40
:1021900012780A7000221A6004232360124B1B6815
:1021A000002B3FF4D5AE114A12789A5C084B1A7096
:1021B000CEE600BFDC190002B019000228000002C0
:1021C000B4190002D8190002D0190002250000023B
:1021D000D1190002B8190002D4190002C119000275
:1021E00024000002E0190002BC190002C01900021C
:1021F000013AD2B2CDE71968B4290ED91A600B237F
:1022000022603B600022074B1A703B680B2B7FF467
:102210009FAE002303263B609BE623685B07F1D556
:10222000BCE700BFD1190002014B1878704700BF0E
:102230002400000208B500F0D3F8014B186008BD77
:10224000301A000210F0030004D0012804D1034B1F
:10225000186870470248704700207047842E0100BC
:10226000001BB700024BD3F8A000FFF7EBBF00BF85
:102270000040074008B5054BD3F89821FFF7F2FF5F
:1022800002F03F0202FB000008BD00BF0040074013
:10229000084BD3F88030DBB2012B05D03BB1022BC9
:1022A000054818BF00207047044B18687047044861
:1022B000704700BF00400740D8AC0700842E0100E3
:1022C000001BB7000A4BD3F88430DBB2032B0CD8C9
:1022D000DFE803F002040608FFF7DABFFFF7C2BF2A
:1022E000FFF7C8BF034B186870470020704700BF56
:1022F00000400740882E0100032898BF0022064BAB
:1023000085BF0438C0B2C3F88000C3F8840098BF0A
:10231000C3F88420704700BF00400740044BD3F847
:10232000843013F0FF0F01D1FFF7B2BFFFF7CABF30
:10233000004007401F28094A4FF0010307D9D2F88F
:10234000C810203883400B43C2F8C8307047D2F819
:10235000C41083400B43C2F8C430704700400740AC
:1023600010B50C4CD4F8D01091B1FFF7D7FFD4F8CA
:102370002821B0FBF1F1D3B2FF2B09D1C2F3072220
:10238000080202F580720023090E00F07EF9014672
:10239000084610BD0040074038B50446FFF7BEFFB1
:1023A000A0422CBFB0FBF4F201220C4DD3B2C5F811
:1023B000D03081B16243811A08020023090E00F077
:1023C00064F9000280B240F0FF00C5F82801BDE8C2
:1023D0003840FFF7C5BFC5F82811F8E700400740AF
:1023E00008B5FFF79BFF034BD3F8C030B0FBF3F009
:1023F00008BD00BF0040074000B53D238BB0CDE9CC
:1024000002124FF47A72CDE90030074B68461B6820
:1024100005A9B3FBF2F30493044B98479DF814000D
:102420000BB05DF804FB00BF301A00020502000388
:1024300000B53E238BB0CDE902124FF47A72CDE99C
:102440000030074B68461B6805A9B3FBF2F3049301
:10245000044B98479DF814000BB05DF804FB00BFD7
:10246000301A00020502000308B50E20FFF762FFD4
:102470000F20FFF75FFF1020FFF75CFF0B20FFF737
:1024800059FF0B2000F082F8BDE808400B2000F057
:102490008FB830B501EB8202914200D130BD0D788A
:1024A0004B784C8803EB451340F823400431F3E7A5
:1024B00010B50C46FFF794FFB0FBF4F0013810BDE7
:1024C000026810B512F0010205D0036823F043033F
:1024D0001B051B0D03608C784B7823430C7823433A
:1024E0004C68234303600B894362BC2383601AB1A9
:1024F000036843F00103036010BDFFFF08B50B4BF9
:1025000098420AD12A20FFF715FF2A2000F03EF852
:102510002A20BDE8084000F04BB82920FFF70AFF49
:10252000292000F033F82920F3E700BF00C0044061
:102530000B7803F00F0343604B7842681B01DBB25A
:10254000134343608B7842681B0203F470631343A8
:102550004360CB782BB1013B42681B039BB2134312
:102560004360704710B5FF2400F00F03000980009E
:1025700000F1804000F56030DB0002689C4022EAF8
:10258000040299401143016010BDFFFF1F28074A54
:102590004FF0010305D9916C203883400B439364BD
:1025A0007047516C83400B435364704700400740B1
:1025B0001F28084A4FF0010306D9916C2038834048
:1025C00021EA030393647047516C834021EA0303BB
:1025D0005364704700400740054AD2F80832184358
:1025E00020F07E4020F08700C2F80802704700BF4C
:1025F00000400740054A0649D2F80832084023EA5D
:1026000000030B40C2F80832704700BF004007408B
:1026100078FFFF0138B5124D0446A84210D011488A
:10262000844214BF33203220FFF784FEAC4209D12C
:102630003120FFF7ABFF3120BDE83840FFF7B8BFCE
:102640003120F1E7074B9C4204D13220FFF79EFF77
:102650003220F1E73320FFF799FF3320ECE700BF8A
:10266000000004400040044038B50C460546FFF722
:1026700077FE2401B0FBF4F4013C2C6238BD00F07D
:10268000C2BB00F0DABBFEF79FB95FF0000C30B5BB
:102690001C0022D112006FD0914206D30546084695
:1026A000002100F06FF80446284600F06BF80A4657
:1026B0002146BDE830401CF0404F08BF704703D5AD
:1026C0004942404261F100015FEA8C0C38BF70471B
:1026D0005B42524263F10003704742D41C0C04BFBA
:1026E0001B040CF1100C13F07F4F04BF1B020CF104
:1026F000080C13F0704F04BF1B010CF1040C13F015
:10270000404F04BF0CF1020C5FEA83035CBF0CF185
:10271000010C5B00CCF1200E22FA0EF4234302FAE6
:102720000CF200FA0CF520FA0EF001FA0CF420433A
:1027300021FA0EF114461A4600F024F8A4FB0023F7
:10274000AA1A71EB03033CBF1B190138CCF1200E10
:1027500022FA0CF203FA0EF4224323FA0CF30021BE
:10276000A7E7821A71EB03033CBF02460B464FF00A
:10277000000141F100009CE700200021BDE830404D
:1027800000F03DB80423B1EB122F09D2090241EA4F
:1027900010610002013B08BF7047B1EB122FF5D367
:1027A0000018494134BF9142891A4041494134BF20
:1027B0009142891A4041494134BF9142891A4041AE
:1027C000494134BF9142891A4041494134BF914245
:1027D000891A4041494134BF9142891A40414941D7
:1027E00034BF9142891A4041494134BF9142891A0C
:1027F0004041A3F1010313F00F0FD2D1704770478E
:102800002DE9F04781EA0304C1F30A5640F2FF774D
:1028100004F0004436B1BE4204D0C3F30A550DB1F2
:10282000BD4207D1490011F5001F58D35BD00020ED
:10283000344946E0C1F313014FEAC22841F4801144
:102840003544A1FB08674FEA525CB6463A46A8FBFE
:1028500000674FF00009B8464CEAC32343F0004C30
:1028600000234FF0000AE0FB0C89ECFB012318EB7E
:102870000E0149EB0A0A12EB0A0843F10009B9F507
:10288000801F41EA96011ED218EB080649EB0900A9
:10289000814646EAD178A5F580654900C80F18EB56
:1028A000000249F10003B1F1004F40F2FD711646FC
:1028B00008BF22F001068D4208D830461C4304EBC5
:1028C0000551BDE8F087A5F2FF35E7E7002D03DBF2
:1028D00044F0FF4444F4E00400202146F1E75A00AC
:1028E00012F5001FF8D3084A5B0093429FD81142AB
:1028F0004FF000009CD013429AD044F0FF4141F4C5
:10290000E001DEE70000F87F0000E0FF21F0004278
:1029100030B502F1474505F57005B5F17E6F01F060
:1029200000440FD202F14843420FC10042EAC30201
:1029300002EBD173B1F1004F08BF23F001031C4338
:10294000204630BD002DFBDB490011F5001F94BF70
:1029500044F0FF44004CF3E70000C07F30B505466B
:1029600051EA03000BD4580010F5001F1DD89942FE
:1029700019D31AD195422CBF0020012030BD480048
:1029800010F5001F11D85C0014F5001F0DD82C4362
:1029900014432043F2D0994205D806D1954294BF02
:1029A00000200120EAE70120E8E70020E6E730B553
:1029B00051EA030405464FEA41000AD410F5001F0E
:1029C0001CD8994218D819D1954294BF00200120F3
:1029D00030BD10F5001F11D85C0014F5001F0DD894
:1029E0002C4314432043F3D0994205D306D195429A
:1029F0002CBF00200120EBE70120E9E70020E7E7FA
:102A0000C0F3C75230B581EA000332B1FF2A04D0C7
:102A1000C1F3C7540CB1FF2C11D14000B0F17F4F6E
:102A20003AD340D14900B1F17F4F3CD810F07F4FED
:102A300039D011F07F4F36D003F0004029E0224416
:102A40000902040241F0004144F00044A4FB0145A6
:102A50002946002DA8BF690003F0004040EA112379
:102A60004FEA0161B4BF7F3A803AB1F1004F03EB06
:102A7000C25304D0FD2A02D803EBD17030BD01331C
:102A80000CB923F00103FD2A01D81846F6E7002A05
:102A9000F4DB40F0FF40F1E74A00B2F17F4FC1D2D2
:102AA00003F00040EAE70148E8E700BF0000C07F0C
:102AB00030B5C0F3C75580EA010335B1FF2D04D00E
:102AC000C1F3C7520AB1FF2A05D14200B2F17F4FCC
:102AD00032D9254812E00402090244F0004441F0D2
:102AE00000418C42A5EB020532BF7D357E3564087E
:102AF000FD2D04D9002D03F000402EDA30BD090A67
:102B0000B4FBF1F201FB1244D80F240202EBC030F7
:102B1000B4FBF1F201FB12442402B4FBF1F301FB1C
:102B2000134402EB002003EB002000EBC550A1EBA7
:102B3000440100EBD170E1E74C00B4F17F4FC8D8FD
:102B40000843400010F07F4FC3D012F07F4F03F0D6
:102B50000040D3D0B4F17F4F02D040F0FF40CDE72A
:102B6000B2F17F4FB5D0C9E70000C07F90EA010203
:102B700030B4034604D530BC01F1004100F068B820
:102B800088423CBF02F1004253404FEAD35038BF65
:102B90005140C2B2CC0DFF2AA0EB04054DD09542A6
:102BA00047D009021A0241F0004142F0004221FAE6
:102BB00005F5521B13D502F100428032C30503EB29
:102BC0001223120608D12034201A11FA00F20CBF89
:102BD00023F0010303F1FF33184630BC7047520065
:102BE000002A18DADB0D8032DB0503EB2223120604
:102BF00000F0FE0501D0002DEED12034201A11FA8C
:102C000000F20CBF23F0010303F1FF33002DE3D1E9
:102C100003F00043E0E716D0B2FA82F10238401A1E
:102C2000C00593EA000FF3D402FA01F300EB13237B
:102C3000D2E7002D08BF0023CEE75A0201D1002DB4
:102C4000CAD1024BC8E70023C6E700BF0000C07F1F
:102C500090EA010F70B4034604D570BC01F1004145
:102C6000FFF784BF88423EBF02460B461146DD0D8A
:102C7000EAB2CC0DFF2AA5EB040039D0904232D045
:102C800009021A0241F0004142F0004221FA00F02C
:102C900012180AD202F100428032E80500EB12233A
:102CA000120618D070BC18467047681C02F5807276
:102CB000C60506EB5223D205C0B201D0FF28F1D1E0
:102CC0002034651B11FA05F208BF23F00103FF2829
:102CD00008BF3346E6E72034651B11FA05F2E1D15F
:102CE00023F00103DEE70028DCD103F00043D9E73D
:102CF0005A0218BF004BD5E70000C07F78B1B0FA88
:102D000080F200FA02F3C2F11F00803301EBC050E1
:102D100000EB23201B0603D120F0010070470020A8
:102D2000704700F00041002801F18041B8BF4042E7
:102D3000FFF7E4BF4FF08041FFF7E0BFC31013F08F
:102D40007F610AD0B1F17F6F4FEA407243F0E043F8
:102D500008D003F148411046704703F000430020BB
:102D60001946704752EA0332014A18BF1346F6E784
:102D70000000F87F884203D00143B1F1004F06D133
:102D80004000B0F17F4F8CBF002001207047002031
:102D9000704750EA010308D44B00B3F17F4F13D8BA
:102DA00088422CBF0020012070474200B2F17F4FC3
:102DB0000AD84A00B2F17F4F06D8884204D913F1ED
:102DC000004018BF012070470020704750EA0103FF
:102DD0004FEA400207D4B2F17F4F12D8884294BF25
:102DE000002001207047B2F17F4F0AD84A00B2F1AB
:102DF0007F4F06D8884204D213F1004018BF01204B
:102E000070470020704740EA0103DB0703460CD4FB
:102E10000346043A22BF51F804CB43F804CBB2F185
:102E20000402F7D2043208BF7047013A24BF11F8F8
:102E300001CB03F801CBF8D87047034613F0030F1A
:102E40000ED101F0FF0141EA012141EA0141043ABA
:102E500024BF43F8041BB2F10402F9D202F10402C8
:102E6000013A24BF03F8011BFAE770474044657636
:102E700069636549644005405265766973696F6EA0
:102E8000400800FF001BB700008000000104800024
:102E900001058000001B800000198000010A8000ED
:102EA000000F800001038000001C800000108000E3
:102EB000001A8000000E8000001E900000099000A3
:102EC000000D800000128000000B8000001F8000B9
:102ED00001008000000180000003800000058000E8
:102EE00000028004625861F8016800905002521894
:102EF000510853280000000000000F40FC030002AE
:102F0000180000020000000000000000FC60DAF27F
:102F100066B6BEE0FEF6EE3E9C7A9E8ECEFFFFFFCA
:102F2000A0000000803E0000050800010A10080211
:102F300001000000010000008D130100D113010009
:0C2F4000E1130100FF01FFFFFA00000098
:04000003100005479D
:00000001FF
