:020000021000EC
:1004000000900002470501001105010013050100DD
:100410001505010017050100190501005051F9FDEE
:100420000000000000000000000000001B050100AB
:100430001D050100000000001F050100250F01003F
:100440002305010023050100230501002305010008
:1004500023050100230501002305010023050100F8
:1004600023050100230501002305010023050100E8
:1004700023050100230501002305010023050100D8
:1004800023050100230501002305010023050100C8
:1004900023050100230501002305010023050100B8
:1004A000230501002305010023050100E1190100D6
:1004B0002305010023050100230501002305010098
:1004C0002305010023050100230501002305010088
:1004D0002305010023050100230501002305010078
:1004E0002305010023050100230501002305010068
:1004F0002305010023050100230501006C380100DC
:10050000000000022C0000002C0000025C1D000016
:10051000FEE7FEE7FEE7FEE7FEE7FEE7FEE7FEE7B3
:10052000FEE7FEE7002310B5934200D310BD1C5830
:100530005C500433F8E700231A468B4200D370471F
:100540001A500433F9E738B50E4C0F4DAC420AD3BC
:100550000E4DAC420FD301220D4B1A6000F00EFF7E
:1005600002F075FBFEE7D4E900010C3454F8042CCA
:10057000FFF7D8FFEAE754F8080B54F8041CFFF71C
:10058000DAFFE6E7FC0401000805010010050100A0
:10059000D8400740FFFFFFFFFFFFFFFFFFFFFFFF08
:1005A000FFFFFFFFFFFFFFFFFFFFFFFFFFFFFFFF5B
:1005B000FFFFFFFFFFFFFFFFFFFFFFFFFFFFFFFF4B
:1005C000FFFFFFFFFFFFFFFFFFFFFFFFFFFFFFFF3B
:1005D000FFFFFFFFFFFFFFFFFFFFFFFFFFFFFFFF2B
:1005E000FFFFFFFFFFFFFFFFFFFFFFFFFFFFFFFF1B
:1005F000FFFFFFFFFFFFFFFFFFFFFFFFFFFFFFFF0B
:10060000FFFFFFFFFFFFFFFFFFFFFFFFFFFFFFFFFA
:10061000FFFFFFFFFFFFFFFFFFFFFFFFFFFFFFFFEA
:10062000FFFFFFFFFFFFFFFFFFFFFFFFFFFFFFFFDA
:10063000FFFFFFFFFFFFFFFFFFFFFFFFFFFFFFFFCA
:10064000FFFFFFFFFFFFFFFFFFFFFFFFFFFFFFFFBA
:10065000FFFFFFFFFFFFFFFFFFFFFFFFFFFFFFFFAA
:10066000FFFFFFFFFFFFFFFFFFFFFFFFFFFFFFFF9A
:10067000FFFFFFFFFFFFFFFFFFFFFFFFFFFFFFFF8A
:10068000FFFFFFFFFFFFFFFFFFFFFFFFFFFFFFFF7A
:10069000FFFFFFFFFFFFFFFFFFFFFFFFFFFFFFFF6A
:1006A000FFFFFFFFFFFFFFFFFFFFFFFFFFFFFFFF5A
:1006B000FFFFFFFFFFFFFFFFFFFFFFFFFFFFFFFF4A
:1006C000FFFFFFFFFFFFFFFFFFFFFFFFFFFFFFFF3A
:1006D000FFFFFFFFFFFFFFFFFFFFFFFFFFFFFFFF2A
:1006E000FFFFFFFFFFFFFFFFFFFFFFFFFFFFFFFF1A
:1006F000FFFFFFFFFFFFFFFFFFFFFFFFFFFFFFFF0A
:10070000024A93689B07FCD5704700BF00C00440B5
:1007100037B5124C019140EA040311481146836138
:10072000FFF7EEFF0F4D0139C9B2FF2908D1FFF7DE
:10073000E7FF802383608368DB05FCD503B030BD11
:1007400000290CBF2A46224602AB0B4413F8043C96
:1007500013438361FFF7D4FFE5E700BF00004E07B6
:1007600000C0044000005E077FB505220021012380
:100770004FF0E05002F061F920231B4C1B4D204646
:100780002B6002F09FF943F2040319492046ADF8AB
:10079000043002F072F90023ADF80C0001A92046E4
:1007A0008DF80630029302F070F94FF08073204606
:1007B0006946009302F0A0F92368052143F0010384
:1007C0002360532002F0B2F942F2107404262E6026
:1007D0000123022200214FF0E05002F02EF9013CEB
:1007E000F5D104B070BD00BF00C004408022001CE1
:1007F00000093D00024B1870024B1970704700BF92
:10080000C9010002C801000200231A4610B50A4CB3
:100810004001C11854F821100133202B0A44F8D1AB
:10082000501102F034FF054B1B781BB1044902F054
:100830009DFD10BD0349FAE72C000002C80100022B
:1008400000401C3900409C392DE9F041984E346835
:10085000002C40F0C3804FF00408964F964D0123C2
:100860002C700722C7F8008021464FF0E05002F0BC
:10087000E4F80123424621464FF0E05002F0DDF853
:10088000802310223B608D4B40F661111A601920C5
:100890000222FFF73DFF02224FF416611A20FFF7F4
:1008A00037FF032286492120FFF732FF2F4605211B
:1008B000532002F03BF9022200210920FFF728FF14
:1008C000022200210A20FFF723FF022200210B2031
:1008D000FFF71EFF022200210C20FFF719FF022262
:1008E00000210D20FFF714FF022200210E20FFF748
:1008F0000FFF022200210F20FFF70AFF0222002132
:100900001020FFF705FF002C6AD1022248F20101F6
:100910000920FFF7FDFE022240F2D5710120FFF70A
:10092000F7FEFF21532002F001F94FF0E052D37897
:1009300003F0FF05002BFAD10134082CB7D10222B5
:1009400029460920FFF7E4FE022229460A20FFF784
:10095000DFFE022229460B20FFF7DAFE022229469B
:100960000C20FFF7D5FE022229460D20FFF7D0FE0E
:10097000022229460E20FFF7CBFE022229460F2035
:10098000FFF7C6FE022229461020FFF7C1FE4D4B9D
:1009900002221C784C4B1B78002B6AD048F20101D4
:1009A0000920FFF7B5FE012C53D0002C4AD0022CB1
:1009B0005AD0022240F2C1710120FFF7A9FEFF21A7
:1009C000532002F0B3F810223A4B1A608022C3F889
:1009D000802001233B704FF47A533360BDE8F081EF
:1009E000012C04D1022248F285010A2091E7022C51
:1009F00004D1224648F2C7010B208AE7032C04D118
:100A0000022248F243010C2083E7042C04D1022285
:100A100049F201010D207CE7052C04D1022249F2A4
:100A200085010E2075E7062C04D1022249F2C70188
:100A30000F206EE7072C7FF46EAF022249F24301CC
:100A4000102066E7022248F2C7010B20FFF760FE84
:100A5000AFE7022248F2C7010B20FFF759FE02223E
:100A600048F243010C20F1E7224648F285010A20B2
:100A7000ECE749F201010D20FFF74AFE012C0CD0F2
:100A800034B1022C95D1224649F285010E20DDE7D2
:100A9000022249F2C7010F20D8E7022249F2C7011A
:100AA0000F20FFF735FE022249F243011020CDE767
:100AB000C00100020022001CB00100028022001CC4
:100AC00080011100C9010002C8010002714B73B519
:100AD0001A6812B11A68013A1A606F4A127802F065
:100AE000FF011AB96D4B196002B070BD6C490A68FC
:100AF000013A3AD00A606B496B4A097812780029AA
:100B000062D0012A52D051B2002946D0022A57D0D1
:100B10004FF0E053DB7803F0FF04002BE4D1052114
:100B2000532002F003F8614B01949A68D50762D410
:100B30005F4A9A61FFF7E4FD04235C4A5D495E4821
:100B4000013BDBB2FF2B58D19368DB05FCD5019A42
:100B5000130A02F00F02A3F50003072A62D8DFE8A8
:100B600002F05A686F767D848B92A0225348544CD1
:100B700005680A6022685349466841F8225002F12C
:100B8000200541F82560856802F14000013202F03D
:100B90001F0241F820502260ADE7404A1068052846
:100BA00002BF4FF47A5011601860B1E73B4A1168F8
:100BB0000D29ADD14FF47A51196000231360A7E7D6
:100BC000364A11680329F4E7012A10D050B228B13F
:100BD000022A9DD1314A10683028E1E72F4A116876
:100BE000502995D14FF47A511060196090E72B4A43
:100BF0001068D028D4E75A6997E7002B0CBF0C4641
:100C0000044694619468E407FCD5556902AC1C4421
:100C100004F8045C94E7294A1360204A136843F0FF
:100C200001031360FF21532002B0BDE8704001F0C2
:100C30007DBF224A5360194A136843F00203F0E76C
:100C40001E4A5360154A136843F00403E9E71B4A40
:100C50009360124A136843F00803E2E7174A1360EF
:100C60000E4A136843F01003DBE7144A53600B4A43
:100C7000136843F02003D4E7104A5360074A13680F
:100C800043F04003CDE70D4A9360044A136843F0F4
:100C90008003C6E7C0010002B0010002AC010002FF
:100CA00000000002C8010002C901000200C00440A7
:100CB00042004E0700001E0700000E07B4010002AC
:100CC000C40100022C0000020022014B1A70704780
:100CD000CC0100020B78042B03D1012A04BF014B85
:100CE0001A707047781D000238B5234D234C002040
:100CF00001F018F900B938BD002001F02DF92A786B
:100D0000034611182970217804290CD8DFE801F076
:100D10000309101B2800312BE9D101222B7022700E
:100D2000E5E7412B01D0002300E002232370DEE73A
:100D3000134A144913700022F02B0A7001D80323C0
:100D4000F4E72270D3E70F4801784A1CD2B2027050
:100D50000D4843540A4B1B789342C8D80423E5E757
:100D600000209A422A702070C1D1054B06491A789A
:100D7000FFF7B0FFBBE700BFCB010002CC010002D0
:100D8000BD020002CA010002CD010002FFFFFFFF09
:100D90002DE9F84F4FF0000A394D3A4CDFF8ECB02E
:100DA000204602F0DAFA30A3D3E9002306460F46C4
:100DB00002F00AF80022344B02F000FA2CA3D3E927
:100DC0000023804689463046394601F0FDFF324611
:100DD0003B4601F0F9FF02460B464046494602F009
:100DE000EDF952465B4601F0EFFF02F06BFA002C82
:100DF000804609DB286040F2F2330A349C4205F158
:100E00000405CDD1BDE8F88F1BA3D3E900233046FC
:100E1000394601F0D9FF32463B4601F0D5FF324654
:100E20003B4601F0D1FF0646A4F164000F4602F0F4
:100E300094FA02460B463046394601F0C5FF524649
:100E40005B4601F0C1FF064640460F4602F02CFC0F
:100E500002460B463046394602F0B0F902F032FA4B
:100E60002860C8E7AFF300801C64ED4A2602703F9B
:100E700088CE19EEAF60A3BEFA5FD7A9A36592BD75
:100E8000C0020002F2FEFFFF0000F03F00005940E8
:100E9000F8B51F4D06460146286802F03EFC0028C2
:100EA00031D13146D5F8FC0102F01AFC68BB0124AF
:100EB00055F824703146384602F02FFCF0B1631E1D
:100EC00055F823503046294602F006FB114902F03E
:100ED0004DFA29460646384602F0FEFA01463046EB
:100EE00002F09CFA05460A206043A0F58C7002F0DF
:100EF000CEFB0146284602F061FBF8BD0134802C90
:100F0000D6D10548F9E70548F7E70548F5E700BFFA
:100F1000C00200020000204100407A4400002AC3C1
:100F200000007A4408B5FFF7D1FD01F045F801F063
:100F3000E1F9BDE8084000F07BBFFFFFFFFFFFFFC6
:100F40002DE9F74F804B01F049FC00F019FA092018
:100F500001F0C4FC092001F0FDFD092001F00CFEA8
:100F600001F014F800F096FFFFF7AEFEFFF7FCFB70
:100F700001F06CF9032000F087FE00F053FF012818
:100F8000724B04D0022802D000229A7000E09870C0
:100F900001246F4D0C220021284601F056FE10213D
:100FA00020466C4B02222C7000F064FB204600F0BF
:100FB000BDFA6949044602F0B0FB002800F0C28186
:100FC0006649012000F092FA002000F0B5FA0446CC
:100FD0006349062001F030F9052C04D900210846A8
:100FE00000F094FA0024E0B201F01AF901F0CCFC10
:100FF0004FF47A53B0FBF3F00138B0F1807F09D29F
:10100000E021584B584A586082F8231000229A6019
:1010100007221A602022544B002783F82320FFF771
:10102000B7FE524C524EDFF82481FFF75DFE00F010
:1010300063FE072805465ED00C2866D02146284668
:1010400001F01EF8284600F031FB2168C94301F089
:10105000010500F07DFD294601F048FAC0B20228E2
:1010600057D003285CD0012803D101F0B1FB00F078
:1010700051FD00F08DFF0028D7D0002000F05CFA71
:10108000C0B201F0CDF8FFF7DFFB00F061FD394D94
:101090002B7883420AD000F05BFD2870206820F096
:1010A0000100206000F0FE0000F058FD2368D90721
:1010B000B9D500F07BFF4FF000082F4CE080404690
:1010C00084F80580FFF7A0FB05460120FFF79CFB95
:1010D00006460220FFF798FB0190404600F02CFAEC
:1010E000052800F22C81DFE810F025004B00E50018
:1010F000E800F1002701207800F030FD4346062289
:101100000021882000F058FD98E71C4B1B783360C5
:1011100094E73F2000F0FEFC012000F0D3FDA8E79B
:1011200001F078F80146002000F0F0F90D2000F001
:10113000BDFA9EE701210020FFF75CFB29463046FF
:1011400002F06CF93FE000BFBA3701000400000272
:1011500060060002CC04000200401C4600007A44F5
:101160000A00000210E000E000ED00E06C06000262
:10117000C00400025406000258060002791D000255
:1011800001210846FFF736FB304602F08DFA804613
:101190000198894602F088FA02460B4602F00EF8E2
:1011A00002460B464046494601F034FF8046284639
:1011B000894602F079FA02460B464046494601F05C
:1011C00089FE02F07FF88046012000F0AFF9014669
:1011D000404602F0CBF88146FFF75AFE8046604950
:1011E000284602F07DFA20B1B846637943F0010346
:1011F0006371DFF87CB14146DBF8000002F0DEF9F4
:10120000DFF870A14146DAF80020CBF80000013287
:10121000CAF800200020534A00F094F9032120600E
:10122000002000F00DFA50492071012000F0FCFC74
:101230000022DFF844816271D8F8002092071BD5A4
:101240000622494902202271C4F8009000F0ECFC0B
:101250002560052544490320257100F0E5FC42493D
:1012600004202660257100F0DFFC019B3E492846E2
:101270002360257100F0D8FCD8F80020D3077FF553
:10128000D0AEDAF8000013287FF6CBAE02F008FAF1
:101290000146DBF8000002F0C1F803222060324969
:1012A0000120227100F0BAFC0022CBF80070CAF8CD
:1012B0000020B6E6012102203EE700210846FFF7A4
:1012C00099FA2946304602F0A9F822E000210120CF
:1012D000FFF790FA304602F0E7F980460198894618
:1012E00002F0E2F902460B4601F068FF02460B46A7
:1012F0004046494601F08EFE80462846894602F067
:10130000D3F902460B464046494601F0E3FD01F0A1
:10131000D9FF8046012000F009F90146404602F05D
:1013200025F8814602F0C0F90BA3D3E9002301F0B0
:101330004BFD01F0C7FF4FE700210220BFE7B84691
:10134000B9464CE70949204602F0CAF900283FF4A3
:101350003BAE35E6AFF300809A9999999999B93FD8
:101360000000AF435D060002580600020000C842BC
:10137000C4040002C8040002C004000200F076B8F1
:101380004FF0E05001F044BB30B94FF0E053987F8C
:10139000003018BF01207047012803D14FF0E053FF
:1013A000587AF5E70120704738B50D2001F096FA1C
:1013B0000C2001F093FA2A2001F090FA0D2001F0A0
:1013C000C9FB0D2001F0D8FB15220C490C4801F097
:1013D00045FB00240B4D05EB44035B7815F8140026
:1013E000C3F34101C3F3C40303EB4111C9B2013498
:1013F00001F09CFB082CEED138BD00BFDC370100AA
:1014000000800F403038010038B54FF4001001F073
:10141000D5FB0123144C4FF48000C4F8A03001F038
:10142000BFFB44234FF48000C4F8983101F0C6FBA1
:10143000D4F89C31DB07FBD50125C4F8C050D4F8A3
:101440002431062023F4405343F40053C4F82431DC
:1014500001F026FA4FF4000001F0A2FBC4F8A450FA
:10146000C4F8CC5038BD00BF0040074008B5FFF7B6
:101470009BFFFFF7C9FF0122014BC3F8CC2008BD39
:10148000004007402DE9F0470024DFF85480DFF8E2
:101490005490DFF854A0D8F80030A34206DCBDE831
:1014A000F047F0220C49102001F096BAD9F800203C
:1014B000DAF8007004FB02F6BD19294606F58070C3
:1014C00001F08AFA054B2A791B6801349A42C2BF9F
:1014D0000023BB516B60DEE78C06000214000002A3
:1014E00010000002880600028406000208B5064BC0
:1014F000F02243F820101946102001F051FABDE8FF
:101500000840FFF7BFBF00BF8C06000208B5064BBE
:10151000F02243F820101946102001F041FABDE8EE
:101520000840FFF7AFBF00BF8C060002014B53F825
:10153000200070478C060002014B53F820007047D2
:101540008C0600022DE9F84F3A4B17781B6807F01C
:10155000FD0783420D469146177068DD364B1E68C5
:10156000364B1C6806FB00463379002B4FD0012B0D
:101570004FF0000426D9182206F1080B03F1FF38BA
:1015800004F1010A02FB0AF329465BF8030002F0AA
:10159000C4F800283ED1C24554464FF01802EFDB94
:1015A0003379013BA3420DD1182303FB0463294681
:1015B000986802F095F828B199F8003043F00203DA
:1015C00089F800302946284601F0D0FE0746182049
:1015D00000FB04643946284601F0C8FE216901F089
:1015E000C5FE61690646384601F0C0FE0146304638
:1015F00001F0E4FFA1690646284601F0B7FE014666
:10160000304601F0DBFFE16901F0D8FF05462846CE
:10161000BDE8F88F002CC3D12946B06802F07DF8F0
:101620000028BDD047F0020789F80070B8E7002510
:10163000EDE700BF100000028806000284060002E9
:10164000094A0346126882420BDD084A08481268BC
:10165000006802FB03031A791AB15B79002B18BFEB
:1016600019460846704700BF1000000288060002B5
:101670008406000210B4084C2260084A10BC1060B6
:10168000074A1160074A136018234B43064A083380
:101690001360FFF7F7BE00BF7806000210000002DB
:1016A0001400000284060002880600022DE9F74FAC
:1016B0000738072831D8DFE810F0330049000B0164
:1016C0007700300030000800380000248E4D8F4F26
:1016D0008F4E3B68A34220DD55F8043B0522336062
:1016E00000218B4B8D20347100F066FA0134F0E755
:1016F000396834685143874B60186158541C19602D
:10170000017906221971417989205971E1B200F0FD
:1017100053FA22462B689342EADC03B0BDE8F08F0F
:1017200000227D4D7D4E7E4FF4E77E4A13793B2BA0
:10173000F3D812687449102041F82320F02201F0F8
:101740002FF903B0BDE8F04FFFF79CBE764D2B7824
:1017500053B3714A1268934226DC4FF00008704A76
:10176000013B1268DFF8C8B102FB03FA6B4B6F4C08
:101770001B6803EB0A09019309F10806DBF8003046
:101780002978434506F118062CDC019A614B52F882
:101790000A2089201A6099F804201A7199F8052006
:1017A0005A71062200F008FA5F4B1A78002AB4D06A
:1017B000594B1B689A42B0DC5A485D4B41791B6813
:1017C0009942AADA564B013A1C68544B1B6804FB39
:1017D00002330279012A51D1182202FB0133026837
:1017E0009A609AE756F8183C5FFA88F723604FF042
:1017F0000103062223718A204C4B677100F0DCF94B
:1018000056F8143C062223600223297823718A208B
:10181000464B677100F0D0F956F8043C062223606D
:101820000323297823718A20404B677100F0C4F9A3
:1018300056F8083C062223600423297823718A2065
:101840003A4B677100F0B8F956F80C3C0622236059
:101850000523297823718A20344B677100F0ACF995
:10186000062256F8103C297823608A202F4B2271DB
:10187000677108F1010800F09FF97FE7022A0ED096
:10188000032A12D0042A17D0052A1BD0062A7FF477
:1018900044AF182202FB013302681A613DE71822A7
:1018A00002FB01330268DA6037E7182201FB0222EB
:1018B000134402685A6030E7182201FB02220168D3
:1018C00099502AE7182202FB013302685A6124E783
:1018D000154B187800283FF420AF0F4B1B68984237
:1018E0003FF71BAF0E4B01381A680C4B50431C6876
:1018F0000C4B21181D6825501C7900F580700C7167
:101900005B794B711BE700BF8C0600027806000272
:101910007C0700027006000210000002840600022C
:1019200088060002791D0002810700027C06000281
:1019300014000002142110B50B4C0C4A236801FB63
:10194000032358740A4B20681B6801FB00219B6825
:10195000084A1B691068984723680133236023688D
:1019600003F00F03236010BDE0100002A00F00027F
:10197000000200039C0F0002022802BF0022014B5C
:101980001A607047EC1A0002430742BF0122014B64
:101990001A707047E81000027FB50C4B00F03F0052
:1019A000187001238DF81530094B0A4A43EA801359
:1019B0000193094B01A90293084B10681B689B68AF
:1019C000DB68984707B05DF804FB00BF830700029F
:1019D000000050239C0F0002C00FF8030002000318
:1019E000034B044A1B6810689B689B68184700BF3C
:1019F000000200039C0F000230B53B4D8DB006ACD9
:101A00000FCD0FC495E8030084E80300272000F001
:101A100065FF272001F09EF8272001F0ADF8802215
:101A2000324B0B21DA626220DA6701F07FF81F2166
:101A3000612001F07BF82E4B2E4C0693042323608B
:101A40002D4B1B7823B1022B10D042F2017301E021
:101A50004FF41C5363600123284DA3602B6806A834
:101A60009B681B689847802803D9FEE742F20373FE
:101A7000F0E72B6806A99B6821485B68984708B186
:101A800030BFFDE7A3680024012B08BF4FF00062C0
:101A90001C4B01A908BF1A60E02283F81B231A4AD5
:101AA0001A4B8DF81540CDE90123144B144A1B68DD
:101AB00010689B68DB689847154B01220DF1030104
:101AC00020461C608DF8034000F086FF9DF803302F
:101AD000013B3E2B84BF3F238DF803309DF803006C
:101AE000FFF75AFF0DB030BD4038010000800F40B5
:101AF0009C07000290070002820700020002000318
:101B00009C0F000200E100E000005023C00FF8032A
:101B1000EC1A000213B5012204468DF807000DF1FE
:101B20000701002000F03CFF01220DF10701002019
:101B300000F052FF9DF807302046013B3E2B84BF4A
:101B40003F238DF80730FFF727FF02B010BDFFFFDE
:101B5000014B1878704700BF830700027FB5114B17
:101B60008DF810001B78104A9B0143F04D5343F44D
:101B7000C31301930023029340F20673ADF81430AF
:101B80000A4B01A91B6810680393094B1B788DF859
:101B90001130084B1B689B685B69984707B05DF87C
:101BA00004FB00BF830700029C0F000284070002B1
:101BB00088070002000200032DE9F8431425144EA3
:101BC00088463168134F4D43044605F10800194615
:101BD0003844914601F037F8002302217A19536006
:101BE000517482F810900C4A2103127841EA821154
:101BF000326841EA080101327F2A98BF134641F05A
:101C00004D5141F4801179513360BDE8F88300BF34
:101C1000F41A0002EC100002830700020B460822AF
:101C2000C1B28B20FFF7C8BF10B5102886B00B4695
:101C3000C4B206DD082221468420FFF7BDFF06B0AE
:101C400010BD0E4B08221B780F3440EA831000238E
:101C500040F04D5040F4C210019003A802938DF85B
:101C600014208DF8154000F0EEFF054B054A1B6867
:101C700001A99B6810685B699847E0E78307000249
:101C8000000200039C0F0002012238B50A4C0546F1
:101C90002146104600F0A0FE2378022B84BF0123CA
:101CA000237000F0BBF8054B1860054B1D70BDE8B4
:101CB0003840FFF7A1BE00BF820700028407000280
:101CC0008807000207B501228DF807000DF1070112
:101CD000104600F065FEBFF34F8F0549054BCA68FB
:101CE00002F4E0621343CB60BFF34F8FFEE700BF07
:101CF00000ED00E00400FA05F8B52A4C2A4B2168F3
:101D00001B68994219D0294B1D68B5B91420284A7F
:101D100000FB012102224A7401221A60254B264A47
:101D20001D60264B10681B689B685B699847236899
:101D300001337F2B88BF2B4623602148214A03684B
:101D4000126893422CD014225A431F491F4E8D58BB
:101D50000832C5F3073405F03F0535701C4E0A44C0
:101D60003546082112F8017B013906F8017BF9D1CB
:101D7000013303F00F03062C036004D00B2C0DD1AC
:101D80002878FFF79FFF00F049F82B68984205D1AB
:101D90002879431E3E2B01D8FFF7BCFE2046F8BD34
:101DA0000024FBE7F81A0002F41A0002EC1A000201
:101DB000EC100002F01A00029C0F00020002000367
:101DC000E4100002E0100002A00F000281070002F0
:101DD000791D00020D4908B50B782BB10C4A136828
:101DE0000133642B0BD813600A4A1368092B85BF93
:101DF0000022094B01331A6098BF136008BD00230D
:101E000013600B70FFF7F8FDEEE700BFE81000026B
:101E10008C070002F01A0002EC1A00024FF47C3327
:101E200018687047014B1868704700BF04F0030042
:101E3000114B1B78F3B1114B9A68D20708D5104AA1
:101E4000596913780133DBB2137013780D4AD154FA
:101E50000D4A0E491378097899420BD007498B68CF
:101E60005B0707D513780133DBB213701378084A88
:101E7000D35CCB61704700BF001C0002000004402F
:101E8000FC1A0002001B0002031C0002011C0002DD
:101E9000051C000210B5194C01214FF4E10000F0BF
:101EA0004FFD204600F09AFE23684FF4E13123F005
:101EB0007C0343F4401343F004032360204600F006
:101EC000B7FE23680E4A43F001032360636823F0E2
:101ED00040036360002313700A4A13700A4A1370A8
:101EE0000A4A13700A4A13700A4A13700A4A137096
:101EF0000A4A137001220A4B1A7010BD00000440F8
:101F0000FE1A0002031C0002FC1A0002011C00025F
:101F1000FF1A0002041C0002FD1A0002021C00024B
:101F2000001C000238B9084B084A1B781078C01A08
:101F300018BF01207047012803D1054B054A1B78C3
:101F4000F4E70020704700BFFC1A0002FE1A0002EE
:101F5000FD1A0002FF1A000238B9094A137801334A
:101F6000DBB21370074AD05C7047012808BF064AED
:101F70004FF0000002BF137801331370704700BFA9
:101F8000FE1A0002001B0002FF1A00027047FFFF4A
:101F9000044B1A68044B196891421ABF01201A6059
:101FA00000207047081D0002241D0002014B186824
:101FB000704700BF301D000270B5284B284C1968CF
:101FC000226801F58030002A186017DD013A1030D0
:101FD000226018605A88234C12F008020CD0266840
:101FE00056B92149214B0D6821487DB10E60214928
:101FF0000968196032230360226070BDEAD001F5E0
:102000007F410132F03122601960E3E71968013144
:1020100019604EF65F211E688E42016888BF1D6000
:1020200011B101390160E7E764201D68B5FBF0F1EB
:1020300000FB11510029DFD10F4801680131016017
:102040004FF47A711868B0FBF1F301FB1303002B16
:10205000D2D10A490B6801330B60CDE7141D000291
:10206000101D00021C1D00022C1D0002301D00026C
:10207000201D0002341D0002081D00020C1D00027C
:10208000022873B50D462FD024D801283FD0474AE7
:10209000474B1168186888421AD012681A60454A7E
:1020A00013680133B3F5966F136088BF2B68424AFB
:1020B00084BF23F002032B6013680133C72B6ED853
:1020C0001360FFF787FEAA223C4B9A6055229A6064
:1020D00002B070BD032813D02028D8D15522374B29
:1020E0009A60AA229A60D2E7FFF732FD3F28CED04D
:1020F000286840F001002860C0B2FFF72FFDC6E756
:10210000086820F00100086000F0FE00F5E72C4BA5
:102110002C4E1B8833602C4B34681B68ADF8004094
:10212000ADF80230A4B29BB2E41A284B9C4220DAEC
:1021300004F56A4460346B4600210822C0200194F3
:10214000FFF73AFD84EAE473A3EBE473642B2049C0
:102150002B6816DD23F0020301202B600023326878
:102160000B601E3232601B4A10600022114B1A6055
:102170008DE747F22F539C42C4BFA4F56A44603CEC
:10218000D9E743F002032B606FF005039C42B8BF10
:102190001C46062CA8BF062424040C60E5E7002397
:1021A00028781360FFF7DAFC8BE700BF081D0002F8
:1021B000281D0002381D0002181D000200C0024048
:1021C000791D0002341D0002301D0002D08AFFFF7D
:1021D000101D00022C1D00023F2830B50A4A0B4D8D
:1021E00003D1CE232B7000230BE00A23B0FBF3F1C5
:1021F00003FB1103064CDBB2E35C09282B70F2D918
:10220000635C137030BD00BF641D00022500000236
:1022100058380100014B1878704700BF541D000268
:10222000034B1B68092B9CBF024B1870704700BF03
:10223000681D0002541D0002024B01381870024B49
:1022400019607047551D0002501D000210222849D8
:102250004FF0E0530A6020224FF000600A6003F55F
:10226000085210604FF0007010604FF480600860FA
:102270004FF400401060082008604FF0805111605A
:102280004FF0806111604FF48031A2F5FE72C2F808
:10229000FC11116803F5005341F010011160116841
:1022A00041F020011160196841F00061196019685E
:1022B00041F000711960116841F480611160196882
:1022C00041F4004119601168014311601A6842F03D
:1022D00080521A601A6842F080621A601A6842F4EA
:1022E00080321A601A6842F480421A60704700BF58
:1022F0000422001C714AF8B513680133B3F5A07FBE
:102300000CD213606E4A136801332F2B136064D90B
:10231000002313606B4B4FF4804284E000200127C0
:10232000694B10601F60FFF72FF8684E684D694CCD
:10233000D8B93846FFF728F8B8B93368F92B9CBFED
:10234000DB1933603368632B08D1634A138843F089
:102350001003138000232B602360D3E7F92BF9D1FE
:102360005D4A138843F02003F3E700203060FFF755
:102370000BF8E0B92B68632B08D80133632B2B6073
:1023800004D1554A138843F0020313800120FEF75D
:10239000FBFF2368B8B9632BB4D80133632B2360E8
:1023A000B0D14D4A138843F008031380AAE72B6885
:1023B000033B5F2B9FBF484A138843F00103138000
:1023C00000232B60E2E7033B5F2B9FBF424A138849
:1023D00043F0040313800023BEE7012B25D13F4BBC
:1023E0004FF0E0521B78DB43DBB2D90982F82410AE
:1023F000C3F3801182F82510C3F34011D176C3F3E3
:1024000000115176C3F3C00182F82A10C3F3800192
:10241000D173C3F3400103F0010382F82310137753
:10242000284B4FF080621A60F8BD102B01D12C4B65
:10243000F7E7112B24D12B4B4FF0E0521B78DB43F5
:10244000DBB2D90982F82410C3F3801182F8251079
:10245000C3F34011D176C3F300115176C3F3C00129
:1024600082F82A10C3F38001D173C3F3400103F053
:10247000010382F823101377124B4FF48032D2E716
:10248000202B01D1164BF8E7212BCDD1164B4FF065
:10249000E0521B78DB43DBB203F0010182F8241029
:1024A000C3F3400182F82510C3F38001C3F3C003D6
:1024B000D17382F823300A4B2DE700BF401D000284
:1024C0003C1D00028022001C701D0002581D0002ED
:1024D0005C1D0002601D00024C1D00022500000270
:1024E0000022001C641D0002651D00022DE9F84356
:1024F0009A4B88461A681AB900263046BDE8F88318
:102500000025974C1D60236801332360954B1E689E
:10251000002E35D09449721E0E681A600EB91E60E6
:10252000EBE792490B681BBBFF20914C2070914C4C
:1025300020703F249048047050070FD101330B6086
:102540008C498B4C087880280CBF012323784FEAF4
:1025500040001CBF5B00DBB22370087012F00F0656
:10256000CAD1854A1378002BC6D05B081370C4E724
:10257000082BE1D101247F4804707D480570DBE71A
:102580007E4B1A881D4612F0200F02D01E800226B4
:10259000B3E77B4F3B68002B36D12B88D9060AD591
:1025A000784B1B783BB10A233B60774B2E80187029
:1025B000764B26601E602B8803F00A0343B101228C
:1025C00000233A60704A2B801070704A23601360B9
:1025D0006F4B1B6823B16F4A12789A5C664B1A7076
:1025E000614BD3F80090B9F1020F42D0FFF7F4FD30
:1025F000B9F1010F3DD1236813F0010F04D000237E
:102600005B4A13705B4A13703868012855D15F4BE1
:102610001A6801321A602A8852070ED52A885A4948
:1026200022F004021204120C2A800A780132D2B27B
:102630003F2A25D9087000221A602A8812F0010268
:1026400027D02A88504922F001021204120C2A8055
:102650000A78013A12F0FF0217D13F220A700022D5
:102660001A602368132B1BD9474B1878FFF7B4FD6A
:102670001BE0B8F1010FC7D1236813F0800FBDE74D
:10268000202A88BF3F220A70D5E73E2A08BF2022B1
:10269000E4E71968B429E4D91A60022322603B6098
:1026A0000023334A1370334A13702368590741BF1C
:1026B000304A137843F0010313703B68022B0FD1AB
:1026C000314B1878FFF788FD2368132B4FF0000378
:1026D00003D8274A1370274A48E73B6001260CE7D6
:1026E0000A2B66D1294B1A6801321A602A885207D0
:1026F00014D52A88274922F004021204120C2A80D9
:1027000020480A7800780132D2B20A7090424FF025
:10271000000238BF0A701A60042222602A8812F070
:1027200001023CD02A881B4922F001021204120C3B
:102730002A800A7882BB134A12780A7000221A6033
:1027400004232360124B1B68002B3FF4D5AE114AC3
:1027500012789A5C084B1A70CEE600BF701D00021A
:10276000441D000228000002481D00026C1D0002EA
:10277000641D000225000002651D00024C1D0002C0
:10278000681D0002551D000224000002741D000295
:10279000501D0002541D0002013AD2B2CDE7196863
:1027A000B4290ED91A600B2322603B600022074B2C
:1027B0001A703B680B2B7FF49FAE002303263B600F
:1027C0009BE623685B07F1D5BCE700BF651D0002EF
:1027D000014B1878704700BF2400000208B500F0D4
:1027E000D3F8014B186008BD841D000210F00300EF
:1027F00004D0012804D1034B186870470248704781
:1028000000207047D4370100001BB700024BD3F8FB
:10281000A000FFF7EBBF00BF0040074008B5054B25
:10282000D3F89821FFF7F2FF02F03F0202FB00000D
:1028300008BD00BF00400740084BD3F88030DBB232
:10284000012B05D03BB1022B054818BF0020704773
:10285000044B186870470448704700BF00400740A9
:10286000D8AC0700D4370100001BB7000A4BD3F8DF
:102870008430DBB2032B0CD8DFE803F00204060837
:10288000FFF7DABFFFF7C2BFFFF7C8BF034B1868F7
:1028900070470020704700BF00400740D837010054
:1028A000032898BF0022064B85BF0438C0B2C3F886
:1028B0008000C3F8840098BFC3F88420704700BF2D
:1028C00000400740044BD3F8843013F0FF0F01D1D0
:1028D000FFF7B2BFFFF7CABF004007401F28094AF1
:1028E0004FF0010307D9D2F8C810203883400B43BA
:1028F000C2F8C8307047D2F8C41083400B43C2F806
:10290000C43070470040074010B50C4CD4F8D010CC
:1029100091B1FFF7D7FFD4F82821B0FBF1F1D3B282
:10292000FF2B09D1C2F30722080202F580720023AF
:10293000090E00F08EF90146084610BD0040074020
:1029400038B50446FFF7BEFFA0422CBFB0FBF4F23F
:1029500001220C4DD3B2C5F8D03081B16243811A47
:1029600008020023090E00F074F9000280B240F062
:10297000FF00C5F82801BDE83840FFF7C5BFC5F81E
:102980002811F8E70040074008B5FFF79BFF034B0D
:10299000D3F8C030B0FBF3F008BD00BF00400740E3
:1029A00000B53D238BB0CDE902124FF47A72CDE928
:1029B0000030074B68461B6805A9B3FBF2F304938C
:1029C000044B98479DF814000BB05DF804FB00BF62
:1029D000841D00020502000300B53E238BB0CDE943
:1029E00002124FF47A72CDE90030074B68461B683B
:1029F00005A9B3FBF2F30493044B98479DF8140028
:102A00000BB05DF804FB00BF841D0002050200034B
:102A100008B50E20FFF762FF0F20FFF75FFF1020C1
:102A2000FFF75CFF0B20FFF759FF0B2000F092F837
:102A3000BDE808400B2000F09FB810B501248900C4
:102A4000084404FA02F200F500501BB103681A436F
:102A5000026010BD036823EA0202F9E730B501EB1A
:102A60008202914200D130BD0D784B784C8803EB47
:102A7000451340F823400431F3E710B50C46FFF747
:102A800083FFB0FBF4F0013810BD026810B512F0FE
:102A9000010205D0036823F043031B051B0D0360EF
:102AA0008C784B7823430C7823434C682343036092
:102AB0000B894362BC2383601AB1036843F00103AE
:102AC000036010BD08B50B4B98420AD12A20FFF7CE
:102AD00005FF2A2000F03EF82A20BDE8084000F05B
:102AE0004BB82920FFF7FAFE292000F033F82920FF
:102AF000F3E700BF00C004400B7803F00F0343600E
:102B00004B7842681B01DBB2134343608B78426809
:102B10001B0203F4706313434360CB782BB1013B7A
:102B200042681B039BB213434360704710B5FF24F8
:102B300000F00F030009800000F1804000F56030D4
:102B4000DB0002689C4022EA0402994011430160C4
:102B500010BDFFFF1F28074A4FF0010305D9916CF4
:102B6000203883400B4393647047516C83400B4380
:102B700053647047004007401F28084A4FF0010384
:102B800006D9916C2038834021EA0303936470478F
:102B9000516C834021EA03035364704700400740AF
:102BA000054AD2F80832184320F07E4020F0870012
:102BB000C2F80802704700BF00400740054A0649B6
:102BC000D2F80832084023EA00030B40C2F808326A
:102BD000704700BF0040074078FFFF0138B5124D35
:102BE0000446A84210D01148844214BF332032203A
:102BF000FFF774FEAC4209D13120FFF7ABFF312063
:102C0000BDE83840FFF7B8BF3120F1E7074B9C42E1
:102C100004D13220FFF79EFF3220F1E73320FFF787
:102C200099FF3320ECE700BF00000440004004405F
:102C300038B50C460546FFF767FE2401B0FBF4F4F7
:102C4000013C2C6238BD00F085BD00F09DBDFEF753
:102C500077B95FF0000C30B51C0022D112006FD0A4
:102C6000914206D305460846002100F06FF804465D
:102C7000284600F06BF80A462146BDE830401CF0BB
:102C8000404F08BF704703D54942404261F10001FF
:102C90005FEA8C0C38BF70475B42524263F100031D
:102CA000704742D41C0C04BF1B040CF1100C13F031
:102CB0007F4F04BF1B020CF1080C13F0704F04BFD0
:102CC0001B010CF1040C13F0404F04BF0CF1020C7B
:102CD0005FEA83035CBF0CF1010C5B00CCF1200EBA
:102CE00022FA0EF4234302FA0CF200FA0CF520FA51
:102CF0000EF001FA0CF4204321FA0EF114461A46A4
:102D000000F024F8A4FB0023AA1A71EB03033CBFD4
:102D10001B190138CCF1200E22FA0CF203FA0EF442
:102D2000224323FA0CF30021A7E7821A71EB030375
:102D30003CBF02460B464FF0000141F100009CE70A
:102D400000200021BDE8304000F03DB80423B1EB85
:102D5000122F09D2090241EA10610002013B08BFAB
:102D60007047B1EB122FF5D30018494134BF91429F
:102D7000891A4041494134BF9142891A4041494131
:102D800034BF9142891A4041494134BF9142891A66
:102D90004041494134BF9142891A4041494134BFC1
:102DA0009142891A4041494134BF9142891A4041B8
:102DB000494134BF9142891A4041A3F1010313F004
:102DC0000F0FD2D1704770472DE9F04781EA030415
:102DD000C1F30A5640F2FF7704F0004436B1BE4218
:102DE00004D0C3F30A550DB1BD4207D1490011F516
:102DF000001F58D35BD00020344946E0C1F31301D3
:102E00004FEAC22841F480113544A1FB08674FEA1C
:102E1000525CB6463A46A8FB00674FF00009B84638
:102E20004CEAC32343F0004C00234FF0000AE0FBC0
:102E30000C89ECFB012318EB0E0149EB0A0A12EB9B
:102E40000A0843F10009B9F5801F41EA96011ED234
:102E500018EB080649EB0900814646EAD178A5F54A
:102E600080654900C80F18EB000249F10003B1F179
:102E7000004F40F2FD71164608BF22F001068D4258
:102E800008D830461C4304EB0551BDE8F087A5F295
:102E9000FF35E7E7002D03DB44F0FF4444F4E00492
:102EA00000202146F1E75A0012F5001FF8D3084A26
:102EB0005B0093429FD811424FF000009CD0134218
:102EC0009AD044F0FF4141F4E001DEE70000F87FD2
:102ED0000000E0FF2DE9F043C1F30A5540F2FF7C0A
:102EE00081EA030635B1654504D0C3F30A540CB139
:102EF000644506D1454A480090425BD900204449C8
:102F000056E0A5EB040C440D44EAC12141F0004514
:102F1000510D41EAC32141F000494D454FEAC0241B
:102F20004FEAC22808BF444521BF630843EAC5737E
:102F30006A081C4628BF15464FF000034FF03502C3
:102F40004FEA580034BF0CF2FD3C0CF2FE3C40EA64
:102F5000C9704FEA59018D4208BF84424FEA4303CA
:102F600004D3241A65EB010543F0010324196D41D4
:102F7000212A08BF1F46013AEDD18D4208BF844285
:102F800002D3013308BF013740F2FD718C4506F0D2
:102F9000004204D802EB0C52D119184608E0BCF1EB
:102FA000000FA4BF42F0FF4242F4E00200201146AD
:102FB000BDE8F0835C0014F5001F9FD8194312EAA6
:102FC000410301D11249E8E710EA020506F0004387
:102FD00002D119462846EBE7224005D143F0FF41D4
:102FE00041F4E0011046E3E714F5001F05D043F07B
:102FF000FF41002041F4E001DAE710F5001F4FF037
:1030000000003FF47CAF1946D2E700BF0000E0FFAC
:103010000000F87F944691EA0302F0B405460E469C
:1030200006D503F100452B46F0BC624600F0C6B859
:10303000994203D3604508D8994206D102F1004273
:10304000564053402A466546944640F2FF71370D7C
:1030500027F40062180D8A42A7EB000400F0A0805C
:10306000944200F09980C6F31302C3F313031F2C9C
:1030700042F4801143F480134FD823FA04F2891AE2
:1030800000F12002D21B93402CFA04F41C432C1BA9
:1030900038BF01F1FF311CFA02F3254603D05B4231
:1030A000651E04B9013911F4C01F54D1EA0FDB0FBA
:1030B00042EA410243EA450352EA03046DD0BC1ED2
:1030C000510B24D0510C01BF190F41EA02121B0110
:1030D000043CD10C01BF990F41EA82029B00023CE3
:1030E000110D02BFD90F41EA420204F1FF344FEA49
:1030F000D67108BF5B00B1EBD42F4FF0000006BFC4
:10310000184602EB045106F00041F0BC7047190E5E
:1031100041EA02221B02083CD2E7352C1BD8203C96
:1031200023FA04F2AA1AC4F1200003FA00F338BF0C
:1031300001F1FF312CFA04F45FEA0C60154643EA12
:10314000040306D043F0FF035B42551E1AB9013950
:1031500001E0002BF8D1CA0209D4013F7A050FD053
:10316000EA0F42EA4101DA0F42EA45055B00002B13
:1031700021F480124FEA075405DB11192846C4E7F1
:1031800039051046C1E7013508BF0132B3F1004FE0
:1031900008BF25F00105F0E75CB921462046B4E7F9
:1031A00033034FF0000001D00349AEE70CB90249E8
:1031B000F4E73146E2E700BF0000F87F91EA030F31
:1031C000F0B405460E4605D503F100452B46F0BC8C
:1031D000FFF720BF994238BF1E4640F2FF7C3EBF3A
:1031E0000B4615460246300D20F40067190D674561
:1031F000A0EB01045CD0BC4255D0C6F31307C3F367
:1032000013031F2C47F4801743F4801327D8203171
:10321000091A23FA04FC22FA04F48B402343ED1824
:10322000674428BF013702FA01F3BA022BD50135F2
:1032300008BF01370BB925F00205360D360506EB40
:103240005706730013F5001F2BBF421C31460020A8
:10325000FF0734BF47EA55001105F0BC7047352C15
:10326000E3D8203C23FA04F16D18C4F1200103FADD
:1032700001F322FA04F428BF01372343120618BFD2
:1032800043F0FF03D1E7002B00F1FF3207DA0135ED
:1032900008BF0137B3F1004F08BF25F0010507EB68
:1032A00002512846D9E74CB906F000412046D4E740
:1032B00033034FF0000001D00149CEE73146F0E77B
:1032C0000000F87F21F0004230B502F1474505F5D6
:1032D0007005B5F17E6F01F000440FD202F1484352
:1032E000420FC10042EAC30202EBD173B1F1004FB9
:1032F00008BF23F001031C43204630BD002DFBDB3B
:10330000490011F5001F94BF44F0FF44004CF3E75F
:103310000000C07F20B90346024610461946704798
:10332000030C0CBF000401F18071030E0CBF0002FE
:1033300001F50001030F0CBF000101F58001830FAF
:103340000CBF800001F500110028ACBF400001F562
:10335000801101EBE0234205DFE700F00041002887
:1033600001F18041B8BF4042FFF7D4BFC0F3C7525C
:1033700030B581EA000332B1FF2A04D0C1F3C7544B
:103380000CB1FF2C11D14000B0F17F4F3AD340D1A6
:103390004900B1F17F4F3CD810F07F4F39D011F088
:1033A0007F4F36D003F0004029E022440902040296
:1033B00041F0004144F00044A4FB01452946002DA2
:1033C000A8BF690003F0004040EA11234FEA016101
:1033D000B4BF7F3A803AB1F1004F03EBC25304D03F
:1033E000FD2A02D803EBD17030BD01330CB923F0B4
:1033F0000103FD2A01D81846F6E7002AF4DB40F065
:10340000FF40F1E74A00B2F17F4FC1D203F0004024
:10341000EAE70148E8E700BF0000C07F30B5C0F32D
:10342000C75580EA010335B1FF2D04D0C1F3C7525F
:103430000AB1FF2A05D14200B2F17F4F32D92548A7
:1034400012E00402090244F0004441F000418C42C1
:10345000A5EB020532BF7D357E356408FD2D04D90C
:10346000002D03F000402EDA30BD090AB4FBF1F262
:1034700001FB1244D80F240202EBC030B4FBF1F27E
:1034800001FB12442402B4FBF1F301FB134402EBF1
:10349000002003EB002000EBC550A1EB440100EB42
:1034A000D170E1E74C00B4F17F4FC8D80843400029
:1034B00010F07F4FC3D012F07F4F03F00040D3D005
:1034C000B4F17F4F02D040F0FF40CDE7B2F17F4F23
:1034D000B5D0C9E70000C07F90EA010230B40346CE
:1034E00004D530BC01F1004100F068B888423CBF0F
:1034F00002F1004253404FEAD35038BF5140C2B2AC
:10350000CC0DFF2AA0EB04054DD0954247D009020F
:103510001A0241F0004142F0004221FA05F5521B27
:1035200013D502F100428032C30503EB12231206C9
:1035300008D12034201A11FA00F20CBF23F0010345
:1035400003F1FF33184630BC70475200002A18DAE6
:10355000DB0D8032DB0503EB2223120600F0FE05B3
:1035600001D0002DEED12034201A11FA00F20CBF48
:1035700023F0010303F1FF33002DE3D103F00043F7
:10358000E0E716D0B2FA82F10238401AC00593EA99
:10359000000FF3D402FA01F300EB1323D2E7002D5E
:1035A00008BF0023CEE75A0201D1002DCAD1024B39
:1035B000C8E70023C6E700BF0000C07F90EA010F04
:1035C00070B4034604D570BC01F10041FFF784BF1D
:1035D00088423EBF02460B461146DD0DEAB2CC0DD5
:1035E000FF2AA5EB040039D0904232D009021A021A
:1035F00041F0004142F0004221FA00F012180AD2D4
:1036000002F100428032E80500EB1223120618D0C6
:1036100070BC18467047681C02F58072C60506EB40
:103620005223D205C0B201D0FF28F1D12034651B4E
:1036300011FA05F208BF23F00103FF2808BF334643
:10364000E6E72034651B11FA05F2E1D123F001030E
:10365000DEE70028DCD103F00043D9E75A0218BFA7
:10366000004BD5E70000C07F78B1B0FA80F200FAD5
:1036700002F3C2F11F00803301EBC05000EB2320A6
:103680001B0603D120F0010070470020704700F0B6
:103690000041002801F18041B8BF4042FFF7E4BF7C
:1036A0004FF08041FFF7E0BFC31013F07F610AD0F5
:1036B000B1F17F6F4FEA407243F0E04308D003F16D
:1036C00048411046704703F00043002019467047F8
:1036D00052EA0332014A18BF1346F6E70000F87FAA
:1036E00050EA010308D44B00B3F17F4F13D888424E
:1036F0002CBF0020012070474200B2F17F4F0AD852
:103700004A00B2F17F4F06D8884204D913F1004035
:1037100018BF012070470020704750EA01034FEAAC
:10372000400207D4B2F17F4F12D8884294BF0020E4
:1037300001207047B2F17F4F0AD84A00B2F17F4FA3
:1037400006D8884204D213F1004018BF0120704708
:103750000020704740EA0103DB0703460CD4034610
:10376000043A22BF51F804CB43F804CBB2F104026F
:10377000F7D2043208BF7047013A24BF11F801CBD9
:1037800003F801CBF8D87047034613F0030F0ED1AE
:1037900001F0FF0141EA012141EA0141043A24BF5D
:1037A00043F8041BB2F10402F9D202F10402013A17
:1037B00024BF03F8011BFAE770474044657669634C
:1037C0006549644003405265766973696F6E4004D1
:1037D00000FFFFFF001BB700008000000104800015
:1037E00001058000001B800000198000010A800094
:1037F000000F800001038000001C8000001080008A
:10380000001A8000001E900000099000000D80004A
:1038100000128000000B8000001F8000010080006B
:10382000000180000003800000058000000280008D
:10383000625861F8016800905002521851085328EC
:103840000000000000000F40900700021800000276
:103850000000000000000000FC60DAF266B6BEE086
:0C386000FEF6EE3E9C7A9E8ECEFFFFFF2F
:10386C00A0000000030400010A100204080305096B
:10387C000100000001000000351901007919010058
:0C388C0089190100FF01FFFFFA00000095
:04000003100005479D
:00000001FF
