:020000021000EC
:1004000000900002470501001105010013050100DD
:100410001505010017050100190501005051F9FDEE
:100420000000000000000000000000001B050100AB
:100430001D050100000000001F050100090C01005E
:100440002305010023050100230501002305010008
:1004500023050100230501002305010023050100F8
:1004600023050100230501002305010023050100E8
:1004700023050100230501002305010023050100D8
:1004800023050100230501002305010023050100C8
:1004900023050100230501002305010023050100B8
:1004A000230501002305010023050100AD1701000C
:1004B0002305010023050100230501002305010098
:1004C0002305010023050100230501002305010088
:1004D0002305010023050100230501002305010078
:1004E0002305010023050100230501002305010068
:1004F000230501002305010023050100E83C01005C
:10050000000000023000000030000002082E000051
:10051000FEE7FEE7FEE7FEE7FEE7FEE7FEE7FEE7B3
:10052000FEE7FEE7002310B5934200D310BD1C5830
:100530005C500433F8E700231A468B4200D370471F
:100540001A500433F9E738B50E4C0F4DAC420AD3BC
:100550000E4DAC420FD301220D4B1A6000F008FE85
:1005600002F00DFDFEE7D4E900010C3454F8042C30
:10057000FFF7D8FFEAE754F8080B54F8041CFFF71C
:10058000DAFFE6E7FC0401000805010010050100A0
:10059000D8400740FFFFFFFFFFFFFFFFFFFFFFFF08
:1005A000FFFFFFFFFFFFFFFFFFFFFFFFFFFFFFFF5B
:1005B000FFFFFFFFFFFFFFFFFFFFFFFFFFFFFFFF4B
:1005C000FFFFFFFFFFFFFFFFFFFFFFFFFFFFFFFF3B
:1005D000FFFFFFFFFFFFFFFFFFFFFFFFFFFFFFFF2B
:1005E000FFFFFFFFFFFFFFFFFFFFFFFFFFFFFFFF1B
:1005F000FFFFFFFFFFFFFFFFFFFFFFFFFFFFFFFF0B
:10060000FFFFFFFFFFFFFFFFFFFFFFFFFFFFFFFFFA
:10061000FFFFFFFFFFFFFFFFFFFFFFFFFFFFFFFFEA
:10062000FFFFFFFFFFFFFFFFFFFFFFFFFFFFFFFFDA
:10063000FFFFFFFFFFFFFFFFFFFFFFFFFFFFFFFFCA
:10064000FFFFFFFFFFFFFFFFFFFFFFFFFFFFFFFFBA
:10065000FFFFFFFFFFFFFFFFFFFFFFFFFFFFFFFFAA
:10066000FFFFFFFFFFFFFFFFFFFFFFFFFFFFFFFF9A
:10067000FFFFFFFFFFFFFFFFFFFFFFFFFFFFFFFF8A
:10068000FFFFFFFFFFFFFFFFFFFFFFFFFFFFFFFF7A
:10069000FFFFFFFFFFFFFFFFFFFFFFFFFFFFFFFF6A
:1006A000FFFFFFFFFFFFFFFFFFFFFFFFFFFFFFFF5A
:1006B000FFFFFFFFFFFFFFFFFFFFFFFFFFFFFFFF4A
:1006C000FFFFFFFFFFFFFFFFFFFFFFFFFFFFFFFF3A
:1006D000FFFFFFFFFFFFFFFFFFFFFFFFFFFFFFFF2A
:1006E000FFFFFFFFFFFFFFFFFFFFFFFFFFFFFFFF1A
:1006F000FFFFFFFFFFFFFFFFFFFFFFFFFFFFFFFF0A
:100700001B4BF0B5596818691A46814202D3DB6861
:1007100098422AD9174CA668B50716D5814214D23B
:10072000136833F81170431E99421CD1137E55692A
:10073000013B1B0603F0706305F470252B433B431C
:1007400043F44013A36101315160F30709D5D36825
:10075000984206D907494869916821F81300013386
:10076000D360012002E0E761EDE70020F0BD00BFAB
:100770003000000200C00440BC230C480C4A8360D7
:100780005169137E21F07041013B21F400011B06E9
:10079000090C03F0706309040B4343F40013036274
:1007A0000023D3605360FFF7ABBF00BF00C004401D
:1007B000300000022DE9F0434E4C85B0204602F097
:1007C000C2FA2368012543F4003323604FF0020985
:1007D00003234FF0FF364FF4805841F20107A4F88D
:1007E0000031A4F80032A4F80451A4F80452C4F86B
:1007F0002495C4F82055A388932023F004031B04F8
:100800001B0CA380C4F80063C4F80483C4F8086315
:10081000C4F80C73A4F5004402F011FB204602F06A
:1008200092FA23688A2043F400332B432360324B2F
:10083000C4F80031C4F80032304BC4F80431C4F8B5
:100840000432C4F81C95C4F81855A38823F0040397
:100850001B041B0CA380C4F80063C4F80483C4F811
:100860000863C4F80C730427254C02F0FAFA2046FA
:1008700002F09EFA23492046ADF8047002F073FAA4
:100880000026ADF80C000DEB070120468DF8066040
:10089000029602F070FA1C4B69462046009302F063
:1008A000A1FA23684FF000502B4323604FF0E05330
:1008B00003F500521168154C41F00051116003F529
:1008C00008510860124803F50A5301682943016082
:1008D000104920460D601168394311601F601C22C9
:1008E000314602F04AFB0C4B23600C4BA36005B071
:1008F000BDE8F0830040021C3F0D030020BF020052
:1009000000C0044000093D00000101003000000269
:100910000420001C0422001C04080002D807000266
:10092000782208B5084B02FB00320023184652F823
:10093000041B01331E2B0844F9D102F0E1FF0349E7
:1009400002F032FE08BD00BF4C00000256B30A3070
:1009500070B5FFF7D5FE00280BDC6A4A1368154610
:10096000002B07DA6849086818B1002001330860D5
:10097000136070BD654C2368052BFAD8DFE803F0DF
:10098000031F35648DA08A2002F06BFA0422604BAD
:1009900002261A605F4B1A685F4B42F060011980B3
:1009A0005E498A5C5A8008225D4B1A834FF44022CC
:1009B000C3E90462FFF7E0FE01232360D9E7554A4B
:1009C00013680133062B0DD9002313600422554B05
:1009D0008A201A6002F033FA022323606FF00E03BC
:1009E0002B60C6E713600023E7E74FF0E053DA79A6
:1009F000A2B9DB7803F0FF0283B9474B4FF44051B3
:100A00005A809A8010221980454B03261A834FF48E
:100A10006022C3E90462FFF7AFFE26604FF6FF7263
:100A2000414B1968914204BF00221A60364B08BF3F
:100A30002A601A68002A9CD000221A602B680133B1
:100A4000052B2B60CFDC94E7384B5A8899881B889C
:100A500041EA0241090A0D0248BF41F07F4113F00B
:100A60001F0215D13248036801331D2B88BF13467E
:100A7000036001232C48934005682B4303601E202C
:100A80002B4B1B6800FB02322A4B43F8221002E07A
:100A900013F0180FEDD004238FE74FF440521E4B94
:100AA00003201A8000225A809A8010221C4B1A833D
:100AB0004FF45022C3E90402FFF75EFE05237CE7F2
:100AC0001A4B59889A881B8842EA0142120A11027D
:100AD00048BF42F07F4213F0180F10D10121124895
:100AE00003F01F03056808339940294301601E2065
:100AF0000F49096800FB03130E4941F82320022324
:100B00005BE700BFD407000200080002FC070002F8
:100B10008022001CD007000204080002443A0100B1
:100B2000300000020022001CF8070002D807000273
:100B3000CC0700024C0000020122014B1A607047F2
:100B4000000800020022014B1A70704726080002BC
:100B50000B78042B03D1012A04BF014B1A70704794
:100B6000282E000238B5234D234C002001F0C0F898
:100B700000B938BD002001F0D5F82A7803461118D5
:100B80002970217804290CD8DFE801F00309101B33
:100B90002800312BE9D101222B702270E5E7412B8F
:100BA00001D0002300E002232370DEE7134A14493A
:100BB00013700022F02B0A7001D80323F4E722708F
:100BC000D3E70F4801784A1CD2B202700D48435453
:100BD0000A4B1B789342C8D80423E5E700209A42C9
:100BE0002A702070C1D1054B06491A78FFF7B0FF73
:100BF000BBE700BF25080002260800021709000213
:100C0000240800022708000208B501F0BBF801F033
:100C10005FFCBDE8084000F0F1BFFFFFFFFFFFFFF2
:100C20002DE9F84FC44B01F0C7FE00F0A3FA0920EC
:100C300001F042FF092002F025F9092002F034F901
:100C400001F08AF801F00CF8FFF77CFF022001F0B8
:100C50004BFAFFF7AFFD01F0E7FB022000F0FAFED0
:100C600000F0C6FF0138B54B032800F24581DFE8EC
:100C700000F002080A0C012220209A7001F09AFA72
:100C800008E00222F8E70322F6E70422AC489A7053
:100C900001F080FA0124AB4D10220021284602F019
:100CA0006CF90821A84B042210202C7000F0C8FB1E
:100CB000204600F027FB0146044602F047FE90B1B3
:100CC000204602F027FE98A3D3E9002306460F46EC
:100CD00002F041FC38B996A3D3E9002330463946E7
:100CE00002F010FC88B10021002000F0FBFA4FF068
:100CF0007E51012000F0F6FA0021022000F0F2FA05
:100D00004FF07E51032000F0EDFA01F02BFF4FF47D
:100D10007A53B0FBF3F00138B0F1807F09D2E021C3
:100D20008A4B8B4A586082F8231000229A6007226F
:100D30001A602022864B83F82320864C864EFFF7CC
:100D400011FF01F005FAFFF703FE00F0BBFE0728D4
:100D5000074600F0D3800C2800F0DA8021463846A0
:100D600001F074F8384600F087FB2168C94301F0B0
:100D7000010700F0D3FD394601F0A6FCC0B20128FE
:100D800000F0CB80022800F0FD8000F0E7FF002893
:100D90006ED0FFF7D1FE01F013FA002001F0CCF97C
:100DA0006860012001F0C8F9A860002001F0CAF9CC
:100DB000DFF8C481694FC8F80000012001F0C2F9D2
:100DC000386000F0ABFDDFF8B49199F80030834251
:100DD0000BD000F0A3FD89F80000206820F001008E
:100DE000206000F0FE0000F09FFD2368D8073FD58B
:100DF00000F0C2FF4FF00009DFF868A1DFF86CB126
:100E0000CAF800004846FFF78BFD09F10109B9F166
:100E1000100F4BF8040BF5D101233360504B1B68C6
:100E2000990725D50323DFF858911120A9F804303C
:100E3000DAF800304946A9F806306B68C9F8003086
:100E400000F0D8FDD8F8003049461220C9F800302B
:100E500000F0D0FDAB6849461320C9F8003000F01F
:100E6000C9FD3B6849461420C9F8003000F0C2FDB6
:100E7000D6F80080B8F1000F3FF461AF4FF00009E1
:100E8000384B394C1B6808F1FF32E380374B84F84C
:100E90000590374953F8220002F086FBB8F1080F9D
:100EA000074676D8484600F02DFA0146384602F04B
:100EB00031FC0746012000F025FA0146384602F0D1
:100EC00073FBD6F800A007460AF1FF3320600F2B12
:100ED00000F20E81DFE813F06700670067006B0027
:100EE000E400F7000A010A010A010A01F700E40020
:100EF0006B006700670067000022BDE6207800F005
:100F000013FD0E4B06220021882000F03BFD25E753
:100F1000184B1A78124B1A6020E701F047FD00F0D9
:100F2000DFFC32E7AFF300809A9999999999F13FE4
:100F3000CDCCCCCCCCCCEC3F903A010000000002F0
:100F40003EC32E3BF01500025C09000210E000E0F9
:100F500000ED00E000160002041600020C1600026C
:100F60005809000210160002E815000218090002D4
:100F700000007A44292E000208160002DC15000247
:100F8000E01500023F2000F0ABFC012000F080FDE6
:100F9000FBE6022000F0B6F90146384602F0BAFB43
:100FA0000746032087E7684BD3F800801CE0674BB7
:100FB000186802F0AFFC56A3D3E9002302F09CF8B6
:100FC000614B80461868894602F0A4FC52A3D3E91D
:100FD000002302F091F802460B464046494602F0D3
:100FE000E5F902F067FA80465949384602F0DAFC22
:100FF00018B1637943F001036371404601F03AF898
:10100000216802F0F9FB206000F0CCFF514BDFF8C3
:101010005C9153F82AA020600AF1FF38014683460C
:1010200059F8280002F0E8FB4B4B49F828001A68F1
:10103000520760D50522276022714849504600F0CA
:10104000D9FC454B1B68DB0718D5454B1B68132B98
:1010500014D159F8280002F05DFC31A3D3E9002334
:1010600002F04AF802F026FA032320603B4950467A
:10107000237100F0B9FC002349F8283033680133AC
:10108000102B33607FF659AE0021364B344A19607D
:1010900013680133132B13607FF64FAE11604CE6DB
:1010A0002A4B186802F036FC1FA3D3E9002302F094
:1010B00023F8254B80461868894602F02BFC1CA3B8
:1010C000D3E9002385E7214B186802F023FC1AA31B
:1010D000D3E9002302F010F81B4B804618688946BC
:1010E00002F018FC16A3D3E9002372E7174B5BE765
:1010F0004FF0000878E71C4A5946404600F008F9CE
:1011000003212060404600F081F9207195E700BF7F
:10111000EC51B81E85EBD13F0AD7A3703D0AE73FDB
:101120009A9999999999A93FEC51B81E85EBE13F9D
:10113000295C8FC2F528DC3F8FC2F5285C8FEA3F1F
:10114000C3F5285C8FC2C53F0C16000208160002CA
:1011500000008C424C3A010058090002E8150002D8
:101160005416000204160002ED15000214160002C7
:1011700000F078B84FF0E05001F038BD30B94FF0D2
:10118000E053187B003018BF01207047012804D1BC
:101190004FF0E05393F82200F4E701207047FFFF7F
:1011A00038B50D2001F088FC0C2001F085FC2A20C8
:1011B00001F082FC0D2001F065FE0D2001F074FEAF
:1011C00019220C490C4801F0AFFD00240B4D05EB32
:1011D00044035B7815F81400C3F34101C3F3C4035F
:1011E00003EB4111C9B2013401F016FE092CEED116
:1011F00038BD00BFB03A010000800F40143B010031
:1012000038B54FF4001001F071FE0123144C4FF477
:101210008000C4F8A03001F05BFE44234FF480004E
:10122000C4F8983101F062FED4F89C31DB07FBD59D
:101230000125C4F8C050D4F82431062023F44053CB
:1012400043F40053C4F8243101F018FC4FF40000BB
:1012500001F03EFEC4F8A450C4F8CC5038BD00BF25
:101260000040074008B5FFF79BFFFFF7C9FF0122C9
:10127000014BC3F8CC2008BD004007402DE9F047E2
:101280000024DFF85480DFF85490DFF854A0D8F839
:101290000030A34206DCBDE8F047F0220C491020E4
:1012A00001F088BCD9F80020DAF8007004FB02F6DF
:1012B000BD19294606F5807001F07CFC054B2A79A2
:1012C0001B6801349A42C2BF0023BB516B60DEE74A
:1012D000741600020C0000020800000270160002E2
:1012E0006C16000208B5064BF02243F82010194690
:1012F000102001F043FCBDE80840FFF7BFBF00BF6E
:1013000074160002014B53F8200070477416000257
:101310002DE9F84F3A4B17781B6807F0FD07834219
:101320000D469146177068DD364B1E68364B1C68BB
:1013300006FB00463379002B4FD0012B4FF0000401
:1013400026D9182206F1080B03F1FF3804F1010A2F
:1013500002FB0AF329465BF8030002F023FB002896
:101360003ED1C24554464FF01802EFDB3379013BC2
:10137000A3420DD1182303FB04632946986802F0A9
:10138000F4FA28B199F8003043F0020389F80030EC
:101390002946284602F008F90746182000FB046495
:1013A0003946284602F000F9216902F0FDF861692A
:1013B0000646384602F0F8F80146304602F01CFABC
:1013C000A1690646284602F0EFF80146304602F0D1
:1013D00013FAE16902F010FA05462846BDE8F88FD5
:1013E000002CC3D12946B06802F0DCFA0028BDD039
:1013F00047F0020789F80070B8E70025EDE700BF65
:1014000008000002701600026C160002094A03462A
:10141000126882420BDD084A08481268006802FB25
:1014200003031A791AB15B79002B18BF19460846D5
:10143000704700BF08000002701600026C16000220
:1014400010B4084C2260084A10BC1060074A1160B2
:10145000074A136018234B43064A08331360FFF70B
:101460000DBF00BF60160002080000020C00000261
:101470006C160002701600022DE9F74F0738072896
:1014800031D8DFE810F0330049000B01770030005D
:1014900030000800380000248E4D8F4F8F4E3B687F
:1014A000A34220DD55F8043B0522336000218B4B1D
:1014B0008D20347100F066FA0134F0E73968346841
:1014C0005143874B60186158541C196001790622FA
:1014D0001971417989205971E1B200F053FA22461D
:1014E0002B689342EADC03B0BDE8F08F00227D4D0B
:1014F0007D4E7E4FF4E77E4A13793B2BF3D812687A
:101500007449102041F82320F02201F037FB03B08A
:10151000BDE8F04FFFF7B2BE764D2B7853B3714A5A
:101520001268934226DC4FF00008704A013B1268B3
:10153000DFF8C8B102FB03FA6B4B6F4C1B6803EB7F
:101540000A09019309F10806DBF8003029784345C0
:1015500006F118062CDC019A614B52F80A2089200A
:101560001A6099F804201A7199F805205A71062218
:1015700000F008FA5F4B1A78002AB4D0594B1B6868
:101580009A42B0DC5A485D4B41791B689942AADA0D
:10159000564B013A1C68544B1B6804FB023302791A
:1015A000012A51D1182202FB013302689A609AE79E
:1015B00056F8183C5FFA88F723604FF001030622C3
:1015C00023718A204C4B677100F0DCF956F8143C0B
:1015D000062223600223297823718A20464B6771F3
:1015E00000F0D0F956F8043C062223600323297842
:1015F00023718A20404B677100F0C4F956F8083C0B
:10160000062223600423297823718A203A4B6771CC
:1016100000F0B8F956F80C3C06222360052329781F
:1016200023718A20344B677100F0ACF9062256F81A
:10163000103C297823608A202F4B2271677108F1B2
:10164000010800F09FF97FE7022A0ED0032A12D08A
:10165000042A17D0052A1BD0062A7FF444AF18228B
:1016600002FB013302681A613DE7182202FB0133D5
:101670000268DA6037E7182201FB0222134402688D
:101680005A6030E7182201FB0222016899502AE7CC
:10169000182202FB013302685A6124E7154B1878BF
:1016A00000283FF420AF0F4B1B6898423FF71BAF59
:1016B0000E4B01381A680C4B50431C680C4B211818
:1016C0001D6825501C7900F580700C715B794B7199
:1016D0001BE700BF741600026016000264170002C8
:1016E00058160002080000026C1600027016000274
:1016F000292E000269170002641600020C00000285
:10170000142110B50B4C0C4A236801FB03235874B9
:101710000A4B20681B6801FB00219B68084A1B6973
:1017200010689847236801332360236803F00F0390
:10173000236010BDC8200002881F000200020003C1
:10174000841F0002022802BF0022014B1A6070476A
:10175000D42A0002430742BF0122014B1A7070478E
:10176000D02000027FB50C4B00F03F001870012321
:101770008DF81530094B0A4A43EA80130193094B4F
:1017800001A90293084B10681B689B68DB689847A7
:1017900007B05DF804FB00BF6B1700020000502388
:1017A000841F0002C00FF80300020003034B044A29
:1017B0001B6810689B689B68184700BF0002000305
:1017C000841F000230B53B4D8DB006AC0FCD0FC469
:1017D00095E8030084E80300272001F06DF9272035
:1017E00001F050FB272001F05FFB8022324B0B21E0
:1017F000DA626220DA6701F00FFB1F21612001F03D
:101800000BFB2E4B2E4C0693042323602D4B1B7891
:1018100023B1022B10D042F2017301E04FF41C53AC
:1018200063600123284DA3602B6806A89B681B6892
:101830009847802803D9FEE742F20373F0E72B684C
:1018400006A99B6821485B68984708B130BFFDE74F
:10185000A3680024012B08BF4FF000621C4B01A9B4
:1018600008BF1A60E02283F81B231A4A1A4B8DF82E
:101870001540CDE90123144B144A1B6810689B687E
:10188000DB689847154B01220DF1030120461C60CF
:101890008DF8034001F08EF99DF80330013B3E2B9B
:1018A00084BF3F238DF803309DF80300FFF75AFFF4
:1018B0000DB030BD283B010000800F4084170002AE
:1018C000781700026A17000200020003841F00025A
:1018D00000E100E000005023C00FF803D42A00020A
:1018E00013B5012204468DF807000DF10701002011
:1018F00001F044F901220DF10701002001F05AF92D
:101900009DF807302046013B3E2B84BF3F238DF8D6
:101910000730FFF727FF02B010BDFFFF014B18781B
:10192000704700BF6B1700027FB5114B8DF8100098
:101930001B78104A9B0143F04D5343F4C3130193AA
:101940000023029340F20673ADF814300A4B01A94C
:101950001B6810680393094B1B788DF81130084BF6
:101960001B689B685B69984707B05DF804FB00BF84
:101970006B170002841F00026C1700027017000230
:10198000000200032DE9F8431425144E88463168FF
:10199000134F4D43044605F108001946384491465B
:1019A00001F0E9FA002302217A195360517482F898
:1019B00010900C4A2103127841EA8211326841EA00
:1019C000080101327F2A98BF134641F04D5141F47E
:1019D000801179513360BDE8F88300BFDC2A000232
:1019E000D42000026B1700020B460822C1B28B20E4
:1019F000FFF7C8BF10B5102886B00B46C4B206DD8D
:101A0000082221468420FFF7BDFF06B010BD0E4B13
:101A100008221B780F3440EA8310002340F04D5019
:101A200040F4C210019003A802938DF814208DF8A1
:101A3000154001F0A0FA054B054A1B6801A99B68F7
:101A400010685B699847E0E76B170002000200032B
:101A5000841F0002012238B50A4C05462146104673
:101A600001F0A8F82378022B84BF0123237000F033
:101A7000BBF8054B1860054B1D70BDE83840FFF7FB
:101A8000A1BE00BF6A1700026C17000270170002A7
:101A900007B501228DF807000DF10701104601F08E
:101AA0006DF8BFF34F8F0549054BCA6802F4E06239
:101AB0001343CB60BFF34F8FFEE700BF00ED00E0A4
:101AC0000400FA05F8B52A4C2A4B21681B68994294
:101AD00019D0294B1D68B5B91420284A00FB0121F3
:101AE00002224A7401221A60254B264A1D60264BA9
:101AF00010681B689B685B699847236801337F2BDC
:101B000088BF2B4623602148214A0368126893420C
:101B10002CD014225A431F491F4E8D580832C5F34A
:101B2000073405F03F0535701C4E0A443546082140
:101B300012F8017B013906F8017BF9D1013303F07A
:101B40000F03062C036004D00B2C0DD12878FFF76F
:101B50009FFF00F049F82B68984205D12879431E71
:101B60003E2B01D8FFF7BCFE2046F8BD0024FBE762
:101B7000E02A0002DC2A0002D42A0002D42000025B
:101B8000D82A0002841F000200020003CC200002B9
:101B9000C8200002881F000269170002292E0002D7
:101BA0000D4908B50B782BB10C4A13680133642B2F
:101BB0000BD813600A4A1368092B85BF0022094B12
:101BC00001331A6098BF136008BD002313600B70C7
:101BD000FFF7F8FDEEE700BFD02000027417000207
:101BE000D82A0002D42A00024FF47C3318687047C8
:101BF000014B1868704700BF04F00300114B1B78BD
:101C0000F3B1114B9A68D20708D5104A5969137875
:101C10000133DBB2137013780D4AD1540D4A0E49CB
:101C20001378097899420BD007498B685B0707D571
:101C300013780133DBB213701378084AD35CCB619D
:101C4000704700BFE82B000200000440E42A0002B5
:101C5000E82A0002EB2B0002E92B0002ED2B000228
:101C600010B5194C01214FF4E10000F057FF204658
:101C700001F04CF923684FF4E13123F07C0343F485
:101C8000401343F004032360204601F069F9236800
:101C90000E4A43F001032360636823F0400363604E
:101CA000002313700A4A13700A4A13700A4A137009
:101CB0000A4A13700A4A13700A4A13700A4A1370C8
:101CC00001220A4B1A7010BD00000440E62A0002EF
:101CD000EB2B0002E42A0002E92B0002E72A0002B3
:101CE000EC2B0002E52A0002EA2B0002E82B00029E
:101CF00038B9084B084A1B781078C01A18BF012061
:101D00007047012803D1054B054A1B78F4E70020F2
:101D1000704700BFE42A0002E62A0002E52A00021A
:101D2000E72A000238B9094A13780133DBB213708D
:101D3000074AD05C7047012808BF064A4FF00000F0
:101D400002BF137801331370704700BFE62A000208
:101D5000E82A0002E72A00027047FFFF044B1A68D6
:101D6000044B196891421ABF01201A600020704785
:101D7000F02C00020C2D0002014B1868704700BFC8
:101D8000182D000270B5284B284C1968226801F5FF
:101D90008030002A186017DD013A10302260186088
:101DA0005A88234C12F008020CD0266856B92149F3
:101DB000214B0D6821487DB10E60214909681960E9
:101DC00032230360226070BDEAD001F57F41013209
:101DD000F03122601960E3E71968013119604EF6AD
:101DE0005F211E688E42016888BF1D6011B10139F4
:101DF0000160E7E764201D68B5FBF0F100FB1151BD
:101E00000029DFD10F480168013101604FF47A7178
:101E10001868B0FBF1F301FB1303002BD2D10A4980
:101E20000B6801330B60CDE7FC2C0002F82C00029C
:101E3000042D0002142D0002182D0002082D0002AE
:101E40001C2D0002F02C0002F42C0002022873B5B5
:101E50000D462FD024D801283FD0474A474B116860
:101E6000186888421AD012681A60454A136801330C
:101E7000B3F5966F136088BF2B68424A84BF23F086
:101E800002032B6013680133C72B6ED81360FFF772
:101E900087FEAA223C4B9A6055229A6002B070BD20
:101EA000032813D02028D8D15522374B9A60AA2274
:101EB0009A60D2E7FFF732FD3F28CED0286840F085
:101EC00001002860C0B2FFF72FFDC6E7086820F0C8
:101ED0000100086000F0FE00F5E72C4B2C4E1B883B
:101EE00033602C4B34681B68ADF80040ADF802300D
:101EF000A4B29BB2E41A284B9C4220DA04F56A444F
:101F000060346B4600210822C0200194FFF73AFD9F
:101F100084EAE473A3EBE473642B20492B6816DD99
:101F200023F0020301202B60002332680B601E3275
:101F300032601B4A10600022114B1A608DE747F295
:101F40002F539C42C4BFA4F56A44603CD9E743F0D8
:101F500002032B606FF005039C42B8BF1C46062CA1
:101F6000A8BF062424040C60E5E70023287813604A
:101F7000FFF7DAFC8BE700BFF02C0002102D000207
:101F8000202D0002002D000200C00240292E000278
:101F90001C2D0002182D0002D08AFFFFF82C000231
:101FA000142D0002F8B52E49074601F0DEFC2D4E37
:101FB000002851D12C49384601F0F4FC00284DD1BD
:101FC00019253224394656F8240001F0EBFC00B103
:101FD000641B631C394656F8230001F0C6FC00B1AF
:101FE0002C44632CA8BF6324013524EAE47405EB78
:101FF000D575394656F824006D1001F0D3FC002841
:10200000E0D1631C394656F8230001F0AEFC0028ED
:10201000D8D156F824503846294601F07BFB1349A5
:1020200001F0C2FA631C0746294656F8230001F066
:1020300071FB0146384601F00FFB0546204601F0D2
:102040005FFC0A4901F0B0FA094901F063FB01465F
:10205000284601F0D1FBF8BD0024DAE76324D8E775
:10206000F59CBCC0403B0100D88B5B421F857B4187
:1020700000004843F8B51849074601F0BDFB174971
:1020800001F092FA01F00EFC6328A8BF632020EA59
:10209000E074204601F034FC114901F085FA0E4944
:1020A00001F038FB0146384601F034FB0D4E07467F
:1020B00056F824500134294656F8240001F02AFB32
:1020C0000146384601F070FA044901F06DFA2946DC
:1020D00001F092FBF8BD00BF00004843A747823DD6
:1020E0001F857B41403B01004FF4906238B50E4B99
:1020F0000E4C9A650546DA65842000F0A0FE832028
:1021000000F09DFE204600F086FD13230849636120
:10211000204600F08CFD236803F01E0343F001030A
:102120002360044B1D6038BD00800F400000054057
:10213000A086010024000002014B53F820007047E4
:10214000242D0002014B53F8200070472C2D000273
:1021500038B50D4C2368012B02D0022B08D038BDB6
:102160000A490B4800F0D0FD236801332360F6E7ED
:1021700007484368DB07F2D5044D294600F070FD9F
:10218000AB89FF2BF0D1EAE7E82D0002D82D000241
:102190000000054008B501464FF07E5001F0BAFA44
:1021A0000022024B1860024B1A6008BD1C0000029E
:1021B000382D00020122014B1A607047382D0002B1
:1021C0002DE9F041744B754D1C682E682146304650
:1021D00001F0CBFB20B3304601F09CFB06460F46D6
:1021E00002460B4600206E4901F00CF868A3D3E9C3
:1021F000002300F081FF32463B4601F0D7F801F0A2
:1022000059F906460146204601F0AFFB002846D1A9
:102210002E6029684FF07E5001F07CFA614B186007
:10222000614B624C1A680132092A1A6084BF01228C
:10223000A281A289FF2A0BD000215D4E1960002ADD
:1022400058D13368012B2CD0002B53D0022B3DD01A
:10225000584B1B68002B6BD12F68574C514B216892
:1022600038461D6801F0A0F9544E80463168284672
:1022700001F09AF90146404601F0BEFA616820601B
:10228000384601F091F971680746284601F08CF94B
:102290000146384601F0B0FA6060BDE8F0812C607C
:1022A000B7E7474A1178890626D5464902200968CA
:1022B000306000290CBF48214921A1734249C4E97B
:1022C0000012424AA260424A1360C1E73C4B1A78AE
:1022D00058783C4B40EA02201F683E4B00B223F87E
:1022E000170001F00DFB4FF0705101F05DF9334B19
:1022F00043F8270001233360324A374913680968DD
:1023000001338B4213600ED3002313604823A37361
:10231000324B012223602A4B63604FF00113A3600C
:102320002B4B1A6094E7002B0CBF48234923EEE7A0
:102330002B4A284913680888013303F01F031360F0
:10234000284A498822F81300203322F8131000236A
:10235000184632F9021B0133202B0844F9D101F051
:10236000CFFA4FF0665101F01FF90023124C1E4ABC
:102370002060184632F9021B0133202B0844F9D1A2
:1023800001F0BEFA4FF0665101F00EF984E700BF8C
:102390007B14AE47E17A843F1C0000023C2D000212
:1023A0000000F03F20000002402D0002D82D000266
:1023B0004C2D0002382D00022C2D0002242D00028D
:1023C000342D0002D42D0002502D00020100020025
:1023D000E82D0002442D0002240000022800000223
:1023E000482D0002522D0002922D00023F2830B5E8
:1023F0000A4A0B4D03D1CE232B7000230BE00A2396
:10240000B0FBF3F103FB1103064CDBB2E35C0928DC
:102410002B70F2D9635C137030BD00BF142E000224
:102420002A000002D43C0100102228494FF0E0535A
:102430000A6020224FF000600A6003F50852106025
:102440004FF0007010604FF4806008604FF400405F
:102450001060082008604FF0805111604FF08061DB
:1024600011604FF48031A2F5FE72C2F8FC111168C0
:1024700003F5005341F010011160116841F0200193
:102480001160196841F000611960196841F000712C
:102490001960116841F480611160196841F40041CC
:1024A00019601168014311601A6842F080521A6085
:1024B0001A6842F080621A601A6842F480321A6028
:1024C0001A6842F480421A60704700BF0422001C60
:1024D000714AF8B513680133B3F5A07F0CD21360CD
:1024E0006E4A136801332F2B136064D900231360E5
:1024F0006B4B4FF4804284E000200127694B106051
:102500001F60FEF73BFE684E684D694CD8B93846EF
:10251000FEF734FEB8B93368F92B9CBFDB19336082
:102520003368632B08D1634A138843F01003138088
:1025300000232B602360D3E7F92BF9D15D4A138880
:1025400043F02003F3E700203060FEF717FEE0B908
:102550002B68632B08D80133632B2B6004D1554AB9
:10256000138843F0020313800120FEF707FE23685F
:10257000B8B9632BB4D80133632B2360B0D14D4A73
:10258000138843F008031380AAE72B68033B5F2BF3
:102590009FBF484A138843F00103138000232B6038
:1025A000E2E7033B5F2B9FBF424A138843F00403DB
:1025B00013800023BEE7012B25D13F4B4FF0E052A3
:1025C0001B78DB43DBB2D90982F82410C3F38011F6
:1025D00082F82510C3F34011D176C3F30011517670
:1025E000C3F3C00182F82A10C3F38001D173C3F38F
:1025F000400103F0010382F823101377284B4FF0BA
:1026000080621A60F8BD102B01D12C4BF7E7112B1B
:1026100024D12B4B4FF0E0521B78DB43DBB2D909BE
:1026200082F82410C3F3801182F82510C3F34011FF
:10263000D176C3F300115176C3F3C00182F82A109A
:10264000C3F38001D173C3F3400103F0010382F8A7
:1026500023101377124B4FF48032D2E7202B01D195
:10266000164BF8E7212BCDD1164B4FF0E0521B78DB
:10267000DB43DBB203F0010182F82410C3F3400115
:1026800082F82510C3F38001C3F3C003D17382F82D
:1026900023300A4B2DE700BFF02D0002EC2D000285
:1026A0008022001C202E0002082E00020C2E0002A8
:1026B000102E0002FC2D00022A0000020022001C45
:1026C000142E0002152E00022DE9F8439A4B88467D
:1026D0001A681AB900263046BDE8F8830025974CE1
:1026E0001D60236801332360954B1E68002E35D092
:1026F0009449721E0E681A600EB91E60EBE792498B
:102700000B681BBBFF20914C2070914C20703F2424
:102710009048047050070FD101330B608C498B4CEB
:10272000087880280CBF012323784FEA40001CBFA3
:102730005B00DBB22370087012F00F06CAD1854A25
:102740001378002BC6D05B081370C4E7082BE1D1C7
:1027500001247F4804707D480570DBE77E4B1A88B2
:102760001D4612F0200F02D01E800226B3E77B4FD9
:102770003B68002B36D12B88D9060AD5784B1B78BD
:102780003BB10A233B60774B2E801870764B266056
:102790001E602B8803F00A0343B1012200233A6034
:1027A000704A2B801070704A236013606F4B1B6857
:1027B00023B16F4A12789A5C664B1A70614BD3F85A
:1027C0000090B9F1020F42D0FFF710FEB9F1010FEE
:1027D0003DD1236813F0010F04D000235B4A13702E
:1027E0005B4A13703868012855D15F4B1A68013273
:1027F0001A602A8852070ED52A885A4922F0040204
:102800001204120C2A800A780132D2B23F2A25D94A
:10281000087000221A602A8812F0010227D02A8844
:10282000504922F001021204120C2A800A78013A5F
:1028300012F0FF0217D13F220A7000221A602368AB
:10284000132B1BD9474B1878FFF7D0FD1BE0B8F1CD
:10285000010FC7D1236813F0800FBDE7202A88BF7E
:102860003F220A70D5E73E2A08BF2022E4E7196814
:10287000B429E4D91A60022322603B600023334A62
:102880001370334A13702368590741BF304A1378D5
:1028900043F0010313703B68022B0FD1314B1878C2
:1028A000FFF7A4FD2368132B4FF0000303D8274A3A
:1028B0001370274A48E73B6001260CE70A2B66D1D4
:1028C000294B1A6801321A602A88520714D52A88BF
:1028D000274922F004021204120C2A8020480A78A8
:1028E00000780132D2B20A7090424FF0000238BF35
:1028F0000A701A60042222602A8812F001023CD079
:102900002A881B4922F001021204120C2A800A783C
:1029100082BB134A12780A7000221A6004232360D3
:10292000124B1B68002B3FF4D5AE114A12789A5C0B
:10293000084B1A70CEE600BF202E0002F42D0002D4
:102940002C000002F82D00021C2E0002142E0002A2
:102950002A000002152E0002FC2D0002182E000293
:10296000052E000229000002242E0002002E000283
:10297000042E0002013AD2B2CDE71968B4290ED96B
:102980001A600B2322603B600022074B1A703B68E1
:102990000B2B7FF49FAE002303263B609BE623684E
:1029A0005B07F1D5BCE700BF152E0002014B18787C
:1029B000704700BF2900000208B500F0D3F8014BB2
:1029C000186008BD342E000210F0030004D0012866
:1029D00004D1034B186870470248704700207047C5
:1029E000A83A0100001BB700024BD3F8A000FFF784
:1029F000EBBF00BF0040074008B5054BD3F8982156
:102A0000FFF7F2FF02F03F0202FB000008BD00BF2B
:102A100000400740084BD3F88030DBB2012B05D0D3
:102A20003BB1022B054818BF00207047044B1868C3
:102A300070470448704700BF00400740D8AC07000B
:102A4000A83A0100001BB7000A4BD3F88430DBB270
:102A5000032B0CD8DFE803F002040608FFF7DABF07
:102A6000FFF7C2BFFFF7C8BF034B186870470020CD
:102A7000704700BF00400740AC3A0100032898BFF0
:102A80000022064B85BF0438C0B2C3F88000C3F8EB
:102A9000840098BFC3F88420704700BF00400740FF
:102AA000044BD3F8843013F0FF0F01D1FFF7B2BF0E
:102AB000FFF7CABF004007401F28094A4FF0010333
:102AC00007D9D2F8C810203883400B43C2F8C83069
:102AD0007047D2F8C41083400B43C2F8C43070472B
:102AE0000040074010B50C4CD4F8D01091B1FFF75E
:102AF000D7FFD4F82821B0FBF1F1D3B2FF2B09D1D5
:102B0000C2F30722080202F580720023090E00F0CA
:102B100038FA0146084610BD0040074038B5044663
:102B2000FFF7BEFFA0422CBFB0FBF4F201220C4D18
:102B3000D3B2C5F8D03081B16243811A08020023B4
:102B4000090E00F01EFA000280B240F0FF00C5F846
:102B50002801BDE83840FFF7C5BFC5F82811F8E7E0
:102B60000040074008B5FFF79BFF034BD3F8C03088
:102B7000B0FBF3F008BD00BF0040074000B53D23A7
:102B80008BB0CDE902124FF47A72CDE90030074BD9
:102B900068461B6805A9B3FBF2F30493044B9847FE
:102BA0009DF814000BB05DF804FB00BF342E00024A
:102BB0000502000300B53E238BB0CDE902124FF4AD
:102BC0007A72CDE90030074B68461B6805A9B3FB54
:102BD000F2F30493044B98479DF814000BB05DF892
:102BE00004FB00BF342E00020502000308B50E20CE
:102BF000FFF762FF0F20FFF75FFF1020FFF75CFF7A
:102C00000B20FFF759FF0B2000F03CF9BDE808400E
:102C10000B2000F049B908B52D20FFF74DFF2D20FE
:102C200000F030F9BDE808402D2000F03DB938B57E
:102C300005460C46FFF734FF696989B201FB04447D
:102C4000B0FBF4F04408A3B2023B001B1B010630AA
:102C500003F0700300F007001843686238BDFFFFFF
:102C6000436810B5DC0608D505238B81102343602B
:102C70008889FF3818BF012010BD5A0603D50323E9
:102C80008B814023F3E7DB073AD54368C3F3420364
:102C9000042B35D801A252F823F000BF712C01009B
:102CA000B12C0100CB2C0100F32C0100FB2C010006
:102CB0004B68826A5C1C4C601A704B89013B9BB26A
:102CC0004B81BBB101230362D2E70B893BB10A6898
:102CD000013B541C0C60127882620B81F2E74B8935
:102CE00043B18B7B5B0043F00103DBB283620223C1
:102CF000E9E702238B810423E5E704238B81E2E7E4
:102D000001238B81B4E700BFFF238B8150234360F5
:102D10000B898A7BB3FA83F35B0943EA4203DBB294
:102D2000836202230362704730B501EB8202914255
:102D300000D130BD0D784B784C8803EB451340F83B
:102D400023400431F3E710B5C0F3833000F11C04D5
:102D50002046FFF7B1FE204600F094F82046BDE87B
:102D6000104000F0A1B810B50C46FFF7FBFEB0FB19
:102D7000F4F0013810BD026810B512F0010205D060
:102D8000036823F043031B051B0D03608C784B780D
:102D900023430C7823434C68234303600B8943622D
:102DA000BC2383601AB1036843F00103036010BDC4
:102DB00008B50B4B98420AD12A20FFF77DFE2A2046
:102DC00000F060F82A20BDE8084000F06DB8292026
:102DD000FFF772FE292000F055F82920F3E700BF25
:102DE00000C004400B7803F00F0343604B78426847
:102DF0001B01DBB2134343608B7842681B0203F470
:102E0000706313434360CB782BB1013B42681B03D3
:102E10009BB213434360704710B5FF2400F00F03CB
:102E20000009800000F1804000F56030DB0002689E
:102E30009C4022EA040299401143016010BD012127
:102E4000C3099B0003F1804303F56033D3F8C0212D
:102E500000F01F0001FA00F022EA0002C3F8C021CE
:102E60007047C30900F01F0201209B0003F180435B
:102E700003F56033D3F8C01190400843C3F8C00194
:102E80007047FFFF1F28074A4FF0010305D9916CD7
:102E9000203883400B4393647047516C83400B434D
:102EA00053647047004007401F28084A4FF0010351
:102EB00006D9916C2038834021EA0303936470475C
:102EC000516C834021EA030353647047004007407C
:102ED000054AD2F80832184320F07E4020F08700DF
:102EE000C2F80802704700BF00400740054A064983
:102EF000D2F80832084023EA00030B40C2F8083237
:102F0000704700BF0040074078FFFF0138B5124D01
:102F10000446A84210D01148844214BF3320322006
:102F2000FFF7CAFDAC4209D13120FFF7ABFF3120DA
:102F3000BDE83840FFF7B8BF3120F1E7074B9C42AE
:102F400004D13220FFF79EFF3220F1E73320FFF754
:102F500099FF3320ECE700BF00000440004004402C
:102F600038B50C460546FFF7BDFD2401B0FBF4F46F
:102F7000013C2C6238BD00F032BD00F04ABDFDF7C7
:102F80004FBE5FF0000C30B51C0022D112006FD094
:102F9000914206D305460846002100F06FF804462A
:102FA000284600F06BF80A462146BDE830401CF088
:102FB000404F08BF704703D54942404261F10001CC
:102FC0005FEA8C0C38BF70475B42524263F10003EA
:102FD000704742D41C0C04BF1B040CF1100C13F0FE
:102FE0007F4F04BF1B020CF1080C13F0704F04BF9D
:102FF0001B010CF1040C13F0404F04BF0CF1020C48
:103000005FEA83035CBF0CF1010C5B00CCF1200E86
:1030100022FA0EF4234302FA0CF200FA0CF520FA1D
:103020000EF001FA0CF4204321FA0EF114461A4670
:1030300000F024F8A4FB0023AA1A71EB03033CBFA1
:103040001B190138CCF1200E22FA0CF203FA0EF40F
:10305000224323FA0CF30021A7E7821A71EB030342
:103060003CBF02460B464FF0000141F100009CE7D7
:1030700000200021BDE8304000F03DB80423B1EB52
:10308000122F09D2090241EA10610002013B08BF78
:103090007047B1EB122FF5D30018494134BF91426C
:1030A000891A4041494134BF9142891A40414941FE
:1030B00034BF9142891A4041494134BF9142891A33
:1030C0004041494134BF9142891A4041494134BF8E
:1030D0009142891A4041494134BF9142891A404185
:1030E000494134BF9142891A4041A3F1010313F0D1
:1030F0000F0FD2D1704770472DE9F04781EA0304E2
:10310000C1F30A5640F2FF7704F0004436B1BE42E4
:1031100004D0C3F30A550DB1BD4207D1490011F5E2
:10312000001F58D35BD00020344946E0C1F313019F
:103130004FEAC22841F480113544A1FB08674FEAE9
:10314000525CB6463A46A8FB00674FF00009B84605
:103150004CEAC32343F0004C00234FF0000AE0FB8D
:103160000C89ECFB012318EB0E0149EB0A0A12EB68
:103170000A0843F10009B9F5801F41EA96011ED201
:1031800018EB080649EB0900814646EAD178A5F517
:1031900080654900C80F18EB000249F10003B1F146
:1031A000004F40F2FD71164608BF22F001068D4225
:1031B00008D830461C4304EB0551BDE8F087A5F262
:1031C000FF35E7E7002D03DB44F0FF4444F4E0045F
:1031D00000202146F1E75A0012F5001FF8D3084AF3
:1031E0005B0093429FD811424FF000009CD01342E5
:1031F0009AD044F0FF4141F4E001DEE70000F87F9F
:103200000000E0FF944691EA0302F0B405460E4642
:1032100006D503F100452B46F0BC624600F0C6B867
:10322000994203D3604508D8994206D102F1004281
:10323000564053402A466546944640F2FF71370D8A
:1032400027F40062180D8A42A7EB000400F0A0806A
:10325000944200F09980C6F31302C3F313031F2CAA
:1032600042F4801143F480134FD823FA04F2891AF0
:1032700000F12002D21B93402CFA04F41C432C1BB7
:1032800038BF01F1FF311CFA02F3254603D05B423F
:10329000651E04B9013911F4C01F54D1EA0FDB0FC8
:1032A00042EA410243EA450352EA03046DD0BC1EE0
:1032B000510B24D0510C01BF190F41EA02121B011E
:1032C000043CD10C01BF990F41EA82029B00023CF1
:1032D000110D02BFD90F41EA420204F1FF344FEA57
:1032E000D67108BF5B00B1EBD42F4FF0000006BFD2
:1032F000184602EB045106F00041F0BC7047190E6D
:1033000041EA02221B02083CD2E7352C1BD8203CA4
:1033100023FA04F2AA1AC4F1200003FA00F338BF1A
:1033200001F1FF312CFA04F45FEA0C60154643EA20
:10333000040306D043F0FF035B42551E1AB901395E
:1033400001E0002BF8D1CA0209D4013F7A050FD061
:10335000EA0F42EA4101DA0F42EA45055B00002B21
:1033600021F480124FEA075405DB11192846C4E7FF
:1033700039051046C1E7013508BF0132B3F1004FEE
:1033800008BF25F00105F0E75CB921462046B4E707
:1033900033034FF0000001D00349AEE70CB90249F6
:1033A000F4E73146E2E700BF0000F87F91EA030F3F
:1033B000F0B405460E4605D503F100452B46F0BC9A
:1033C000FFF720BF994238BF1E4640F2FF7C3EBF48
:1033D0000B4615460246300D20F40067190D67456F
:1033E000A0EB01045CD0BC4255D0C6F31307C3F375
:1033F00013031F2C47F4801743F4801327D8203180
:10340000091A23FA04FC22FA04F48B402343ED1832
:10341000674428BF013702FA01F3BA022BD5013500
:1034200008BF01370BB925F00205360D360506EB4E
:103430005706730013F5001F2BBF421C31460020B6
:10344000FF0734BF47EA55001105F0BC7047352C23
:10345000E3D8203C23FA04F16D18C4F1200103FAEB
:1034600001F322FA04F428BF01372343120618BFE0
:1034700043F0FF03D1E7002B00F1FF3207DA0135FB
:1034800008BF0137B3F1004F08BF25F0010507EB76
:1034900002512846D9E74CB906F000412046D4E74E
:1034A00033034FF0000001D00149CEE73146F0E789
:1034B0000000F87F21F0004230B502F1474505F5E4
:1034C0007005B5F17E6F01F000440FD202F1484360
:1034D000420FC10042EAC30202EBD173B1F1004FC7
:1034E00008BF23F001031C43204630BD002DFBDB49
:1034F000490011F5001F94BF44F0FF44004CF3E76E
:103500000000C07F30B5054651EA03000BD45800D7
:1035100010F5001F1DD8994219D31AD195422CBF1E
:103520000020012030BD480010F5001F11D85C00BC
:1035300014F5001F0DD82C4314432043F2D09942B8
:1035400005D806D1954294BF00200120EAE701206A
:10355000E8E70020E6E730B551EA030405464FEA04
:1035600041000AD410F5001F1CD8994218D819D16F
:10357000954294BF0020012030BD10F5001F11D8E6
:103580005C0014F5001F0DD82C4314432043F3D0E6
:10359000994205D306D195422CBF00200120EBE7CC
:1035A0000120E9E70020E7E7C0F3C75230B581EA20
:1035B000000332B1FF2A04D0C1F3C7540CB1FF2C71
:1035C00011D14000B0F17F4F3AD340D14900B1F161
:1035D0007F4F3CD810F07F4F39D011F07F4F36D05D
:1035E00003F0004029E022440902040241F00041B6
:1035F00044F00044A4FB01452946002DA8BF690002
:1036000003F0004040EA11234FEA0161B4BF7F3A62
:10361000803AB1F1004F03EBC25304D0FD2A02D827
:1036200003EBD17030BD01330CB923F00103FD2A47
:1036300001D81846F6E7002AF4DB40F0FF40F1E736
:103640004A00B2F17F4FC1D203F00040EAE70148DF
:10365000E8E700BF0000C07F30B5C0F3C75580EA7F
:10366000010335B1FF2D04D0C1F3C7520AB1FF2ABF
:1036700005D14200B2F17F4F32D9254812E0040251
:10368000090244F0004441F000418C42A5EB0205E0
:1036900032BF7D357E356408FD2D04D9002D03F041
:1036A00000402EDA30BD090AB4FBF1F201FB1244EE
:1036B000D80F240202EBC030B4FBF1F201FB12443C
:1036C0002402B4FBF1F301FB134402EB002003EBF3
:1036D000002000EBC550A1EB440100EBD170E1E705
:1036E0004C00B4F17F4FC8D80843400010F07F4F22
:1036F000C3D012F07F4F03F00040D3D0B4F17F4F1E
:1037000002D040F0FF40CDE7B2F17F4FB5D0C9E71E
:103710000000C07F90EA010230B4034604D530BCFB
:1037200001F1004100F068B888423CBF02F100425C
:1037300053404FEAD35038BF5140C2B2CC0DFF2A9C
:10374000A0EB04054DD0954247D009021A0241F082
:10375000004142F0004221FA05F5521B13D502F157
:1037600000428032C30503EB1223120608D1203435
:10377000201A11FA00F20CBF23F0010303F1FF330A
:10378000184630BC70475200002A18DADB0D803230
:10379000DB0503EB2223120600F0FE0501D0002D0D
:1037A000EED12034201A11FA00F20CBF23F00103ED
:1037B00003F1FF33002DE3D103F00043E0E716D01F
:1037C000B2FA82F10238401AC00593EA000FF3D42E
:1037D00002FA01F300EB1323D2E7002D08BF002308
:1037E000CEE75A0201D1002DCAD1024BC8E700230F
:1037F000C6E700BF0000C07F90EA010F70B4034627
:1038000004D570BC01F10041FFF784BF88423EBF80
:1038100002460B461146DD0DEAB2CC0DFF2AA5EBA0
:10382000040039D0904232D009021A0241F000411E
:1038300042F0004221FA00F012180AD202F10042CE
:103840008032E80500EB1223120618D070BC18462F
:103850007047681C02F58072C60506EB5223D2053C
:10386000C0B201D0FF28F1D12034651B11FA05F256
:1038700008BF23F00103FF2808BF3346E6E72034E2
:10388000651B11FA05F2E1D123F00103DEE7002800
:10389000DCD103F00043D9E75A0218BF004BD5E74B
:1038A0000000C07FC20D010241F00041C2F19E0341
:1038B0009D2A10B5044621FA03F003D9D2B29D2AFD
:1038C00001D8404210BDFF2A02D1B1F1004FF9D119
:1038D0006FF0004303EBD470F4E778B1B0FA80F2F4
:1038E00000FA02F3C2F11F00803301EBC05000EB7D
:1038F00023201B0603D120F00100704700207047F1
:1039000000F00041002801F18041B8BF4042FFF7BC
:10391000E4BFFFFFC31013F07F610AD0B1F17F6FE6
:103920004FEA407243F0E04308D003F148411046AB
:10393000704703F0004300201946704752EA0332F3
:10394000014A18BF1346F6E70000F87F884203D00B
:103950000143B1F1004F06D14000B0F17F4F8CBF61
:103960000020012070470020704750EA010308D46E
:103970004B00B3F17F4F13D888422CBF00200120A9
:1039800070474200B2F17F4F0AD84A00B2F17F4F30
:1039900006D8884204D913F1004018BF01207047AF
:1039A0000020704750EA01034FEA400207D4B2F109
:1039B0007F4F12D8884294BF002001207047B2F197
:1039C0007F4F0AD84A00B2F17F4F06D8884204D20E
:1039D00013F1004018BF012070470020704740EAF3
:1039E0000103DB0703460CD40346043A22BF51F817
:1039F00004CB43F804CBB2F10402F7D2043208BF7F
:103A00007047013A24BF11F801CB03F801CBF8D875
:103A10007047034613F0030F0ED101F0FF0141EA96
:103A2000012141EA0141043A24BF43F8041BB2F1E9
:103A30000402F9D202F10402013A24BF03F8011B87
:103A4000FAE77047165200FF000000FF0000000078
:103A50000F0000000D0000000B0000000900000036
:103A60000700000005000000030000000100000046
:103A70000200000004000000060000000800000032
:103A80000A0000000C0000000E0000001000000002
:103A900040446576696365496440024052657669D1
:103AA00073696F6E400800FF001BB70000800000C4
:103AB0000104800001058000001B800000198000C7
:103AC000010A8000000F800001038000001C8000BC
:103AD00000108000001A8000001E90000009900075
:103AE000000D800000128000000B8000001F80008D
:103AF00000008000000180000008800000068000B7
:103B00000005800000028000001D80000100800090
:103B100001088000625861F801680090500052402E
:103B2000510853306028FFFF0000000000000F40E4
:103B300078170002100000020000000000000000E2
:103B4000F59CBCC04B39B4C02B76AAC077699FC026
:103B5000AD2593C01DBD85C0E8846EC0EA914FC0FD
:103B600047C92EC07E540CC0AEBAD0BFEC1786BF7A
:103B7000AB3DE4BE4DC02F3EA0F94C3F1D3BB83FCE
:103B80003E77054010222F4013F158403A578140AC
:103B9000351896403AADAA402B12BF40184CD3407E
:103BA0002769E740F07AFB4029CB074171E41141D6
:103BB000CA0D1C41C948264107953041C4F03A411D
:103BC000CF59454122CE4F411B4C5A4191D26441BD
:103BD000B1606F41E1F57941CF488241B5998741A4
:103BE0005DED8C417D439241BE9B9741C5F59C4163
:103BF0002E51A24192ADA741830AAD419667B241D1
:103C000051C4B7414A20BD41137BC2413FD4C74193
:103C10006A2BCD413080D24133D2D7411F21DD41C3
:103C2000A36CE24178B4E7415CF8EC411738F2410B
:103C30007773F74151AAFC4140EE0042F4840342FD
:103C40003919064206AB0842543A0B421EC70D42D0
:103C5000615110421AD91242485E1542EAE01742F9
:103C6000FD601A427FDE1C426E591F42C3D12142C1
:103C70007A47244289BA2642E52A294281982B4272
:103C800050032E423D6B304236D032422432354210
:103C9000F09037427DEC3942B4443C4277993E4241
:103CA000ABEA404235384342FC814542EAC74742CD
:103CB000EC094A42F1474C42F3814E42F0B7504280
:103CC000EDE95242FB17554235425742C26859420C
:103CD000D88B5B42FC60DAF266B6BEE0FEF6EE3EE2
:083CE0009C7A9E8ECEFFFFFFCF
:103CE800020800100A08FFFF0100000001000000A0
:103CF8000117010045170100551701003D197F3FC5
:103D08000000803F0100000001FF01FFFA000000F1
:04000003100005479D
:00000001FF
